:020000040800F2
:10800000B8470010A5810008CBBF000847BC000896
:10801000C9BF00087986000893E30008000000004B
:108020000000000000000000000000006FC5000814
:10803000038700080000000081C0000871C5000827
:10804000BF810008BF810008BF810008BF81000810
:10805000BF810008BF81000805870008BF810008B4
:10806000BF810008BF810008BF810008BF810008F0
:10807000BF810008BF810008BF810008BF810008E0
:10808000BF810008BF810008BF810008BF810008D0
:10809000BF810008BF810008BF8100083D8700083C
:1080A000BF810008BF810008BF810008BF810008B0
:1080B000BF810008BF810008BF810008BF810008A0
:1080C000BF810008BF810008BF810008BF81000890
:1080D000BF810008BF810008BF81000881CC000873
:1080E0002D870008BF810008BF810008BF810008FC
:1080F000BF810008BF810008BF810008BF81000860
:10810000BF810008BF810008BF810008BF8100084F
:10811000BF810008BF810008BF810008BF8100083F
:10812000BF810008BF810008BF810008BF8100082F
:10813000BF810008BF810008BF810008BF8100081F
:10814000BF810008BF810008BF810008CDBF0008C3
:10815000BF810008BF810008BF810008BF810008FF
:10816000BF810008BF810008BF810008BF810008EF
:10817000BF810008BF810008BF8100080000000027
:10818000BF810008BF810008DFF814D000F030F98B
:1081900000F082F800480047794C020800F0D2F85D
:1081A000B84700100648804706480047FEE7FEE74C
:1081B000FEE7FEE7FEE7FEE7FEE7FEE7FEE7FEE797
:1081C00031C60008898100082DE9F05F05460020CE
:1081D00092469B4688460646814640241BE0284638
:1081E00041464746224600F08FF853465A46C01A89
:1081F000914110D311461846224600F076F82D1A08
:1082000067EB01084F4622460120002100F06DF87F
:1082100017EB00094E41201EA4F10104DFDC4846A3
:1082200031462A46434600F000B830BCBDE8C09F46
:1082300040EA01039B0703D009E008C9121F08C0E8
:10824000042AFAD203E011F8013B00F8013B521E68
:10825000F9D27047D2B201E000F8012B491EFBD2DF
:1082600070470022F6E710B513460A460446194641
:10827000FFF7F0FF204610BD421C10F8011B00293B
:10828000FBD1801A7047034611F8012B00F8012B2F
:10829000002AF9D11846704770B5054C054D03E02A
:1082A000206820448047241DAC42F9D170BD0000F5
:1082B00060660208746602082DE9F041074615461B
:1082C0000E4610201CF0CCFD04000AD06760C4E903
:1082D000026500F029F80168216004600020BDE813
:1082E000F0810120FBE700F04EB8202A04DB203AA1
:1082F00000FA02F1002070479140C2F1200320FAF9
:1083000003F3194390407047202A04DB203A21FAF6
:1083100002F00021704721FA02F3D040C2F120029E
:1083200091400843194670470048704720010020DB
:10833000034870470248001D011F8860001D7047F8
:108340007C0200102DE9F0410646FFF7EDFF804664
:10835000454613E016B1E068B0420ED120682860AF
:10836000D4E90101D8F80070884720461CF042F992
:10837000D8F80000B842EBD100E025462C68002C6C
:10838000E8D1BDE8F08110B500F00DF8016919B130
:1083900000220261884701E080688047AFF30080D7
:1083A00010B5AFF3008070B5FFF7C4FF0468054651
:1083B000A4B920201CF054FD040011D0094900206C
:1083C0002C60C4E900010849A1602073206160614C
:1083D0000649A06109B100F02DF8E061204670BDAA
:1083E000AFF3008000000000A1830008000000003F
:1083F000064C074D06E0E06840F0010394E80700F2
:1084000098471034AC42F6D3FFF7C2FE206602084C
:108410006066020870472DE9F04116461F460C467B
:10842000851B02E02846B847AD1B641EFAD2BDE8A2
:10843000F08100DE10B588201CF012FD002801D06C
:108440000021017010BD802902D808B1017809B15E
:1084500000207047012100F8081B704718B100F197
:108460000802914201D0002070470021017070473E
:1084700070B58C1810F8015B15F0070301D110F8E6
:10848000013B2A1106D110F8012B03E010F8016B13
:1084900001F8016B5B1EF9D12B0705D40023521E96
:1084A0000DD401F8013BFAE710F8013BCB1A921CFE
:1084B00003E013F8015B01F8015B521EF9D5A142FC
:1084C000D8D3002070BD00231A4619460AF0CFBC4D
:1084D0002DE9F04104460E460025006803F0DFFB5D
:1084E0000746206803F0D3FB074357D02068C168D4
:1084F000890111D5617E01290ED1217E01290BD17F
:108500000126274902E08D4239D26D1C0268D24310
:108510005206F8D440210160224D022E0FD020686F
:1085200003F0BDFB48B120688168C1F3400121B967
:108530008168294041F010018160012E0DD0206832
:1085400003F0A5FB48B120688168C1F3400121B95F
:108550008168294041F020018160022E08D0032E5D
:1085600004D0042501F0DAF9064613E00C25F9E7FA
:108570000825F7E701F0D2F9801B05280AD9606DBC
:1085800040F010006065A06D40F00100A065012082
:10859000BDE8F081206880682842EBD10020F7E731
:1085A000000040A3C0FFFF7F70B5044600688168EB
:1085B000C1F3400503F06FFB28B325BB2068816839
:1085C00001F00D01012910D18168104A1140891C68
:1085D000816021680320086001F0A0F905460EE0E3
:1085E00001F09CF9401B022809D9606D40F0100091
:1085F0006065A06D40F00100A065012070BD20689D
:108600008068C007ECD1002070BD0000C0FFFF7F74
:1086100070B50446006803F03EFB48BB20688168E3
:10862000144A114215D18168D6433140491C8160FA
:1086300001F074F9054616E003F02DFB20B920681F
:1086400081683140491C816001F068F9401B0228B3
:1086500009D9606D40F010006065A06D40F0010028
:10866000A065012070BD20680168C943C907E3D136
:10867000002070BD3F000080FEE700207047002012
:108680007047000010B500220449054804F0F2FBD1
:108690000449034804F0E8FB002010BD501300100B
:1086A0008C020010500B001010B504461DF04CFC5D
:1086B0002146044804F0D8FB024804F0B9FB00202E
:1086C00010BD00008C0200100A46094910B5D1F80F
:1086D0009012D1F8141209B1012010BD01460448CE
:1086E00004F0C8FBBDE81040014804F021BC0000C4
:1086F0008C020010C0E9021200210161416001609A
:108700007047704710B5084C206840F480302060F6
:108710001BF04CF9206820F480302060BDE8104048
:10872000012000F0FBBF0000F00000100249012012
:108730000870C00200F0F2BF7000002010B50E4CAF
:108740002068800601D51CF0A3FE206840060AD5EB
:108750000A4C206840F4003020601CF0BDFE206808
:1087600020F400302060202000F0D8FFBDE8104049
:10877000402000F0D3BF000014040140F0000010BE
:1087800070470000124A107F1249012801D00328C7
:108790000BD10B6843F400630B600B6823F4006398
:1087A0000B600B6843F400730B60022801D00328B0
:1087B0000BD1086840F480500860086820F48050AD
:1087C0000860086840F480600860002010777047F7
:1087D00044010010002002400849C20703D04A6942
:1087E00042F004024A61800703D5486940F4004022
:1087F0004861486940F48030486170470020024079
:10880000CA070B494A6902D022F4006201E042F42F
:1088100000624A614A6960F3CA024A61486940F0ED
:1088200002004861486940F48030486170470000A8
:1088300000200240054910B54C6944F001044C6128
:108840000260BFF36F8F436010BD00000020024044
:10885000094B10B55C69402244F480245C61EFF35D
:10886000108372B610C910C0521E12F0FF02F9D167
:1088700083F3108810BD00000020024070B504464C
:1088800001F04CF80646184D08E0601C06D001F0D7
:1088900045F8801BA04201D3032070BD2869C003A6
:1088A000F3D429694CF2FA300140A86900F0004085
:1088B000084311D00D494A6802434A60810F04D031
:1088C000A96900F040421143A961810002D020F063
:1088D00040402861012070BD2869C00701D00120F7
:1088E0002861002070BD00000020024044010010FB
:1088F00070B504002DED028B86B03F48009008D083
:10890000012C02D0022C04D101E03C4800E03C489C
:10891000009006200190052002907F200390042003
:108920000026CDE904066946364800F003F93548CB
:1089300000F08AFC0A21334800F00AFC314800F0BC
:10894000F4FA05462F4800F0F9FC2F4845F30001E2
:10895000491C81700CB1032C0FD100EE105AD0EDE0
:10896000010AB8EE400A20EE800ADFED280A20EE68
:10897000200AF0EE000A20EE208A012C03D0ACB1D0
:10898000032C13D02FE000EE105ADFED210A9FEDEB
:10899000211AB8EE400A60EE200A81EE200ADFEDCF
:1089A0001E0A80ED010A20EE208A1CE018EE101A43
:1089B0001A4B012280ED028A994201DD427005E0E6
:1089C00018EE101A164B994200DA467018EE101A7B
:1089D000144B994201DA027005E018EE101A124A9F
:1089E000914200DD0670BCEEC80A06B010EE100A17
:1089F000BDEC028B80B270BD0000214301000080FD
:108A0000000084CB28010020D0000010FF3F4E3F23
:108A10003333533A9A99993F00404E450020B2456E
:108A200000E0AB4500C05A4500006145044890EDA8
:108A3000020ABCEEC00A10EE100A80B270470000B5
:108A4000D00000102DE9F047044690F850009AB08D
:108A50000D464FF00008012813D0012084F8500083
:108A6000304E20684FF00009B0420ED12E4F0097D3
:108A7000384603F018F98246206803F014F960B113
:108A80000EE002201AB0BDE8F087616D41F02001D0
:108A9000616584F850900120F4E7BAF1000F09D025
:108AA000606D40F0200060654FF0010884F8509040
:108AB0004046E7E71D4829681D4A0029816840F6BD
:108AC0001F7321F460411BD094F830C041EA4C314F
:108AD000D5F804C041EA0C018160B168BE68C1F3F9
:108AE0000001C6F3000692683143C2F3000211434D
:108AF000DCD1AA682968114382689A4311430EE0C9
:108B00008160B168BD68C1F30001C5F300059268DA
:108B10002943C2F300021143C8D18168994381609F
:108B2000C4E700000000045000010450000304509A
:108B3000000204502DE9F84F00270446009790F8F2
:108B40005000DFF8B0930D46B846012810D001263A
:108B500084F85060206803F0A2F858B1606D40F0CE
:108B600020006065012784F85080384600F0DAB9AB
:108B70000220FBE768680C23052812D8022807D0DA
:108B8000032807D0042807D0052807D0062007E0CF
:108B90006B6006E0122003E0182001E04FF48070C3
:108BA0006860D5E90021206803EA91131844036B3B
:108BB00001F01F014FF01F0C0CFA01FCC2F384629C
:108BC00023EA0C038A4013430363206803F067F829
:108BD0008246206803F05BF85AEA00011DD1AA68BA
:108BE0002968206803F06BF820686A69C168C1F3DE
:108BF000C10149008A40296904290FD000EB810096
:108C00002B68016EDFF8F0C203F0F84301EA0C01B3
:108C10001343194341F00041016672E0002103F063
:108C200030F8400320684FF0000171D003F029F8BC
:108C300090FAA0F0B0FA80F1286842036DD090FA63
:108C4000A0F0B0FA80F0814204D1002211462068E1
:108C500003F044F80121206803F013F84003206872
:108C60004FF001015CD003F00CF890FAA0F0B0FADC
:108C700080F12868420358D090FAA0F0B0FA80F052
:108C8000814204D100220121206803F027F802214B
:108C9000206802F0F6FF400320684FF0020147D041
:108CA00002F0EFFF90FAA0F0B0FA80F128684203DA
:108CB00043D090FAA0F0B0FA80F0814204D10022B3
:108CC0000221206803F00AF80321206802F0D9FF8E
:108CD000400320684FF0030132D002F0D2FF90FA37
:108CE000A0F0B0FA80F1286842032ED090FAA0F0EC
:108CF000B0FA80F0814204D100220321206802F002
:108D0000EDFF206802F0C7FF10B3AAE000E004E026
:108D100002F0B7FFC0F384618EE7C0F3846092E78E
:108D200002F0AFFFC0F38461A3E7C0F38460A7E75C
:108D300002F0A7FFC0F38461B8E7C0F38460BCE72A
:108D400002F09FFFC0F38461CDE7C0F38460D1E7F8
:108D500021682A7B286851F8B03FC0F3120C23EA3F
:108D60000C0302F0180C654A22FA0CF2024013437D
:108D70000B60E968494574D1286841031AD090FA1C
:108D8000A0F1B1FA81F1491C01F01F0109294FEA54
:108D9000403130D8002910D090FAA0F1B1FA81F119
:108DA00001F1010101F01F0106FA01F608D1C0F33B
:108DB000846109E0C0F38461E5E7C0F38461EFE713
:108DC00090FAA0F1B1FA81F101F1010101F01F0166
:108DD00046EA816102D1C0F3846003E090FAA0F01A
:108DE000B0FA80F000F1010000F01F0000EB40003D
:108DF00041EA005131E000290DD090FAA0F1B1FA1A
:108E000081F101F1010101F01F0106FA01F605D11E
:108E1000C0F3846106E0C0F38461F2E790FAA0F148
:108E2000B1FA81F101F1010101F01F0146EA81610E
:108E300002D1C0F3846003E090FAA0F0B0FA80F0B1
:108E400000F1010000F01F002D4A00EB400002EB92
:108E5000005041EA000141F00071AA68206802F068
:108E60002EFF2848296801423FF47DAE264A9068CB
:108E7000264E274B274D00F0E070B1421CD1060270
:108E80001AD42168994202D0A9427FF46CAE91684D
:108E900040F4000021F0E071014391601E481F4939
:108EA0000068B0FBF1F000EB4000800000E0401EE5
:108EB00000900028FBD156E6194EB14209D1C601F7
:108EC00007D42168994201D0A942F4D140F08070C2
:108ED0000AE06FF00045E942EDD14102EBD4216890
:108EE0009942E8D140F48000916821F0E07101439B
:108EF000916038E600007F4000F0FF03FFFF0700AD
:108F0000000020FE0000088000030450000052C74B
:108F1000000004500002045074000020400D0300C3
:108F2000000084CB18BCBDE8E08F0068006C70477F
:108F3000F8B54FF0000504002E46009502D0606D94
:108F400010B107E00120F8BD204600F0D3F8A66577
:108F500084F8506020688168C1F3407119B181685C
:108F60005A4A1140816020688168C1F3007179B963
:108F70008168574A114041F08051816055485649F7
:108F80000068B0FBF1F000E0401E00900028FBD12B
:108F900020688168C1F3007141B9616D41F0100131
:108FA0006165A16D41F00101A165012502F077FE27
:108FB000616DC90600D430B1606D40F0100060658D
:108FC00001252846F8BD606D20F4807040F0020055
:108FD0006065206802F05FFEA8B94048806840499B
:108FE000C0F300008968C1F3000108433D49896866
:108FF000C1F30001084306D13B4960688A6822F446
:109000007C1202438A60E168606B627E0843A1685B
:1090100041EA4231084394F8201040EA0140012916
:1090200004D1A18C314A02EB41410843A16A29B124
:1090300001F47071E26A014342EA01002168CA68E2
:109040002B4B1A400243CA60206802F028FE0646F5
:10905000206802F01CFE064315D1207E94F83010E3
:10906000800340EA41012068C26844F202039A4347
:109070000A43C26094F8380001280CD020680169C6
:1090800021F001010161206901282068016B21F0B4
:109090000F0110D012E0D4E90F100143D4E91102FE
:1090A000104301432068026940F2FC739A43114364
:1090B00041F00101E6E7E269521E11430163606D70
:1090C00020F0020040F0010060657AE7C0FFFF5F1A
:1090D000C0FFFF7F74000020400D0300000004501B
:1090E0000001045000020450000304500000FEFF81
:1090F00007C0F0FF10B586B0044614216846FFF79C
:10910000B0F81049206888421AD10F48C16C41F468
:109110000051C164C16C01F400510591C16C41F072
:109120000201C164C06C694600F002000590022093
:1091300000900B20019000200290044800F0FAFA01
:1091400006B010BD000004500010024000040048AA
:109150002DE9F041044639480F46816801F01F05AA
:10916000616908290FD085B1052D0ED0092D0CD0CD
:10917000806800F4604060B1606D40F02000606580
:109180000120BDE8F081082604E02068C068C0071F
:10919000F1E7042600F0C2FB804608E0781C06D008
:1091A00000F0BCFBA0EB0800B8420FD877B12068F4
:1091B00000683042F2D0606D40F400706065206855
:1091C00002F075FDD0B1607E48B117E0606D40F0EF
:1091D00004006065002084F850000320D1E7206877
:1091E000006800070AD5606D20F480706065606DCE
:1091F000C00403D4606D40F001006065104B20682E
:109200001049984201D10A4600E00246824210D03D
:109210007DB1052D0DD0092D0BD0984200D001460F
:10922000C968082E07D0490401D40C210160002030
:10923000A7E7C168F5E70821F8E70000000304503C
:1092400000010450000004502DE9F0410446374865
:10925000806800F01F05206802F021FD18B102218E
:109260000846BDE8F08194F8500001280CD0012098
:1092700084F850002046FFF7CBF901004FF00007BB
:1092800004D084F85070EBE70220EAE7606D40F606
:109290000162904340F480706065254E2068254B44
:1092A000B04201D11A4600E00246824200D01DB908
:1092B000626D22F480126265626DD20404D5A26DE3
:1092C00022F00602A26500E0A7651C22026084F875
:1092D00050702068B04201D11A4600E00246824236
:1092E00015D0A5B1052D12D0092D10D0626D42F414
:1092F00080126265B04200D11846C0688001AFD5C7
:10930000606D20F4005040F480506065A8E7C268AA
:10931000920105D5626D22F4005242F480526265DA
:109320008268054B1A40121D826099E700030450C1
:109330000001045000000450C0FFFF7F10B5044638
:1093400090F85000012808D0012084F85000032133
:109350002046FFF7BDF810B10BE0022010BD2046FB
:10936000FFF722F928B9616D21F4885141F001011C
:109370006165002184F8501010BD10B590F82510DB
:109380000024022903D00421C16301241AE00168EA
:109390000A6822F00E020A6001680A6822F00102DF
:1093A0000A6090F84410012301F01C0203FA02F154
:1093B000026C516080F82530002180F82410816B08
:1093C00001B18847204610BD094810B54FF0FF3164
:1093D0008163002282630164026481628262C162ED
:1093E000C2620163026300F00DFB002010BD0000AB
:1093F0000010024070B5044600F090FA0546601C6B
:1094000002D004484068044400F088FA401BA0429F
:10941000FAD370BD140100202DE9F05F04463548F1
:109420008946017801290CD00125804605704CF24F
:10943000503B5846FFF722FA06004FF0000A03D0CF
:1094400053E0022000F05AB851464046C8F804A044
:10945000294F3A6892050ED5396821F400713960B8
:109460003968490505D5396821F4806139600321DF
:1094700009E0057708E03A68520504D5396821F417
:1094800080613960022101772068012807D04FF000
:10949000FF31C9F8001040F2FA7BA5681EE0606851
:1094A000FFF79AF95846FFF7E9F90646786948F256
:1094B00004018843786116E028466168FFF7A0F947
:1094C0004CF25030FFF7DAF90600786920EA0B0019
:1094D000786102D0C9F8005005E06D1CD4E90201A2
:1094E0000844A842E8D8FFF74DF988F800A03046B4
:1094F000A8E70000440100100020024030BCBDE895
:10950000C09F00000348416941F0004141610020D3
:1095100070470000002002402DE9FF5F254F0546FF
:109520000024387891469B46012809D001203870E4
:109530004CF25030FFF7A2F90600A24604D035E005
:10954000022004B000F03AB85046C7F804A0DFF893
:109550006880D8F80010490506D5D8F8001021F425
:109560008061C8F800100220387725B1012D09D09C
:10957000022D07D00DE04A465B460198FFF75AF9E5
:10958000012406E049460198FFF762F9022D00D157
:109590006C044CF25030FFF771F9064624B1D8F84C
:1095A0001410A143C8F81410FFF7ECF887F800A0D6
:1095B0003046C6E7440100100020024030BCBDE840
:1095C000C09F0000064900204A69002A07DA054AC0
:1095D0008A60054A8A604969002900DA01207047DB
:1095E0000020024023016745AB89EFCD2DE9F04F04
:1095F0000022DFF800A14FF0010B4FF00F0974E0DB
:109600000BFA02F515EA01046ED022F00306564467
:10961000B36897074FEA177C09FA0CF707EA0308C3
:10962000B0F1904F04D0344B984203D101231BE09A
:10963000002319E0314B984201D1022314E0304B52
:10964000984201D103230FE02E4B984201D104230D
:109650000AE02D4B984201D1052305E02B4B98429F
:1096600001D1062300E0072303FA0CF343451ED182
:10967000DFF89CC0DCF80030A343CCF800300CF1DC
:10968000040CDCF80030A343CCF800300CF1040CDF
:10969000DCF80030A343CCF800300CF1040CDCF80B
:1096A0000030A343CCF80030B368BB43B360046818
:1096B00056000323B3401C430460D40800EB840429
:1096C000276A56074FEAD66C09FA0CF6B7432762A9
:1096D00084689C4384604468AC434460C4689C4391
:1096E000C460C36AAB43C362521C31FA02F387D130
:1096F00000F010B8000001400004004800080048D5
:10970000000C0048001000480014004800180048F1
:109710000004014030BCBDE8C08F7047044910B55B
:109720000A68024202D00860FFF7F7FF10BD000090
:10973000140401402DE9F84FDFF8A091002209F14F
:10974000040A0AF1040B4FF00F080BF1040EBEE0FF
:1097500001249440234075D04D68022D01D0122D74
:1097600011D1D50800EB85073E6A5507ED0E08FAC2
:1097700005FC26EA0C06D1F810C00CFA05FC4CEAF0
:10978000060CC7F820C007685500032691F804C0EE
:10979000AE400CF0030CB7430CFA05FC4CEA070C86
:1097A000C0F800C04F68012F05D0022F03D0112F41
:1097B00001D0122F15D18768D1F80CC0B7430CFA2D
:1097C00005FC4CEA070CC0F808C0476891F804C0D3
:1097D000A743CCF3001C0CFA02FC4CEA070CC0F8BF
:1097E00004C0D1F804C06FEA0C07BF0706D1C76AEE
:1097F000A743CCF3C00494403C43C462C468B44360
:109800008E68AE402643C6604C68E4005ED5344C9A
:10981000256E45F001052566246E22F0030504F04F
:10982000010400942F4C2E19B7689407250F08FAED
:1098300005F4A743B0F1904F05D02B4CA04204D1C2
:1098400001241CE042E0002419E0284CA04201D190
:10985000022414E0264CA04201D103240FE0254C41
:10986000A04201D104240AE0234CA04201D10524E6
:1098700005E0224CA04201D1062400E00724AC40C0
:109880003C43B460D9F800404D464E689C43F60313
:1098900000D51C432C60DAF8004055464E689C43C6
:1098A000B60300D51C432C60DBF800405D464E68D3
:1098B0009C43F60200D51C432C60DEF80040754640
:1098C0004E689C43B60200D51C432C60521C0B68AA
:1098D00033FA02F47FF43CAF00F012B80004014008
:1098E0000010024000000140000400480008004849
:1098F000000C004800100048001400480018004800
:1099000018BCBDE8E08F0069084000D00120704716
:109910000AB1816170478162704700000148806828
:10992000704700001401002070B5040011D02168B8
:109930004CF6CC400860216845F255500860D4E9E7
:10994000000141602168A0688860FFF7E7FF0546D5
:1099500008E0012070BDFFF7E1FF401B302801D96E
:10996000032070BD2068C0680028F4D12068026917
:10997000E1688A4201D0016102E04AF6AA21016051
:10998000002070BD00684AF6AA21016000207047DF
:1099900002488168426811448160704714010020C8
:1099A00010B50024032000F083F8002000F008F830
:1099B00008B1012401E000F027F8204610BD0000A6
:1099C00070B50E4E05460024706898B14FF47A7158
:1099D000B1FBF0F00A490968B1FBF0F001F0E0FEDC
:1099E00040B9102D06D200222946501E00F040F842
:1099F000356000E00124204670BD00001401002005
:109A00007400002070470000094808B5016E41F05D
:109A100001010166016E01F001010091816D41F0CB
:109A200080518165806D00F08050009008BD00007D
:109A30000010024000280DDB00F01F0201219140C0
:109A40004009800000F1E020C0F88011BFF34F8F83
:109A5000BFF36F8F7047002809DB00F01F02012160
:109A600091404009800000F1E020C0F800117047EB
:109A7000F0B40E4B1B68C3F30223C3F10704042C9C
:109A800000D904241D1D072D01D2002300E0DB1E98
:109A9000012606FA04F56D1E0D409D409E40761E7F
:109AA000164045EA0601F0BC19F010BA0CED00E0D2
:109AB000064A00F0070110684FF6FF03184040EA1D
:109AC0000120034908431060704700000CED00E0DE
:109AD0000000FA05BFF34F8F05480168054A01F4FD
:109AE000E06111430160BFF34F8F00BFFDE700004D
:109AF0000CED00E00400FA0501220168C0F8FC2327
:109B0000002280F8F423886940F000608861486D85
:109B1000024A10434865002070470000030000100F
:109B200070B5164D0446A1B1012911D12068D0F8B5
:109B3000001E41F00101C0F8001ED4F8040403F037
:109B4000A2FD206A002803D0286840F006002860A3
:109B500070BD206A28B102F013FD286820F00600CD
:109B600028602068D0F8001E21F00101C0F8001E16
:109B7000D4F80404BDE8704003F003BD10ED00E02C
:109B80000068416200207047F0B50368586A39B137
:109B90009C6A4FF4827500EB144400204E1E0AE0CC
:109BA00040EA024098620FE005EB8007DF59401C55
:109BB00004EB1744C0B2B042F6D344EA02404FF47B
:109BC000807202EB810158500020F0BDD0F80404EF
:109BD00003F036BCC1EBC10200EB8202D0F80404F2
:109BE000926C03F079BBC1EBC10200EB8202D0F8AA
:109BF0000404D2F8082203F0D2BB10B504000CD044
:109C0000032084F8BD03204600F08DFC204600F0C0
:109C1000A7FB002084F8BD0310BD012010BDD0F8C3
:109C2000040403F00FBC70B504460B0601F00F00EE
:109C3000C0EBC00104EB81014FF001024FF00005C1
:109C400003D581F83D203C3103E081F8FD5101F559
:109C5000FE71087094F8BC03012808D084F8BC2376
:109C6000206803F099FF84F8BC53002070BD0220E7
:109C700070BD70B5044601F00F006268904201D9D2
:109C8000012070BD0B0601F00F01C1EBC10104EB17
:109C900081014FF001024FF0000503D581F83D200E
:109CA0003C3103E081F8FD5101F5FE718D700870C3
:109CB00094F8BC03012808D084F8BC23206804F081
:109CC00005F984F8BC53002070BD022070BD01F07E
:109CD0000F01C1EBC10100EB8100D0F81402704705
:109CE0002DE9F04104460F0601F00F00C0EBC00162
:109CF00004EB81014FF001064FF0000503D581F818
:109D00003D603C3103E081F8FD5101F5FE710870C2
:109D10008A60CB704A7802B1C880022B00D10D71E5
:109D200094F8BC03012809D084F8BC63206803F0D0
:109D30008FFE284684F8BC53BDE8F0810220FBE783
:109D400070B50D4601F00F04C4EBC40100EB8101B6
:109D5000C1F808220022C1E9843281F8FD2181F88E
:109D6000FC41006801F5FE712A0703D004F006F9F2
:109D7000002070BD04F012F8FAE770B504460D46F5
:109D800001F00F006168884201D9012070BD2906E9
:109D90004FF000064FF0010207D5C0EBC00104EB05
:109DA000810181F83D203C3107E0C5EBC50104EBA2
:109DB000810181F8FD6101F5FE718A70087094F8E7
:109DC000BC03012807D084F8BC23206804F0AAF85B
:109DD000280702D006E0022070BD04F571712068EA
:109DE00004F052F884F8BC63002070BD70B50D46D5
:109DF00001F00F04C4EBC40100EB81018A6400226E
:109E0000C1E91432012281F83D2001F83C4F00687D
:109E10002A0703D004F0B2F8002070BD03F0BEFFA3
:109E2000FAE700002DE9F05F04460068002682464C
:109E3000554604F0A1F900287DD1206804F0C8F946
:109E4000002878D0206804F0C3F9800704D5206882
:109E5000416901F002014161206804F0B9F9000391
:109E60004FF0010960D5206804F091F98046DFF8D1
:109E7000E8B356E05FEAC87050D0F1B2206804F051
:109E80009FF90746C0071BD005EB4611C1F8089B98
:109E9000216820460B6C01EB4611D1F8082B5B457D
:109EA0000BD1130404D54FF40040C1F8080B07E0B0
:109EB000920602D52022C1F8082BF1B2FFF793FEDB
:109EC000380715D52068016C00EB4610D0F8082B38
:109ED000594505D1110403D54FF40041C0F8081BC2
:109EE000204600F0FBFA05EB46110820C1F8080BEC
:109EF000F80604D505EB46111020C1F8080BB8068A
:109F000004D505EB46112020C1F8080BB80405D58F
:109F100005EB46114FF40050C1F8080B4FEA580802
:109F2000761CB8F1000FA5D1206804F051F9400368
:109F30004AD5206800E08CE104F022F98046002632
:109F40003FE05FEAC87039D0F1B2206804F026F92A
:109F50000746C00710D006F00F0209FA02F0D5F844
:109F600034288243C5F8342805EB4610C0F8089918
:109F7000F1B22046FFF72EFE380704D505EB461157
:109F80000820C1F80809F80604D505EB4611102091
:109F9000C1F80809780604D505EB46114020C1F840
:109FA0000809B80704D505EB46110220C1F80809D5
:109FB000380603D53146204602F01AF84FEA580811
:109FC000761CB8F1000FBCD1206804F001F900281C
:109FD00011DAD5F8040820F00100C5F8040894F857
:109FE000F40301283DD0204600F046FA206841697C
:109FF00001F000414161206804F0EAF800050BD54A
:10A00000D5F80808C00702D0204600F0ABFA206857
:10A01000416901F400614161206804F0D9F8000150
:10A020000AD52068416901F00061416194F8F403A8
:10A03000F8B1204600F096FA206804F0C9F8C1048F
:10A0400004F5717869D5D5F8040820F00100C5F849
:10A0500004081021206804F071F800214FF67F32C7
:10A0600027E0002084F8F40301462046FFF758FD5E
:10A07000BCE784F8F4932068406D0121C0F38300AD
:10A08000C4F8F8032046FFF74BFDD5E705EB411078
:10A09000C0F80829D0F8003923F40013C0F80039BB
:10A0A000C0F8082BD0F8003B23F40013C0F8003BA5
:10A0B000491C60688842E9D8D5F81C0840F00110B6
:10A0C000C5F81C08206B60B1D5F8840840F00B007F
:10A0D000C5F88408D5F8440840F00B00C5F84408DA
:10A0E0000CE0D5F8140842F22B010843C5F8140817
:10A0F000D5F8100840F00B00C5F81008D5F8000896
:10A1000020F4FE60C5F800084146206803F0BCFE5C
:10A110002068416901F480514161206804F058F8D9
:10A12000800415D5206803F0D3FC206804F018F8EB
:10A13000E06000F00BFD0146227B206804F084F80B
:10A14000204600F085F92068416901F40051416121
:10A15000206804F03DF8C00635D52068816921F0FB
:10A1600010018161DAF8207007F00F00C0EBC00029
:10A1700004EB8005C7F3434005F5FE75022802D0C5
:10A18000062811D01AE047F6F070074216D0C7F340
:10A190000A1217465046E96804F01EF8E868384489
:10A1A000E860A869384408E008224146504604F0B7
:10A1B00013F8A869C7F30A110844A86120688169E7
:10A1C00041F010018161206804F002F8000707D512
:10A1D000204600F06BF92068416901F008014161F7
:10A1E000206803F0F5FFC00208D5F1B2204600F068
:10A1F00038F82068416901F480114161206803F05A
:10A20000E7FF800208D5F1B2204600F02EF8206862
:10A21000416901F400114161206803F0D9FF400059
:10A2200007D52046FFF7D2FC2068416901F0804144
:10A230004161206803F0CCFF40070AD520684568DB
:10A24000680702D52046FFF7EAFC206841682943E9
:10A25000416000F003B800000A31544F30BCBDE843
:10A26000C09FD0F8040403F03DB9D0F8040403F013
:10A270003BB92DE9F0418AB0040005D094F8BD0344
:10A280002668002520B108E001200AB0BDE8F08171
:10A2900084F8BC53204600F08FF8032084F8BD03F7
:10A2A000F06BC00500D42561206803F071FD04F156
:10A2B0001001282288466846FDF7BAFF94E80F008F
:10A2C00003F020FC0227C8BB0021206803F093FFA5
:10A2D000002101260EE0C1EBC10004EB800080F8F4
:10A2E0003D6000F83C1FC180C5708560C560491C99
:10A2F000C9B2456160688842EDD8002111E0C1EB28
:10A30000C10004EB800080F8FD5180F8FC1180F85A
:10A31000FF51C0F80452C0F80852491CC9B2C0F835
:10A32000105260688842EAD8282241466846FDF704
:10A330007FFF94E80F0003F087FC10B184F8BD7331
:10A34000A2E784F8385084F8BD63606A012802D11E
:10A350002046FFF7D1FB206803F06AFC002094E759
:10A3600038B50068B0F1A04F23D1124CE06C20F456
:10A370008050E0644FF4C0514FF09040FFF736F941
:10A38000A06DC0000ED4A06D40F08050A065A06DFF
:10A3900000F08050009000F031F9A06D20F0805066
:10A3A000A06501E000F02AF9BDE838404320FFF73E
:10A3B00041BB38BD0010024010B586B004461421E0
:10A3C0006846FDF74EFF2068B0F1A04F3CD11F4C0E
:10A3D000E06C40F00100E064E06C694600F00100D0
:10A3E00005904FF4C0500090022001900020029090
:10A3F000032003900A2004904FF09040FFF79AF951
:10A40000E06C40F48050E064E06C00F48050059013
:10A41000A06DC0000ED4A06D40F08050A065A06D6E
:10A4200000F08050059000F0F1F8A06D20F0805011
:10A43000A06501E000F0EAF8002211464320FFF792
:10A4400017FB4320FFF707FB06B010BD00100240CA
:10A4500070B50446C0680125022801D0FEF790F9C6
:10A460002946D4F8040403F09EF8D4F80404BDE8A7
:10A47000704003F05EB8000010B504460068D0F8E4
:10A48000001E21F00101C0F8001E206A30B106480C
:10A49000016821F00601016002F072F8D4F80404AA
:10A4A000BDE8104003F06DB810ED00E0D0F80404F2
:10A4B00003F06DB810B5044690F8BC0301280BD02A
:10A4C000012084F8BC0384F83810206803F0AAFE49
:10A4D000002084F8BC0310BD022010BDD0F8042475
:10A4E00000F57171104603F071B810B504460068AC
:10A4F00094F8BC13012906D0012184F8BC13A16A89
:10A50000012902D005E0022010BD816B41F48031A9
:10A510008163206803F080FB206803F0F9FD0020D0
:10A5200084F8BC0310BD70B5044690F8BC03012844
:10A530000ED0012084F8BC03206803F029FC2068B9
:10A5400003F0F6FE002528B184F8BC53012070BD4D
:10A55000022070BD206803F06BFB84F8BC53002020
:10A5600070BD000010B504460068D0F8001E41F030
:10A570000101C0F8001ED4F8040403F084F8206A36
:10A58000002804D00248016841F00601016010BDB6
:10A5900010ED00E01649B0F5007F0868C0F34120D7
:10A5A00009D0022805D0086820F4C06040F480601B
:10A5B0000860002070470128FBD0086820F4C060C4
:10A5C00040F4007008600B483222006850430A4A89
:10A5D000B0FBF2F0401C00E0401E4A69520501D574
:10A5E0000028F9D148694005E3D5032070470000F1
:10A5F000007000407400002040420F000248416893
:10A6000021F4806141607047007000400248416859
:10A6100041F480614160704700700040024800686A
:10A6200000F4C060704700000070004003498A6871
:10A6300000F01F0082438A607047000000700040F5
:10A640000248016841F48071016070470070004069
:10A650000648016821F00701C91C0160044801682F
:10A6600041F00401016030BF7047000000700040FD
:10A6700010ED00E02DE9F84F044600250088E44E77
:10A680002F46010504F1200B1DD5606E78B1B0F5A1
:10A69000800F11D0B0F5000F04D0B0F5400F22D0DC
:10A6A00001250FE0F06840F48030F0601BE00021ED
:10A6B000201D01F0E7FC03E00021584601F078FD81
:10A6C000050010D02F462088C00426D5A06EC0B14A
:10A6D000B0F1807F1AD0B0F1007F0DD0B0F1407F93
:10A6E00019D0012518E0D6F88800616E20F44000EA
:10A6F0000843C6F88800E6E7F06840F48030F06070
:10A7000009E00021201D01F0BDFC03E000215846B6
:10A7100001F04EFD0546F5B12F462068800366D551
:10A72000B06D4FF00009C00009D4B06D40F080500A
:10A73000B065B06D4FF0010900F080500090DFF877
:10A74000D4A2DAF8001041F48071CAF80010FFF7C3
:10A75000E5F8804610E0D6F88800A16E20F0407041
:10A760000843C6F88800D8E7FFF7D8F8A0EB080040
:10A77000022801D9032532E0DAF80000C005F3D53C
:10A780006DBBD6F8900010F4407015D0D4F884104A
:10A79000814211D0D6F89000D6F8901020F4407085
:10A7A00041F48031C6F89010D6F8901021F4803131
:10A7B000C6F89010C6F89000C0074ED0FFF7AEF86C
:10A7C000804641F2883A05E0FFF7A8F8A0EB0801BF
:10A7D0005145CFD8D6F890008007F5D5EDB32F4678
:10A7E000B9F1000F03D0B06D20F08050B065207833
:10A7F000C00707D0D6F88800A16B20F003000843FB
:10A80000C6F888002078800707D5D6F88800E16B65
:10A8100020F00C000843C6F888002078400707D5D0
:10A82000D6F88800216C20F030000843C6F8880074
:10A830002078000707D5D6F88800616C20F0C000AA
:10A840000843C6F888002078C00609D5D6F88800E5
:10A85000A16C20F44070084300E05AE0C6F888007C
:10A860002078800607D5D6F88800E16C20F4406097
:10A870000843C6F888002088800507D5D6F88800E8
:10A88000E16D20F440200843C6F888002088400588
:10A8900007D5D6F88800216E20F440100843C6F88A
:10A8A00088002078400607D5D6F88800216D20F46E
:10A8B00040500843C6F888002078000607D5D6F82F
:10A8C0008800616D20F440400843C6F88800208865
:10A8D000C00507D5D6F88800A16D20F440300843A4
:10A8E000C6F8880020884FF0006580044FF080682B
:10A8F00021D5D6F88800E16E20F040600843C6F804
:10A900008800E06EA8420ED1F06840F48010F0603C
:10A9100011E0D6F89000D4F8841020F44070084379
:10A92000C6F890005CE7404505D10121201D01F0EB
:10A93000A9FB00B107462068000317D5D6F88800A8
:10A94000216F20F040600843C6F88800206FA842BD
:10A9500004D1F06840F48010F06007E0404505D174
:10A960000121201D01F08EFB00B107462068400345
:10A9700017D5D6F88800616F20F040600843C6F80C
:10A980008800606FA84204D1F06840F48010F06045
:10A9900007E0404505D10121201D01F073FB00B106
:10A9A0000746208840041AD5D6F88800A16F20F009
:10A9B00040500843C6F88800A06FB0F1805F03D014
:10A9C000B0F1005F05D00AE00221201D01F05AFB22
:10A9D00003E00221584601F0EBFB00B10746208856
:10A9E000000407D5D6F88800E16F20F080400843C6
:10A9F000C6F888002068C00307D556F8880FD4F839
:10AA0000801020F0004008433060384600F004B861
:10AA1000001002400070004018BCBDE8E08F00004C
:10AA20002DE9F0470D4604005ED0DFF80C81D8F820
:10AA3000000000F00700A8420CD2D8F8001021F066
:10AA400007012943C8F80010D8F8000000F00700FB
:10AA5000A84249D12078394EC0072BD0606803281E
:10AA600011D0022812D0316898B1490500293BDA8B
:10AA7000B16821F003010143B160FEF74FFF0746C3
:10AA800041F288390FE031688901EFE731688903C5
:10AA9000ECE78907EAE7FEF741FFC11B494502D908
:10AAA0000320BDE8F087B068616800F00C00B0EBEF
:10AAB000810FF0D12078800705D5B068A16820F01B
:10AAC000F0000843B060D8F80010404601F00701DC
:10AAD000A9420BD9016821F00701294301600068F0
:10AAE00000F00700A84201D00120DAE720784007F3
:10AAF00005D5B068E16820F4E0600843B0602078D4
:10AB0000000706D5B068216920F4605040EAC10012
:10AB1000B06000F045F8B168094AC1F30311515C17
:10AB200001F01F01C8400749086007480068BDE8F8
:10AB3000F047FEF745BF0000002002400010024031
:10AB400080610208740000201401002001480068A0
:10AB500070470000740000200548064900688968B5
:10AB6000054AC1F30221515C01F01F01C840704742
:10AB70007400002000100240C06102080548064928
:10AB800000688968054AC1F3C221515C01F01F01C8
:10AB9000C84070477400002000100240C0610208E5
:10ABA00030B5224C00221046A168E36811F00C0178
:10ABB00003F003051E4B08D00C2904D0042931D022
:10ABC00008292FD010E0012D10D12268120704D4DB
:10ABD000D4F89420C2F3032202E02268C2F30312E5
:10ABE000144D55F82220D9B10C2918D1E06800F095
:10ABF0000300022818D0032816D01046E168E26846
:10AC0000C1F30211C2F306224243491CB2FBF1F028
:10AC1000E168C1F34161491C4900B0FBF1F030BD6E
:10AC2000104630BD184630BD1846E7E70010024018
:10AC30000024F400906102082DE9F84304006ED06E
:10AC4000FE4DA86800F00C06E86800F003072078C5
:10AC5000C00663D576B10C2E01D1012F0AD0A069B0
:10AC60000028286878D040F001002860FEF756FEE2
:10AC700080465BE02868800702D5A0690028DED006
:10AC8000216A2868000703D5286800F0F00004E076
:10AC9000D5F89400F02202EA1010814216D9084635
:10ACA00001F00CFB00283AD1286840F00800286029
:10ACB0002868216A20F0F000084328606868E1698C
:10ACC00020F47F4040EA0120686015E0286840F0E9
:10ACD000080028602868216A20F0F00008432860F6
:10ACE0006868E16920F47F4040EA01206860206ADA
:10ACF00001F0E4FA0028D6D1FFF752FFA968D04A44
:10AD0000C1F30311515C01F01F01C840CD49086037
:10AD1000CD480068FEF754FE00287DD12CE0C6E047
:10AD2000FEF7FCFDA0EB0800022876D82868800713
:10AD3000F6D5286840F0080028602868216A20F0CD
:10AD4000F000084328606868E16920F47F4040EA29
:10AD50000120686010E0FFE720F001002860FEF7A6
:10AD6000DDFD804605E0FEF7D9FDA0EB08000228D6
:10AD7000DBD828688007F6D42078C00740D0082E9A
:10AD800018D00C2E01D1032F14D06068B0F5803F8D
:10AD900017D0B0F5A02F286817D020F48030286095
:10ADA000286820F4802028606068E0B1FEF7B6FDD6
:10ADB000804614E02868800322D56068002876D099
:10ADC0001EE0286840F48030EDE740F480202860E1
:10ADD000F7E7FEF7A3FDA0EB08006428A5D82868D4
:10ADE0008003F6D50CE0FEF799FD804605E0FEF7FE
:10ADF00095FDA0EB0800642897D828688003F6D456
:10AE00002078800739D5042E11D00C2E01D1022FC5
:10AE10000DD0E068002801E037E19BE028681DD0F4
:10AE200040F480702860FEF779FD07460BE0286843
:10AE300040050BD5E0680028C1D007E0FEF76EFDA5
:10AE4000C01B022894D828684005F7D56868217C83
:10AE500020F0F85040EA016068600EE020F4807055
:10AE60002860FEF75BFD074604E0FEF757FDC01BB8
:10AE700002286FD828684005F7D42078000728D525
:10AE800060690028D5F8940012D040F00100C5F8A0
:10AE90009400FEF743FD074604E0FEF73FFDC01BAC
:10AEA000022857D8D5F894008007F6D511E025E19F
:10AEB00020F00100C5F89400FEF730FD074604E0DD
:10AEC000FEF72CFDC01B022844D8D5F8940080075B
:10AED000F6D42078400766D5A86D4FF00008C00072
:10AEE00009D4A86D40F08050A865A86D4FF0010806
:10AEF00000F08050009055480168C90511D40168E0
:10AF0000814641F480710160FEF708FD074604E0C8
:10AF1000FEF704FDC01B02281CD8D9F80000C005AC
:10AF2000F6D5A068012816D00528D5F8900017D0CE
:10AF300020F00100C5F89000D5F8900020F0040042
:10AF4000C5F89000A06841F28839C0B1FEF7E6FC70
:10AF500007460FE071E0D5F8900040F00100EFE700
:10AF600040F00400C5F89000F5E7FEF7D7FCC11BE0
:10AF7000494562D8D5F890008007F6D50CE0FEF779
:10AF8000CDFC074604E0FEF7C9FCC11B49457BD850
:10AF9000D5F890008007F6D4B8F1000F03D0A86D63
:10AFA00020F08050A865A06AF0B30C2E74D002285F
:10AFB000286820F08070286004D0286810F0205F96
:10AFC00051D054E0FEF7AAFC064604E0FEF7A6FCCA
:10AFD000801B022858D828688001F7D4D4E90B01D7
:10AFE0006FF00F0202EB01110843A18F52044908D0
:10AFF00002EB4151626B41EA0221084394F8401090
:10B000004FF07E42490802EB41610843A16B0909F8
:10B0100040EA4140E9680E4A11400843E860286868
:10B0200040F08070286000E06AE0E86840F08070DE
:10B03000E860FEF773FC044611E025E000100240D2
:10B04000806102087400002014010020007000409C
:10B050008C809DF9FEF762FC001B022814D828683A
:10B060008001F7D54CE0E86820F00300E860E8686C
:10B0700024490840E860FEF751FC044608E0FEF76A
:10B080004DFC001B022803D90320BDE8F88303E030
:10B0900028688001F3D433E00128F6D0E868E26A3A
:10B0A00000F00301914229D1216B00F070020901E7
:10B0B0001039914222D1626B00F4FE41B1EB022FB4
:10B0C0001CD1A16B00F40032072901D0012100E05E
:10B0D00000218A4212D1A18F00F4C002490849051B
:10B0E000A1F50011914209D194F8401000F0C06020
:10B0F00049084906A1F10071814201D00120C4E74D
:10B100000020C2E7FFFFEEFE0068503050F821003B
:10B11000704708B50068503000EB81000090026075
:10B1200008BD000010B500680B4641680D4801409D
:10B13000080CD870C1F304245C7001F03F049C70CB
:10B14000C1F34231197052B901F0F6F8D87058784D
:10B1500001F0F2F85870987801F0EEF8987000203D
:10B1600010BD00003FFFFF0010B50B460168896A63
:10B17000596001680969C1F30E01996000680168AE
:10B180000D480140C1F305401870C1F306245C70FE
:10B1900001F07F049C70890DD97052B901F0CCF890
:10B1A0001870587801F0C8F85870987801F0C4F811
:10B1B0009870002010BD00007F7F7F0010B5040054
:10B1C0004FF0010044D094F8210028B9002084F801
:10B1D0002000204600F040F8022084F82100216879
:10B1E000CA204862216853204862204601F0B8F81E
:10B1F00000282DD120688168164A1140816020689E
:10B2000081686268A369114322691A43114381600E
:10B210002168E068086120680169228941EA0241E9
:10B220000161204601F0BEF8002811D12168CA6CE6
:10B2300022F00302CA64E26961690A432168CB6CA7
:10B240001A43CA642268FF215162012184F8211047
:10B2500010BD0000BFFF8FFF00680549884205D17F
:10B26000044850F8901F41F400410160704700000D
:10B27000002800400010024070B5044690F82000FD
:10B280000B4601281BD0012684F82060022084F898
:10B290002100B2B19878D97840EA014558781978F8
:10B2A000000240EA413005432168CA204862216813
:10B2B00053204862204601F053F8D0B120E002202C
:10B2C00070BD5878C10603D500F0EF000A30587001
:10B2D000D87801F03AF80204587801F036F842EADA
:10B2E0000022987801F031F80243187842EA40359C
:10B2F000DAE70848054020684560204601F052F82A
:10B300002268FF21516208B984F82160002184F885
:10B31000201070BD3FFFFF002DE9F041044690F87A
:10B32000200090460D46012811D0012784F8207096
:10B33000022084F821002168CA2048622168532035
:10B340004862204601F00CF8002618B129E00220DE
:10B35000BDE8F0812068B8F1000F80684FEA4060D6
:10B3600024D0002800DBEE70A8782978EA7840EA3B
:10B3700001406978090241EA8251084318490840AE
:10B38000216808602068816821F480218160D5E906
:10B39000031001432068826811438160204601F058
:10B3A00001F82268FF215162A0B115E0002800DBFE
:10B3B000EE70287800F0C9FF0204687800F0C5FF3D
:10B3C00042EA0022A87800F0C0FF0243E87842EA8F
:10B3D0008050D3E784F8217084F82060B8E700003B
:10B3E0007F7F7F0070B505460068C16821F0A0012D
:10B3F000C160FEF793FA04464FF47A7606E0FEF752
:10B400008DFA001BB04201D9032070BD2868C068C6
:10B410008006F4D5002070BD2DE9F041040005D070
:10B420000025A56294F85D0018B107E00120BDE891
:10B43000F08184F85C50204600F044F8022684F83D
:10B440005D602068016821F040010160E0684FF410
:10B45000E062904201D9002101E04FF48051B0F543
:10B46000706F02D0904200D0A562276B012327B9EC
:10B47000904201D9266300E02363D4E9010210431E
:10B48000D4E9042632431043228B02F400721043A5
:10B49000E2691043226A1043A26A104322681060D6
:10B4A000626B606AA66910430427E26807EA1646E1
:10B4B00032431043084321684860256684F85D30B4
:10B4C0000020B4E7F0B587B0044614216846FCF7C5
:10B4D000C8FE1849206888422AD11748816D41F476
:10B4E00080418165816D01F480410591C16C41F01D
:10B4F0000201C164C06C022400F0020005904FF408
:10B500000440CDE9000402AA00200325052682E8B4
:10B5100061000A4F69463846FEF70CF96003CDE931
:10B52000000402AA694682E870003846FEF702F974
:10B5300007B0F0BD00380040001002400004004891
:10B540002DE9F05F044690F85C0001250A9E1F4635
:10B5500092468B464FF0000801280ED0012084F857
:10B560005C00FEF7DBF9814694F85D006168012814
:10B570000CD0B1F5827F07D102E0022000F00DB9B6
:10B58000A16809B9042801D0022004E1BBF1000F31
:10B5900024D0BAF1000F21D007B394F85D0004283D
:10B5A00002D0052084F85D0000202066C4F840A089
:10B5B000A4F84670A4F84470C4F838B0E787A787A9
:10B5C000E0642065E0684FF4E061884201D8012F13
:10B5D00006D92068426822F4805205E00120DAE0B2
:10B5E0002068426842F48052426020680268520635
:10B5F00003D4026842F040020260E068884260685A
:10B6000042D908B1012F37D1A06B21680088C860EA
:10B61000A06B801CA063E08F401EE0872CE02068B8
:10B62000816889070DD5E18F59B1012D09D1A16B31
:10B630000988C160A06B801CA063E08F401EE0877A
:10B64000002520688168C9070ED0B4F8461059B1AA
:10B65000C068216C0880206C801C2064B4F846000F
:10B66000401EA4F846000125FEF758F9A0EB09009A
:10B67000B04201D3701C72D1E08F0028CFD1B4F852
:10B6800046000028CBD173E008B1012F69D1E08FCB
:10B690000128A06B08D921680088C860A06B801CB5
:10B6A000A063E08F801E07E0216800780873A06B1C
:10B6B000401CA063E08F401EE08752E02068816854
:10B6C000890718D5E18FB1B1012D14D1E18F01297E
:10B6D000A16B07D90988C160A06B801CA063E08FB3
:10B6E000801E06E009780173A06B401CA063E08F08
:10B6F000401EE087002520688168C90727D0B4F87C
:10B70000461021B3B4F84610012914D9C068216C41
:10B710000880206C801C2064B4F84600801EA4F8C9
:10B720004600B4F84600012810D82068416841F46A
:10B73000805141600AE0007B216C0870206C401C45
:10B740002064B4F84600401EA4F846000125FEF728
:10B75000E5F8A0EB0900B04202D3701C01D019E05B
:10B76000C6B1E08F0028A9D1B4F846000028A5D1C1
:10B770004A463146204600F041FE18B120204FF0E5
:10B7800001082066012084F85D00002084F85C0038
:10B790004046F3E603208046F4E730BCBDE8C09F96
:10B7A00010B5401EB0F1807F01D3012010BD4FF0D5
:10B7B000E02460610F21601717F088FB0020A06172
:10B7C00007202061002010BD70B590F83C20012AB0
:10B7D00024D0012580F83C50022280F83D200368E7
:10B7E0005A689E680E4CA34202D00E4CA34203D16D
:10B7F00022F470044A68224322F070040A688968BF
:10B80000224326F0800421435A600268916080F848
:10B810003D50002180F83C10084670BD022070BDEC
:10B82000002C01400034014010B5040003D094F80E
:10B830003D0010B107E0012010BD002084F83C005D
:10B84000204600F00DF8022084F83D00211D2068FC
:10B8500000F010FF012084F83D00002010BD000022
:10B8600008B50068B0F1804F08D10548816D41F0FE
:10B8700001018165806D00F00100009008BD0000AD
:10B8800000100240022180F83D1002689168084BC8
:10B890001940062906D0B1F5803F03D0116841F068
:10B8A00001011160012180F83D1000207047000067
:10B8B0000700010070B5044690F83C00012817D03D
:10B8C000012584F83C50022084F83D0020688268FD
:10B8D0002E4B1A4022F47F4282600868502830D0F4
:10B8E0000DDC20284DD005DC98B310283BD148E072
:10B8F000022070BD302844D0402834D139E060287F
:10B9000028D0702806D0B0F5805F2CD0B0F5005F4D
:10B9100029D10AE0CB68D1E90121206800F00AFFB3
:10B920002068816841F0770109E0CB68D1E9012105
:10B93000206800F0FFFE2068816841F4804181604A
:10B9400011E0CA684968206800F006FF50212068AD
:10B9500007E016E0CA684968206800F00EFF602121
:10B96000206800F0F1FE84F83D50002084F83C008F
:10B9700070BDCA684968206800F0EEFE402120686A
:10B98000EFE7226801461046EBE7000088FFFEFF64
:10B99000704770472DE9F04102680446D06911688C
:10B9A000936810F00F0F4FF000055BD003F0010615
:10B9B00001F49077374369D0C70707D0CF0505D585
:10B9C00001271762E26F42F00102E267820708D5A1
:10B9D000DA0706D0276802223A62E26F42F00402D8
:10B9E000E267420708D5DA0706D0236804221A6204
:10B9F000E26F42F00202E26702070AD501F020027C
:10BA0000324306D0236808221A62E26F42F008022D
:10BA1000E267E26F002A32D0800605D5880603D59A
:10BA2000216E09B120468847E06F21688968490680
:10BA300001D4000725D5204600F04BFF206881681F
:10BA4000490619D5816821F040018160E06E98B106
:10BA500020498163E06EFDF790FC00280FD0E06E76
:10BA6000816B06E0860611D58E060FD5216E1EE08D
:10BA70002046BDE8F04108472046FFF78AFFBDE8B1
:10BA8000F0812046FFF785FFE567F8E7C60209D594
:10BA90005B0207D54FF4801010622046BDE8F041EC
:10BAA000FFF776BF030605D50B0603D5616E0029A7
:10BAB000DED1E4E74006E2D54806E0D5116820462D
:10BAC00021F04001116020216167656600F0BAF83D
:10BAD000D5E70000BFC8000810B5040002D0606FB1
:10BAE00010B107E0012010BD002084F8700020464E
:10BAF00000F026F8242060672068016821F0010129
:10BB00000160204600F0F4FE0128ECD0606A10B11C
:10BB1000204600F044FE2068416821F490414160D5
:10BB20002068816821F02A0181602068016841F065
:10BB3000010101602046BDE8104000F094BE000005
:10BB400030B587B0044614216846FCF78AFB2049CB
:10BB50002068884239D11F48816D41F48021816578
:10BB6000816D01F480210591C16C41F00201C16435
:10BB7000C16C01F002010591C16C41F00401C16486
:10BB8000C06C022400F0040005904FF40060CDE981
:10BB9000000402AA0120072582E8310069460E4808
:10BBA000FDF7C8FD6002CDE9000402AA002082E88A
:10BBB000310069460948FDF7BDFD002211462720E6
:10BBC000FDF756FF2720FDF746FF07B030BD000008
:10BBD00000480040001002400004004800080048EF
:10BBE000436F202B28D1B1B1AAB190F87030012B4E
:10BBF00022D0012380F87030C164A0F85020A0F852
:10BC0000522000214166C167212242678268B2F555
:10BC1000805F02D003E001207047026952B1074AF9
:10BC2000426680F870100068016841F08001016090
:10BC300000207047024AF3E702207047E5CB000876
:10BC4000A5CB00087047FDF745FFFEE7F0B50023E0
:10BC50000A24302537261F4610E0B4EB107F02D9A6
:10BC600005EB107C01E006EB107C01F813C001EB42
:10BC7000430C00015B1C8CF80170DBB29342ECD3E7
:10BC8000F0BD00EB8100006E00F0F8407047806866
:10BC9000C0F3C00070478068C0F300007047806840
:10BCA000C0F3800070478068C0F380007047C068B0
:10BCB00010F4406F01D0002070470120704704232A
:10BCC00003EAD15310B518444369C1F30451072462
:10BCD0008C40A3438A401343436110BD00EB8100B5
:10BCE000016E21F0004111430166704730B589B003
:10BCF000002406940794182168460894FCF7B1FACA
:10BD0000164815490425C0E900148460C460C0E9E0
:10BD10000445047644760121C16180F820408462A4
:10BD2000C46280F83040446380F83840FDF700F981
:10BD300006A90A480694FCF785FE094800900620EB
:10BD4000CDE901047F200594CDE903056946034848
:10BD5000FCF7F0FE09B030BD0000045028010020BF
:10BD6000000021432DE9F04186B014216846FCF71C
:10BD700078FA4B48C16C41F00401C164C16C01F018
:10BD800004010591C16C41F08001C164C16C01F0F6
:10BD900080010591C16C41F00101C164C16C01F0E9
:10BDA00001010591C16C41F00201C164C06C012226
:10BDB00000F002003B4E5403059021463046FDF74B
:10BDC000A7FD4FF0904700220A213846FDF7A0FD5D
:10BDD000DFF8D480012241F210014046FDF798FDC2
:10BDE000002240214046FDF793FD009401240025E8
:10BDF000694630460194CDE90245FDF79BFC2B488E
:10BE00006946CDE90040022002903846FDF792FCD9
:10BE10000A208DE83100694638460395FDF78AFC13
:10BE20000420CDE90005694638460295FDF782FCFD
:10BE3000402000901E48CDE9010469463846FDF7D0
:10BE400079FC2003CDE900040320CDE902406946D6
:10BE50004046FDF76FFC50208DE8310069464046B2
:10BE60000395FDF767FC202000901248CDE90104FE
:10BE700069464046FDF75EFC002211460620FDF7AC
:10BE8000F7FD0620FDF7E7FD002201211720FDF751
:10BE9000EFFD1720FDF7DFFD06B0BDE8F0810000E3
:10BEA0000010024000080048000400480000111083
:10BEB00000002110000031100E480D494FF4E062DF
:10BEC00001604FF4827141600021C0E902124FF419
:10BED00000720161C0E905121822C0E9072107229A
:10BEE0004162C0E90A12016308214163FFF794BA75
:10BEF00000380040C001002010B588B0002411486F
:10BF00000094019402940394049405944FF08041AA
:10BF1000069401605021C0E90114611EC0E90314B8
:10BF20008461FFF781FC4FF480500090694605481A
:10BF3000FFF7C0FC049404A902480694FFF744FCF0
:10BF400008B010BD240200200948084901604FF4E0
:10BF5000E1314160002181600C22C160C0E904121E
:10BF60008161C16101624162FFF7B6BD00480040D6
:10BF70006402002010B500220F49104801F077F943
:10BF800008B1FCF7FDFB0E490C4801F0A9FB08B114
:10BF9000FCF7F6FB0B49094800F05EFF08B1FCF71F
:10BFA000EFFB064801F0F2FB002803D0BDE810408B
:10BFB000FCF7E6BB10BD0000000000208C02001062
:10BFC0004002001060000020FEE7704710B5064CEC
:10BFD000206840F4802020600448FDF723FF20689B
:10BFE00020F48020206010BDF000001048070010F1
:10BFF0002DE9F0470E46C1EBC60100EB8104D0F8F5
:10C000000080D4E914103C34884202D90120BDE8F4
:10C01000F087081AA168814200D20846C01C870830
:10C0200008EB461912E0451AA068A84200D205465E
:10C03000E81C8708ABB2F2B24046E16802F099F919
:10C04000E0682844E060A0692844A061D9F8180994
:10C0500080B2B84205D3D4E90501814201D200285B
:10C06000E1D1D4E90501884208D806F00F0101208A
:10C070008840D8F834188143C8F834180020C6E73F
:10C08000704700002DE9F041444E05468846F068AF
:10C090000024810728680ED0F16801F00301814275
:10C0A00007D130B1F0686968C0F30210401C8842C3
:10C0B0001FD001246EE0012809D002280AD00328ED
:10C0C000F7D13168890309D43168490304E0316844
:10C0D000890701E0316849050029EADAF1686A68F0
:10C0E0006FF00F0321F0730103EB021211430143C0
:10C0F000F160306820F080603060FDF70FFC07468B
:10C1000004E0FDF70BFCC01B022839D830680001A1
:10C11000F7D47CBBB8F1000F18D0B8F1010F1ED0D6
:10C12000287D4FF07E41400801EB4060A96840EA5D
:10C13000012031691A4A114008433061306840F0EB
:10C1400080603060FDF7EAFB07461BE0A868E968FD
:10C150000002090940EA41403169124AEBE7288AA6
:10C160001149400801EB4050A96840EA01203169BB
:10C170000E4AE0E70EE0FDF7D1FBC01B022801D913
:10C18000032407E030680001F5D51CB93069A969BE
:10C19000084330612046BDE8F081000000100240F5
:10C1A000FF80FFF9FF80FDFF0000E0FFFF809FFFA1
:10C1B0002DE9F0413E4E05468846F068002481078F
:10C1C00028680ED0F16801F00301814207D130B137
:10C1D000F0686968C0F30210401C88421FD0012437
:10C1E00062E0012809D002280AD00328F7D131687B
:10C1F000890309D43168490304E03168890701E003
:10C20000316849050029EADAF1686A686FF00F03BE
:10C2100021F0730103EB021211430143F160306816
:10C2200020F080503060FDF779FB074604E0FDF711
:10C2300075FBC01B02282DD830688000F7D454BB92
:10C24000B8F1000F15D0287C4FF07E41400801EB7B
:10C250004060A96840EA01217069164A1040014314
:10C260007161306840F080503060FDF757FB074641
:10C2700012E0A868E9680002090940EA41407169D2
:10C280000D4A114008437061EBE7FDF747FBC01B07
:10C29000022801D9032407E030688000F5D51CB9D5
:10C2A00070696969084370612046BDE8F08100004B
:10C2B00000100240FF80FFF9FF80FDFFF8B51C4E23
:10C2C00005460024B06DC00002D5FEF7A7F90DE0C9
:10C2D000B06D40F08050B065B06D00F080500090BF
:10C2E000FEF79CF9B16D21F08051B165B0F5007F8A
:10C2F00004D0802D07D94FF003040AE0802D08D91F
:10C30000A02D01D804E001D1022402E0702D00D15B
:10C3100001240848016821F00701214301600068F9
:10C3200000F00700A04201D00120F8BD0020F8BDB8
:10C330000010024000200240010901EB810100F0E1
:10C340000F0000EB4100C0B27047002102E00A3844
:10C35000C0B2491C0A28FAD2090740EA11607047A6
:10C360002DE9F041054600680024C168490616D44D
:10C37000611EC160FDF7D2FA06464FF47A780327B2
:10C3800007E0FDF7CBFA801B404502D9032485F86E
:10C3900021702868C068400601D4032CF1D12046E2
:10C3A000BDE8F0812DE9F0410546134800240168FD
:10C3B00021F080010160061F30684FF003078006FE
:10C3C00007D42846FFF70EF890B185F821700324B2
:10C3D0000EE0306820F0200030602846FFF702F8B9
:10C3E00010B185F821700324306840F020003060DF
:10C3F0002046BDE8F08100000C280040F8B5154645
:10C400000E460B460092044600224FF4C05100F045
:10C4100019F888B93346002280212046009500F0A3
:10C420005CF848B9334600224FF4C06120460095BD
:10C4300000F008F8002804D0206E40F020002066AC
:10C440000320F8BD2DE9F0471D4616460F46044669
:10C450004FF4C069DDF820800CE04F4501D106B9EA
:10C46000007B681C06D0FDF759FAA0EB0800A84233
:10C4700008D23DB1206881683940B142EDD1002039
:10C48000BDE8F0872068416821F0E0014160606804
:10C49000B0F5827F0BD1A068B0F5004F02D0B0F5A7
:10C4A000806F04D12068016821F040010160A06A1A
:10C4B000B0F5005F09D12068016821F400510160E6
:10C4C0002068016841F400510160012084F85D009A
:10C4D000002084F85C000320D2E72DE9F0411D46DE
:10C4E00017460E460446DDF8188008E0681C06D0A2
:10C4F000FDF714FAA0EB0800A8420BD255B1206852
:10C50000806836EA000030D00020B842EED100202A
:10C51000BDE8F0812068416821F0E0014160606879
:10C52000B0F5827F0BD1A068B0F5004F02D0B0F516
:10C53000806F04D12068016821F040010160A06A89
:10C54000B0F5005F09D12068016821F40051016055
:10C550002068016841F400510160012084F85D0009
:10C56000002084F85C000320D2E70120CDE770476B
:10C5700010B5FDF70DFABDE8104019F087B90000BD
:10C58000F0B5B9B0442122A8FBF76BFE142133A803
:10C59000FBF767FE88216846FBF763FEFEF750F85D
:10C5A000214850F8901F21F0180101600D202290C1
:10C5B0004FF480300124CDE9230402200326279480
:10C5C000CDE92C0607270A21CDE93070CDE92E41AF
:10C5D000329022A8FEF730FB00250F20CDE934650C
:10C5E00033903695042133A83795FEF719FA0F4892
:10C5F000009080061E900015219080041B900C2056
:10C60000CDE902400420CDE9047010950196082080
:10C6100006904FF0887007906846FEF72BF860028E
:10C62000FDF7B8FF39B0F0BD001002400460020011
:10C630000D48016841F4700101600C48016841F047
:10C6400001010160002181600268094B1A4002600B
:10C650008214C260026822F4802202608161024971
:10C66000C00380390860704788ED00E00010024088
:10C67000FFFFF6EA2DE9F0470268264C264D274ECB
:10C68000274F284B4FF0804AA04209D0504507D091
:10C69000A84205D0B04203D0B84201D0984204D19C
:10C6A00022F0700C4A6842EA0C02DFF87CC0DFF826
:10C6B0007C80DFF87C90A0420FD050450DD0A8427E
:10C6C0000BD0B04209D0B84207D0984205D060459F
:10C6D00003D0404501D0484503D122F44075CA68D3
:10C6E0002A434D6922F080022A4302608A68C262AE
:10C6F0000A688262A04207D0984205D0604503D004
:10C70000404501D0484501D10969016301214161DA
:10C71000BDE8F087002C0140000400400008004004
:10C72000000C004000340140004001400044014042
:10C730000048014010B5846842EA032224F47F4493
:10C740000A432243826010BD826822F070020A43CD
:10C7500042F007018160704710B5046A036A23F054
:10C7600001030362836923F0F00343EA021324F018
:10C770000A020A438361026210BD10B5036A23F006
:10C78000100303628469036A24F4704444EA0232A9
:10C7900023F0A00343EA01118261016210BD90F809
:10C7A0002410C90706D001684A68836A22F400325F
:10C7B0001A434A6090F82410890706D501684A6830
:10C7C000C36A22F480321A434A6090F82410490761
:10C7D00006D501684A68036B22F480221A434A6036
:10C7E00090F82410090706D501684A68436B22F4C3
:10C7F00000421A434A6090F82410C90606D5016821
:10C800008A68836B22F480521A438A6090F824105D
:10C81000890606D501688A68C36B22F400521A4360
:10C820008A6090F82410490611D501684A68036CA3
:10C8300022F480121A434A60016CB1F5801F06D1C0
:10C8400001684A68436C22F4C0021A434A6090F8B7
:10C850002410090606D501684A68806C22F400227B
:10C8600002434A607047F8B500250446C567FDF7E6
:10C8700055F80746206800686FF07E46000708D527
:10C880003B4600224FF400112046009600F0C8F904
:10C8900060B92068006840070AD53B4600224FF483
:10C8A00080012046009600F0BBF908B10320F8BDD6
:10C8B00020206067A06784F870500020F8BD10B594
:10C8C000806A0021A0F85A10A0F85210FFF761F812
:10C8D00010BD01680A6822F490720A6001688A68D3
:10C8E00022F001028A6020218167002101667047E1
:10C8F0002DE9F047054600682B69A968EC691943E2
:10C900006B690026234319439A4A036837469A4CB9
:10C9100023400B43036028684168EB6821F44051D1
:10C92000194341602968A869914201D02B6A1843D4
:10C930008B6823F4306303438B60904B29689048E5
:10C9400099420DD1D0F8880010F0030006D00128DC
:10C9500069D0022865D0032851D166E001244FE058
:10C96000884B99420BD1D0F8880010F00C0056D0BB
:10C97000042858D0082854D00C2840D155E0824BC8
:10C9800099420BD1D0F8880010F0300047D0102821
:10C9900049D0202845D0302831D146E07B4B994200
:10C9A0000BD1D0F8880010F0C00038D040283AD021
:10C9B000802836D0C02822D137E0754B99420ED15D
:10C9C000D0F8880010F4407029D0B0F5807F2AD0CC
:10C9D000B0F5007F25D0B0F5407F10D125E0914221
:10C9E0000DD1D0F8880010F4406018D0B0F5806FF9
:10C9F00019D0B0F5006F14D0B0F5406F15D01024E9
:10CA0000644B4FF000084FF4004091424CD174B198
:10CA1000022C0FD0042C0FD0082C18D10FE00024CA
:10CA2000EEE70224ECE70424EAE70824E8E7FEF74F
:10CA300093F803E0184602E0FEF7B2F898B36A688C
:10CA400002EB4201814202D8B0EB023F01D901273B
:10CA500089E064B1022C0DD0042C13D0082C1BD01B
:10CA600001274D49A6F5407088427AD9EFE7FEF7D5
:10CA700073F809E05008494B11E00023FBF7A4FBD1
:10CA80000646EEE7FEF78CF86A68010E04025008CD
:10CA9000201841EB0801F0E750084FF40003C018DC
:10CAA00048F10001E9E75EE0E9694FF6EF7981427C
:10CAB0002ED1092C1DD2DFE804F00508121C151C2C
:10CAC0001C1C1800FEF748F801E0FEF757F841007B
:10CAD000686801EB5001B1FBF0F086B20AE0304922
:10CAE0006868F6E7FEF75CF8F1E74FF480316868B4
:10CAF000EFE70127A6F110004845A8D84FF6F071DE
:10CB000006EA0100C6F3420108432968C8602AE02A
:10CB1000092C21D2DFE804F005081220162020207D
:10CB20001A00FEF719F801E0FEF728F801466868D8
:10CB300001EB5001B1FBF0F086B20EE0686803EB48
:10CB40005001F7E7FEF72CF8F0E70AE0696800EB20
:10CB50005100B0FBF1F0EFE70127A6F110004845C6
:10CB600084D82868C660C5F860803846C5F86480F7
:10CB7000BDE8F08700800040F369FFEF0038014016
:10CB8000001002400044004000480040004C0040BB
:10CB9000005000400024F400FFFC0F00000024F4CB
:10CBA0000048E801416F212910D1B0F8521071B14D
:10CBB000C16C02680988C1F308011185C16C891C28
:10CBC000C164B0F85210491EA0F8521070470168B5
:10CBD0000A6822F080020A600068016841F04001A2
:10CBE00001607047416F21290ED1B0F8521061B138
:10CBF000C16C026809781185C16C491CC164B0F828
:10CC00005210491EA0F85210704701680A6822F0BD
:10CC100080020A600068016841F0400101607047CD
:10CC20002DE9F0411E46174688460446069D07E05A
:10CC3000681C05D0FCF772FE801BA8420BD855B1CA
:10CC40002068C16938EA010017D00020B842EFD04F
:10CC50000020BDE8F0812068016821F4D0710160F6
:10CC60002068816821F00101816020206067A06751
:10CC7000002084F870000320EBE70120E6E70000C5
:10CC80000148FEF787BE0000640200202DE9F04154
:10CC9000D0F89852D0F89022DAB101EB810300EB82
:10CCA00083030026DC694CB1C1EBC10705EB8705A6
:10CCB0006D6CB4FBF5F705FB174424B1C2F81462A0
:10CCC0000020BDE8F081DE6100231A4600F0E4FC9C
:10CCD000F6E70220F5E770B50546D0F8904200F07F
:10CCE000BCFBC4F80C02D5F8900248B1D5F89412F8
:10CCF000D4F80402CA6804F503719047002070BD9F
:10CD0000022070BD70B504460026812100F0D4FADF
:10CD1000002501212046E56200F0CEFA822120465E
:10CD2000C4F8585100F0C8FA2564D4F8900248B10C
:10CD3000D4F8940204F5247440688047206800F019
:10CD400082FE2560304670BD10B5D0E9A44159B1CE
:10CD500094F80002FF2807D08B6894F8012221463E
:10CD60009847FF2084F80002002010BD0A210180AE
:10CD70000048704768010010432101800048704757
:10CD8000B801001043210180004870477401001071
:10CD90004321018000487047FC0100102DE9F0415B
:10CDA00004460026007C4FF40077012590B3402311
:10CDB00002228121204600F099FB4023E5620222F5
:10CDC0000121204600F092FB082303228221204605
:10CDD000C4F8585100F08AFB4FF40770256400F046
:10CDE00033FEC4F89002F8B10546D4F89402006806
:10CDF00080470021C5F81412C5F81812207CD5F818
:10CE0000042298B140230121204600F082FB3046E5
:10CE1000BDE8F081FFE73B4602228121204600F079
:10CE200065FB3B46E562CAE70126F0E73B46EAE7D9
:10CE300010B5D0F8901269B1027C002AD1F8042212
:10CE400005D04023012100F064FB002010BD4FF409
:10CE50000073F7E7022010BD02460220002902D02D
:10CE60000020C2F894127047D0F89002C0F8041263
:10CE700000207047D0F89002C0F81022C0F80812C5
:10CE8000002070472DE9FC410546D0F89072002043
:10CE90008DF80000ADF80400064608780C4610F046
:10CEA000600121D020293BD1E288AAB10006607838
:10CEB00007D5D5F894128B6839469847E2883946E9
:10CEC00026E087F80002A07987F80102E288394657
:10CED000284600F06AF828E0D5F89412607800221D
:10CEE0008B682146984720E0607820B10A2809D055
:10CEF0000B2815D110E095F87402032810D10222F6
:10CF000001A905E095F87402032809D101226946B8
:10CF1000284600F064F808E095F87402032804D06D
:10CF20002146284600F036F802263046BDE8FC814E
:10CF300010B5D0F89012A1B1D1F814220AB1012095
:10CF400010BD0122C1F81422D1F810220263B1F8F9
:10CF5000102293B2D1F80822812100F09DFB00201D
:10CF600010BD022010BD10B5D0F88C225268904739
:10CF7000002010BD134610B50A46002100F0C9FA82
:10CF8000002010BD134610B50A46002100F084FBB6
:10CF9000002010BD10B50446802100F044FB20465F
:10CFA000BDE81040002100F03EBB10B50323C0F8DF
:10CFB0004821C0F86C32C0F84C2113460A460021C3
:10CFC00000F0A7FA002010BD10B505210023C0F81D
:10CFD0006C121A46194600F09CFA002010BD10B5DC
:10CFE0000223C261C0F86C32026213460A46002175
:10CFF00000F052FB002010BD10B504210023C0F842
:10D000006C121A46194600F047FB002010BD10B5FF
:10D010000446012084F87402D4F88C022179426815
:10D0200020469047204600F01EFB204600F0F8F90D
:10D03000002010BD10B50A46024903A000F0F3F825
:10D04000004810BDE402002043444320436F6E6655
:10D050006967000012200880004870472400002003
:10D0600010B50A46024903A000F0DDF8004810BDE3
:10D07000E402002043444320496E74657266616394
:10D080006500000004200880004870472000002050
:10D0900010B50A46024903A000F0C5F8004810BDCB
:10D0A000E40200204D617276656C6D696E642052F9
:10D0B0006F626F746963730010B50A46024903A07A
:10D0C00000F0B1F8004810BDE402002053544D3385
:10D0D00032205669727475616C20436F6D506F72A7
:10D0E0007400000010B51A2008800A480168001D6D
:10D0F0000468001D0068081809D008220649FEF7D8
:10D10000A5FD0549042210312046FEF79FFD024887
:10D11000801E10BD9075FF1F460000200C20088067
:10D120000048704738000020F8B50D46498804468D
:10D13000080A06284CD006DC01280DD0022810D0A1
:10D1400003284FD11BE007284AD00F284AD1D4F832
:10D150008812207CCA6937E0D4F88812207C0A68DB
:10D1600032E0207C02260028D4F88C0205D0C16A67
:10D17000684688470146467041E0816AF8E7C8B2D0
:10D1800006282FD2DFE800F003080D12171CD4F890
:10D190008812207C4A6817E0D4F88812207C8A68BC
:10D1A00012E0D4F88812207CCA680DE0D4F8881206
:10D1B000207C0A6908E0D4F88812207C4A6903E0E0
:10D1C000D4F88812207C8A6969469047014616E0A7
:10D1D000207C38B9D4F88C02416B68468847F5E763
:10D1E000207C20B129462046FFF7D4FEF8BDD4F8B4
:10D1F0008C02016B68468847014607204870BDF8DD
:10D20000000048B1EA8852B1824200D90246ADF826
:10D2100000202046FFF7E3FEE8880028E6D12046FC
:10D22000FFF7EAFEF8BD70B5002300281ED00446C3
:10D23000002502E06D1CEDB2641C2678002EF9D1A9
:10D24000022404EB450414801278CA545B1C0322A8
:10D25000CA5400245B1C06E0CA545B1CDAB28C542E
:10D26000521CD3B2401C0278002AF5D170BD10B513
:10D2700080B1D0F88C3213B10023C0F88C3209B1E0
:10D28000C0F88812012180F87412027000F0EAF8E8
:10D29000002010BD022010BD10B50024D0F8980267
:10D2A000FCF7E7FC30B1012801D0022801D00224AC
:10D2B00000E00124204610BD10B50024D0F89802EB
:10D2C000FCF7B1FC30B1012801D0022801D00224C2
:10D2D00000E00124204610BD2DE9F0411746044628
:10D2E00051B1D4F88C0242691AB194F8740203283F
:10D2F00051D00220BDE8F081D4F86C32002504F151
:10D300001400022B03D0042B3AD0C3B33CE0D0E985
:10D3100003639E4207D9F11AC1608AB2394620469A
:10D32000FFF730FE12E08068B0FBF3F103FB110160
:10D3300099B9984211D3D4F8701288420DD20022C4
:10D3400011462046FFF71EFEC4F8705200231A460D
:10D350001946204600F0DDF816E0D4F88C02C168CA
:10D3600029B194F87402032801D12046884780210E
:10D37000204600F058F92046FFF726FE04E0FFE7BC
:10D380008021204600F04FF994F87802012804D15A
:10D3900084F8785201E0204690470020AAE770B553
:10D3A0001546044649B1D4F88C0282691AB194F842
:10D3B0007402032830D0022070BDD4F86C1204F53A
:10D3C000A070032902D005291ED027E0D0E903313F
:10D3D0008B420BD95B1AC3600846834200D30346D5
:10D3E0009AB229462046FFF7C5FD17E0D4F88C0213
:10D3F000016929B194F87402032801D120468847B5
:10D400002046FFF7F9FD09E000200146C4F86C0250
:10D41000204600F008F901E020469047002070BD4A
:10D4200010B50024D0F89802FCF7E7FB30B10128D2
:10D4300001D0022801D0022400E00124204610BDC2
:10D440000020704710B5012180F87412D0F88C22AA
:10D45000017952689047002010BDD0F89802FCF77F
:10D4600036BC000010B5017839BB1549C1F8040479
:10D47000C0F898124FF0A0400860062048600220D3
:10D48000C86088610020C8610862486288620863D9
:10D49000C8620846FCF7EDFE08B1FBF771F9802180
:10D4A0000748FCF76DFB402200210548FCF76CFBA8
:10D4B000802201210248FCF767FB002010BD00001C
:10D4C000480700100A0601F07F01D0F89802C1EB6E
:10D4D000C10100EB810002D590F83E00704790F842
:10D4E000FE017047002070470020704770B51D4650
:10D4F00013460024D0F898022A46FCF7F1FB30B11D
:10D50000012801D0022801D0022400E00124204695
:10D5100070BD10B50024D0F89802FCF711FC30B1B2
:10D52000012801D0022801D0022400E00124204675
:10D5300010BD70B50022044640231146FFF7D6FF08
:10D5400040260125C4F85061334600228021204640
:10D55000C4F84451FFF7CAFF6662A56184F87452AB
:10D560000020C4F86C026060C4F87C02D4F8900219
:10D5700028B1D4F88C020021426820469047002050
:10D5800070BD90F8751280F874120020704710B5C5
:10D5900090F87412032904D1D0F88C12C96901B132
:10D5A0008847002010BD01740020704710B500248A
:10D5B000D0F89802FCF77EFF30B1012801D0022894
:10D5C00001D0022400E00124204610BD70B50446BD
:10D5D00000F52070054600F06FF80120C4F86C02D9
:10D5E000B4F88602C4F8700294F8802212F01F008A
:10D5F0000AD001280DD0022810D002F08001204668
:10D6000000F011F8002070BD2946204600F0C3F854
:10D61000F8E72946204600F0EFF9F3E729462046CF
:10D6200000F042F9EEE710B50024D0F89802FCF7BC
:10D63000A4FB30B1012801D0022801D0022400E06F
:10D640000124204610BD10B50024D0F89802FCF744
:10D650004CFF30B1012801D0022801D0022400E0A3
:10D660000124204610BD10B50024D0F89802FCF724
:10D670005AFF30B1012801D0022801D0022400E075
:10D680000124204610BD90F8741280F87512042110
:10D6900080F874120020704710B50024D0F898026A
:10D6A000FCF7A4FB30B1012801D0022801D00224EC
:10D6B00000E00124204610BD0A7802704A784270CA
:10D6C0008A78CB7802EB032242800A794B7902EB0D
:10D6D000032282808A79C97902EB0121C1807047D7
:10D6E0000246002011B1C2F88C1270470220704728
:10D6F00010B5D0F88C2202241AB11268904700B9F4
:10D700000024204610BD000070B50E461E4D8978DD
:10D7100004462970012931D894F8740202280BD0EC
:10D7200003280FD031462046FFF734FC29782046E5
:10D73000BDE87040FFF717BCD9B10320616084F8E1
:10D74000740209E071B16068884212D0C1B220460B
:10D75000FFF709FC297861602046FFF7C9FF02281E
:10D760000CD006E0022084F8740220466160FFF7C6
:10D77000FAFB2046BDE87040FFF73EBC314620462C
:10D78000BDE87040FFF706BC6401001010B5FFF75C
:10D790005AFF002010BD2DE9F0410A78002712F051
:10D7A000600208D0202A01D0402A70D1D0F88C2203
:10D7B000926890476DE04A78002301260A2A66D2D3
:10D7C000DFE802F0405D6557650805652C29FFF725
:10D7D000ABFC5EE004468888D8B9C888C8B94888D8
:10D7E000802816D200F07F0594F87402032810D028
:10D7F00084F8765229462046FFF7D8FE2046FFF7E8
:10D80000FBFB1DB1022084F8740242E084F87462CC
:10D810003FE020463BE0FFF777FF3AE0CA88012A65
:10D8200035D190F87422012A04D0022A02D0032AAA
:10D830002DD104E0012200F10801836016E00122ED
:10D84000011D13E090F87422012A03D0022A01D0AE
:10D85000032A1CD1CA88022A19D1C660D0F87C12CA
:10D8600009B10321C160022200F10C01FFF7B7FBEF
:10D870000FE0498801290CD1C0F87C6211E090F8D2
:10D880007422012A08D0022A06D0032A04D0FFF706
:10D8900081FB3846BDE8F08149880129F9D1C0F8FB
:10D8A0007C32FFF7A9FBF4E72DE9F0410A46044674
:10D8B00013780027097913F060000AD0202801D0DE
:10D8C000402850D1D4F88C021146836820469847EE
:10D8D0008FE0C3F34110012806D05078D0B301285F
:10D8E0002AD003283FD107E0D4F88C021146836880
:10D8F0002046BDE8F041184794F87402022802D08F
:10D90000032872D10AE071B380296ED02046FFF758
:10D910008AFE80212046FFF786FE6AE0508838B9EB
:10D9200031B1802904D0D08810B92046FFF77BFEA2
:10D930002046FFF761FB5CE094F874020228E2D015
:10D94000032852D1508898BB4806F1D02046FFF7F3
:10D95000A3FCEDE7FFE794F874020026022803D049
:10D96000032842D112E040E009B180293DD10806E8
:10D9700001F07F0000EB800004EB800101D5143141
:10D9800001E001F5A07102220E602AE0080601F014
:10D990000F0000EB800004EB80000AD5806920B303
:10D9A00001F07F0000EB800004EB800514350BE0F4
:10D9B0001FE0D0F84401C0B101F07F0000EB80000F
:10D9C00004EB800505F5A07541B1802906D02046FD
:10D9D000FFF778FD10B10120286000E02E600222E0
:10D9E00029462046FFF7FBFA03E011462046FFF7E1
:10D9F000D1FA3846BDE8F08170B5054608780C4686
:10DA000010F0600203D0202A01D0402A16D195F8E8
:10DA10007422012A03D0022A01D0032A0ED12079D0
:10DA200001280BD8D5F88C02826828469047E188F7
:10DA3000014306D12846FFF7DFFA02E02846FFF748
:10DA4000A9FA002070BD70470048704728050010F3
:10DA500070B50A78012302F00F054E78AB401B4CDD
:10DA6000D0F81C58012E17D045EA0343C0F81C38E3
:10DA700000EB4210D0F8002B12040BD4D0F8002B8E
:10DA80000B89C978C3F30A031A4344EA81410A4364
:10DA9000C0F8002B002070BD9BB21D43C0F81C587D
:10DAA00000EB4210D0F800391B04F3D4D0F8003951
:10DAB0000D89C978C5F30A0589042B4341EA8251CF
:10DAC0000B432343C0F80039E4E700000080001056
:10DAD000D0F800196FF30A01C0F80019D0F808183F
