:020000040800F2
:1080000008670010A58100085D2C0108B90301086C
:10801000592B0108659100081D7701080000000038
:10802000000000000000000000000000BF36010852
:10803000B994000800000000E12D0108493D010845
:10804000BF810008BF810008BF810008BF81000810
:10805000BF810008BF810008BF810008BF81000800
:10806000BF810008BB940008BF810008BF810008E1
:10807000BF81000839940008499400085994000809
:108080006994000879940008BF810008BF81000846
:10809000BF810008BF810008BF810008C9940008A3
:1080A000BF810008BF810008213F0108BF8100088F
:1080B000353F0108493F0108BF810008CD03010891
:1080C000BD030108BF810008BF810008BF8100080F
:1080D000BF810008BF81000809510108BF81000865
:1080E000BF810008D5320108C5920008BF81000891
:1080F000BF810008BF810008BF810008BF81000860
:10810000BF810008BF8100085D3F0108BF810008F2
:10811000BF810008BF810008BF810008BF8100083F
:10812000BF810008BF810008BF810008BF8100082F
:10813000BF81000895920008A5920008B59200083A
:10814000BF810008BF810008BF810008612C0108C1
:10815000BF810008BF810008BF810008BF810008FF
:10816000BF810008BF810008BF810008BF810008EF
:10817000BF810008BF810008BF8100080000000027
:10818000BF810008BF810008DFF814D000F00AFCAE
:1081900000F0D2F800480047AD38030800F015FBA6
:1081A000086700100648804706480047FEE7FEE7DC
:1081B000FEE7FEE7FEE7FEE7FEE7FEE7FEE7FEE797
:1081C000D13E0108898100082DE9F04117460E468D
:1081D000054633B107FB0354E41B2046B047A542D4
:1081E000FAD1A5F10800BDE8F0812DE9F05F054660
:1081F000002092469B4688460646814640241BE066
:10820000284641464746224600F063F853465A4600
:10821000C01A914110D311461846224600F04AF880
:108220002D1A67EB01084F4622460120002100F07D
:1082300041F817EB00094E41201EA4F10104DFDCD8
:10824000484631462A46434600F000B830BCBDE8F7
:10825000C09F2DE9F0410024061B254671F1000660
:1082600005DA01240027D0EB070067EB0101161E99
:1082700073F1000605DA0027D2EB0702012567EB50
:108280000303FFF7B2FF86460E4617469C46AC42F4
:1082900004D00025D0EB050E65EB010624B10020CB
:1082A000D2EB000760EB030C704631463A4663465A
:1082B000BDE8F081202A04DB203A00FA02F1002018
:1082C00070479140C2F1200320FA03F31943904014
:1082D0007047202A04DB203A21FA02F0002170477F
:1082E00021FA02F3D040C2F120029140084319461E
:1082F0007047D2B201E000F8012B491EFBD2704753
:108300000022F6E710B513460A4604461946FFF761
:10831000F0FF204610BD421C10F8011B0029FBD1C4
:10832000801A7047034611F8012B00F8012B002A30
:10833000F9D118467047000070B5054C054D03E0B3
:10834000206820448047241DAC42F9D170BD000054
:1083500090A20308D4A203082DE9F0410746154670
:108360000E4610202BF068FD04000AD06760C4E9B7
:10837000026500F01BFA0168216004600020BDE87E
:10838000F0810120FBE72DE9FE4F804681EA0300E2
:10839000C00F0C46009021F0004123F00045B8EBDF
:1083A0000200A94105D24046214690461C460B4694
:1083B000024623F00040104347D0270DC7F30A00C0
:1083C000C3F30A510290401A019040286BDAC3F3BC
:1083D000130040F4801B0098924620B10023D2EB9A
:1083E000030A63EB0B0B01985946C0F1400250465B
:1083F000FFF760FF06460D4650465946019A00F0C9
:10840000C3F910EB08006141002487EA115284EAA5
:10841000E7731A4340D0009A62B3019A012A4FEAE7
:10842000075215DC001B61EB02014FF0004202EA2B
:108430000752CDE90042001C41F5801132462B461F
:1084400000F02AFA03B000F045B840462146F9E7AB
:10845000001B61EB0201001C41F5801300185B4119
:108460002018A2F5001747EB030140EAD570B619B2
:108470006D4111E06D084FEA360645EAC0754FEAD6
:108480000752001B61EB0201001C41F580114908F5
:108490004FEA30000019514132462B4603B000F03C
:1084A0001CB800F0EAB90098012240000023D0EB8C
:1084B000020263EBE073009821464FEAE074B8EBE8
:1084C000000061EB0401E9E783F000435BE781F022
:1084D000004158E730BCBDE8C08F30BCBDE8C04F9C
:1084E000FFF7DFBF2DE9FE4F81EA030404F00044EB
:1084F00021F0004100944FF0000B23F0004350EABC
:1085000001045ED052EA03045BD0C3F30A54C1F302
:108510000A552C44A4F2F3340194A0FB0254C1F395
:10852000130141F48011C3F3130343F4801301FBDF
:10853000024400FB034E840A970A44EA815447EA46
:108540008357A4FB076802958D0A05FB07854FEA50
:10855000932C04FB0C542705029D4FEA065847EA6A
:108560001637B5EB08056EEB070C870E920E47EA3F
:10857000811742EA8312A7FB0201B6EB0B0164EB01
:1085800000042B0D43EA0C335E1844EB1C50DA4612
:108590005146E7FB0201C5F313044FEA0B3343EAEC
:1085A00014534FEA0432019C43EA0603A4F10C047D
:1085B0000294009CCDE900B400F06EF903B000F025
:1085C00003B800200146F9E730BCBDE8C08F2DE9B3
:1085D000F04D81EA030404F0004B21F000451446FD
:1085E0004FF0000A23F0004150EA050220D054EA7F
:1085F00001021DD0C5F30A570246C5F31303C1F3A8
:108600001300C1F30A5640F4801543F48013A7EB1E
:108610000608101BD64608F2FD3873EB050002D39E
:1086200008F1010801E092185B41B8F1000F03DA8C
:1086300000200146BDE8F08D00204FF48011064671
:1086400084460EE0171B73EB050705D3121B63EB83
:10865000050306434CEA010C49084FEA3000921822
:108660005B4150EA0107EDD152EA030012D082EAE1
:10867000040083EA0501084305D0101BAB4106D274
:108680000122002306E000224FF0004302E06FF0D9
:10869000010253101AEB06004CEB085110EB0A00D4
:1086A00041EB0B01BDE8F04D00F0E7B80EB5C10F8E
:1086B00080EAE0700844CA07002140F233438DE8A5
:1086C0000E000A460B4600F0E7F803B000BD0EB5F9
:1086D00040F2334102910021CDE900110A460B46D8
:1086E00000F0DAF803B000BD70B5C1F30A5201F032
:1086F00000450024C1F3130140F2FF3341F480111F
:108700009A4201DA002070BD40F233439A42A2F24D
:10871000334203DC5242FFF7DCFD00E090402C4383
:10872000F1D0404270BD00F0004230F000400AD06D
:10873000C10D01F56071C0F3160042EA0151C20893
:1087400040071143704700200146704701F0004385
:1087500030B421F0004150EA010206D00A0DA2F522
:108760006072C1F31301002A02DC30BC00207047A4
:10877000440F44EAC104C100E01830BC00EBC25011
:1087800000F044B800F0D8B8202A06DBCB17203A16
:1087900041FA02F043EAE07306E041FA02F3D04006
:1087A000C2F12002914008431946704700487047C3
:1087B000EC030020034870470248001D011F886039
:1087C000001D7047F003002070472DE9F041064678
:1087D000FFF7ECFF8046454613E016B1E068B04273
:1087E0000ED120682860D4E90101D8F800708847CC
:1087F000204628F01DFED8F80000B842EBD100E07A
:1088000025462C68002CE8D1BDE8F0810029A8BFDE
:108810007047401C490008BF20F00100704710B4A9
:10882000B0FA80FC00FA0CF050EA010404BF10BC5E
:10883000704749B1CCF1200421FA04F411FA0CF18B
:1088400018BF012121430843A3EB0C01CB1D4FEAC4
:1088500000614FEA102042BF002010BC704700EBBF
:10886000C35010440029A4BF10BC7047401C4900ED
:1088700008BF20F0010010BC704710B5141E73F142
:10888000000408DA401C41F1000192185B411A43D0
:1088900001D120F0010010BD2DE9F04D92469B461C
:1088A00011B1B1FA81F202E0B0FA80F220329046C2
:1088B000FFF700FD04460F4640EA0A0041EA0B01BB
:1088C00053465A46084313D0114653EA010019D0C3
:1088D000C8F140025046FFF7FCFC05460E465046E4
:1088E00059464246FFF7E6FC084305D0012004E064
:1088F00020463946BDE8F08D0020054346EAE07683
:108900002C4337430A986305E40AA0EB08000022D1
:10891000FD0A44EA47540A3002D500200146E9E73F
:10892000010510196941DDE9084500196941BDE8F3
:10893000F04DA2E70020704710B500F00EF8016975
:1089400019B100220261884701E080688047AFF3D7
:108950000080000010B5AFF3008070B5FFF72CFF6A
:1089600004680546A4B920202BF066FA040011D053
:10897000094900202C60C4E900010849A160207366
:10898000206160610649A06109B100F03FF8E06133
:10899000204670BDAFF3008000000000558900083C
:1089A00000000000064C074D06E0E06840F00103BF
:1089B00094E8070098471034AC42F6D3FFF7E8FB81
:1089C00050A2030890A2030810B5441A034694422B
:1089D00009D28418114403E011F8013D04F8013D67
:1089E000521EF9D210BD40EA0104A40703D009E0E9
:1089F00010C9121F10C3042AFAD203E011F8014B68
:108A000003F8014B521EF9D210BD704710B58820F3
:108A10002BF012FA002801D00021017010BD80292E
:108A200002D808B1017809B100207047012100F88F
:108A3000081B704718B100F10802914201D00020D4
:108A4000704700210170704770B58C1810F8015BF9
:108A500015F0070301D110F8013B2A1106D110F8D7
:108A6000012B03E010F8016B01F8016B5B1EF9D1DB
:108A70002B0705D40023521E0DD401F8013BFAE761
:108A800010F8013BCB1A921C03E013F8015B01F8CC
:108A9000015B521EF9D5A142D8D3002070BD000061
:108AA00006236C2201490248FFF78EBB2B1A0208ED
:108AB000048C00202DE9F05F044688464FF0000941
:108AC0004746206808F0C5F88246206808F0A8F8F4
:108AD0008346BAF1000F02D1BBF1000F6ED02068BF
:108AE000C06800F0007000B3607E01281DD1207EB8
:108AF00001281AD101270FE0314881450AD3606D62
:108B000040F010006065A06D40F00100A0650120FC
:108B100000F05AB809F1010920680068C0F380101C
:108B20000028E9D0402021680860022F10D020687A
:108B300008F08FF860B1206808F077F840B9206835
:108B40008168204A114041F01001816000BF00BFE0
:108B5000012F10D0206808F063F860B1206808F099
:108B600064F840B920688168164A114041F020013C
:108B7000816000BF00BF022F03D0032F03D10C255B
:108B800003E0082501E0042500BF00BF03F08EF9D3
:108B900006460EE003F08AF9801B052809D9606DAE
:108BA00040F010006065A06D40F00100A06501205C
:108BB000AEE72068806828400028EBD10020A7E7B6
:108BC000000040A3C0FFFF7F30BCBDE8C09F000095
:108BD00070B50446206808F028F80646206808F0BA
:108BE00029F870B36EBB2068806800F00D00012882
:108BF0000AD120688168174A1140891C816000BF32
:108C000003202168086009E0606D40F01000606595
:108C1000A06D40F00100A065012070BD03F046F991
:108C200005460FE003F042F9401B02280AD9606DA7
:108C300040F010006065A06D40F00100A0650120CB
:108C4000EBE705E02068806800F001000028E9D12A
:108C50000020E2E7C0FFFF7F70B50446206807F000
:108C6000E9FF88BB206880681849084048B1606DFA
:108C700040F010006065A06D40F00100A06501208B
:108C800070BD206807F0B6FF03F010F9054615E047
:108C9000206807F0CFFF10B9206807F0ABFF03F0A2
:108CA00005F9401B022809D9606D40F0100060658D
:108CB000A06D40F00100A0650120E1E72068006898
:108CC00000F001000028E3D00020D9E73F00008039
:108CD00010B511217E202BF0E0FE10BD10B5102143
:108CE0007E202BF0DAFE10BD10B515217E202BF072
:108CF000D4FE10BD9FED010A7047000000007A43CA
:108D000010B514217E202BF0C8FE10BD7CB50646A0
:108D10000C46154692208DF8000006220121684677
:108D20002CF036F99DF800009DF8011040EA012072
:108D300000B230809DF802009DF8031040EA012047
:108D400000B220809DF804009DF8051040EA012043
:108D500000B228807CBD10B500202BF073FE10BD42
:108D60007CB506460C4615468C208DF80000062280
:108D7000012168462CF00CF99DF800009DF80110C7
:108D800040EA012000B230809DF802009DF80310F7
:108D900040EA012000B220809DF804009DF80510F3
:108DA00040EA012000B228807CBD000008B5002008
:108DB00035490870012027F093FAB6217E202BF068
:108DC0006CFE012027F08CFA7F202BF03BFE012067
:108DD00027F086FA00F06CF800B908BD11217E205A
:108DE0002BF05BFE012027F07BFA0020009009E0C9
:108DF000012027F075FA0098401C00900098642824
:108E000000DDEAE70222042103202BF032FE0128D4
:108E1000EED115217E202BF040FE012027F060FAD4
:108E20000020009009E0012027F05AFA0098401C29
:108E300000900098642800DDCFE70222114603204D
:108E40002BF017FE0128EED1282142202BF025FE21
:108E5000282140202BF021FE032000F020F80320E1
:108E600000F014F8FF2155202BF017FEF0215620BA
:108E70002BF013FE002157202BF00FFE00F018F806
:108E80000149087000BFA8E78101002010B5044621
:108E900004230022214641202BF013FE10BD10B503
:108EA000044603230022214643202BF00AFE10BD76
:108EB00010B5FFF750FFD12801D1012010BD0020CF
:108EC000FCE700002DE9F04F0E462DED028B83B03C
:108ED00004469FED950A954880ED030A80ED040A4B
:108EE0009FED930A002580ED050A80ED060A814674
:108EF0003AE005EBC50000EB400004EB80070221DF
:108F0000384618F0CFFC384618F0DAFC97ED000A26
:108F1000D9ED030A4846B4EEE00AF1EE10FA01DD9D
:108F200080ED030A97ED000AD0ED050AB4EEE00AE1
:108F3000F1EE10FA01D280ED050A97ED010AD0EDAD
:108F4000040AB4EEE00AF1EE10FA01DD80ED040A45
:108F500097ED010AD0ED060AB4EEE00AF1EE10FA40
:108F600001D289ED060A6D1CB542C2DB90ED030A01
:108F7000D0ED050A90ED061A054630EE600AD0EDF8
:108F8000040A70EEC10A20EE000A00EEA00A23F0E7
:108F90009DFD85ED020A012E7DDB04F16C0A022E97
:108FA00004D004F1D80B032E0ED045E099F802004E
:108FB000E16881426FD003B05146BDEC028B204680
:108FC00000F0BAB818F036BC4FF0FF379FED598A61
:108FD000002505EBC50000EB400004EB8000804657
:108FE00018F06EFC40460EF039FCB4EEC80AF1EE03
:108FF00010FA05D22F4640460EF030FCB0EE408A03
:109000006D1CB542E5DB002F45DB08DD07EBC70033
:1090100000EB400004EB8001204618F00BFC94EDBF
:109020001C0AD4ED370AB4EEE00AF1EE10FA03DDC3
:109030005946504618F0FEFB042E6FD100270097CA
:10904000019702974D4699ED020A6A46314620463D
:1090500020F08AFC002861DB08D000EBC00000EBA8
:10906000400004EB8001204618F0E4FB00970197D4
:10907000029795ED030A6A468DED000A95ED020A06
:109080003146204620F070FC002847DB01280AD03A
:1090900000EBC00000E041E000EB400004EB800189
:1090A000504618F0C7FB00970197029795ED030A09
:1090B0006A468DED000A95ED040A31468DED010AF0
:1090C00095ED020A204620F04FFC002826DB0228FE
:1090D00008D000EBC00000EB400004EB80015846D4
:1090E00018F0A8FB00970197029795ED040A6A46CD
:1090F0008DED010A95ED020A3146204620F034FC40
:1091000000280BDB032809D000EBC00000EB400077
:1091100004EB800104F5A27018F08CFB03B0BDECE9
:10912000028B00F00EB8000000007AC41803001093
:1091300000007A44286B6E4E30BCBDE8C04FFFF78C
:1091400041BF30BCBDE8C08F10B5012000F0C2F9AE
:1091500000224FF40071024800F0CFFA10BD000069
:109160000004004800BFFEE70346042B15D007DCCF
:109170007BB1012B0ED0022B0DD0032B12D10BE0B3
:10918000202B0BD0212B0AD0222B09D0232B09D145
:1091900007E008E007E006E005E004E003E002E0A5
:1091A00001E000E000BF00BF0020704700207047D2
:1091B00010B50022044905480CF0EDF804490348B5
:1091C0000CF0E2F8002010BDD87A002014740020C2
:1091D000D876002070B504460D46294620462FF06B
:1091E000ABFE214603480CF0CFF802480CF0A8F87B
:1091F000002070BD147400202DE9F04104460D4696
:1092000000260A48D0F8B872D7F8140210B101202D
:10921000BDE8F0812A46214604480CF0BCF803481A
:109220000CF03DF906463046F2E7000014740020C9
:10923000C0E9021200210161416001607047000035
:109240000146082915D2DFE801F00406080A0C0ED1
:109250001012012070470848FCE70848FAE7084860
:10926000F8E70848F6E70848F4E70848F2E708484E
:10927000F0E70020EEE70000020001000400020019
:109280000800030010000400200005004000060054
:109290008000070010B5024801F0EEFF10BD00008D
:1092A000D06D002010B5024801F0E6FF10BD0000AF
:1092B000246E002010B5024801F0DEFF10BD000052
:1092C000786E002010B5024801F0D6FF10BD0000F6
:1092D000CC6E002070B50446A56A03202865284698
:1092E00001F045FB70BD70B50446A56A284601F043
:1092F00015FD70BD70B50446A56A284601F02CFE28
:1093000070BD00000146154A914201D1002024E0C1
:10931000124A2032914201D101201EE00F4A403210
:10932000914201D1022018E00C4A8032914201D1D1
:10933000042012E0094AA032914201D105200CE03C
:10934000064AC032914201D1062006E0034AE032CB
:10935000914201D1072000E00320704700600140E6
:10936000416B31B90168096841F40031026811604C
:1093700025E00168096821F00101026811600168B7
:10938000096841F40021026811600168096841F030
:1093900001010268116090F84C1003290FD1816B14
:1093A00029B90168096841F002010268116090F86A
:1093B0004010012901D1416C00E00121816490F845
:1093C0004C10012901D1022100E0042180F84C1049
:1093D00070470168096821F0010102681160416B62
:1093E000012905D10168096821F400210268116092
:1093F0000168096841F001010268116090F84C10A1
:1094000004290FD1816B29B90168096841F0020173
:109410000268116090F84010012901D1416C00E010
:109420000121816490F84C10022901D1012100E052
:10943000032180F84C10704710B5024802F0D4F8B0
:1094400010BD00004C72002010B5024802F0CCF8AC
:1094500010BD0000906F002010B5024802F0C4F863
:1094600010BD0000D86F002010B5024802F0BCF813
:1094700010BD00002070002010B5024802F0B4F8C2
:1094800010BD00006870002030B590F8444004F032
:109490001C050124AC40056C6C6004686360846842
:1094A000102C04D10468A2600468E16003E0046841
:1094B000A1600468E26030BD704710B52CF098F8E8
:1094C000082002F0CFFB10BD10B5202002F0CAFB2F
:1094D00010BD000010B5044622464FF4007102484A
:1094E00002F0DFFC10BD00000004004800BFFEE7F2
:1094F0001849087F012801D0032811D100BF16495F
:10950000096841F40061144A11601146096821F4A8
:109510000061116000BF1146096841F400711160DB
:10952000022801D0032811D100BF0B49096841F47A
:109530008051094A11601146096821F48051116077
:1095400000BF1146096841F4806111600021014AA1
:10955000117770478C0200200020024000F00101CA
:1095600029B10B49496941F00401094A516100F0F0
:10957000020129B10649496941F40041044A516197
:109580000349496941F48031014A51617047000043
:109590000020024001F0010232B10F4A526922F468
:1095A00000620D4B5A6105E00B4A526942F40062B9
:1095B000094B5A61084A526960F3CA02064B5A6164
:1095C0001A46526942F002025A611A46526942F43E
:1095D00080325A61704700000020024010B50849EF
:1095E000496941F00101064C6161026000BF00BFA2
:1095F00000BFBFF36F8F00BF00BF00BF436010BD4F
:1096000000200240F0B50246402314460D460C4EA1
:10961000766946F480260A4F7E6100BFEFF310861C
:10962000304672B600BF2E682660241D2D1D5E1EBA
:10963000F3B2002BF7D100BF80F3108800BFF0BD5C
:109640000020024070B5054602F030FC064608E0F6
:10965000681C30B102F02AFC801BA84201D3032011
:1096600070BD1A48006900F48030B0F5803FEFD03B
:10967000164800694CF2FA3100EA0104CCB11448F2
:10968000406820431249486000BF04F0404030B1B8
:109690000E48806904F0404108430C49886124F079
:1096A000404018B124F040400849086100BF012043
:1096B000D6E70648006900F0010020B100BF012094
:1096C0000249086100BF0020CAE7000000200240F4
:1096D0008C02002070B586B006460C461546142153
:1096E00001A8FEF70DFE019400200290039501A948
:1096F000304602F0C5FA06B070BD70B586B00646B9
:109700000C461546142101A8FEF7FAFD019401202C
:10971000029000200390049501A9304602F0B0FAAF
:1097200006B070BD30B52DED028B87B004463B48C6
:10973000019034B1012C16D0022C17D0032C1BD170
:1097400017E011F033F958B1354890ED000ABCEE3E
:10975000C00A10EE100A80B207B0BDEC028B30BD1B
:109760002E48019008E02F48019005E02E48019016
:1097700002E02A48019000BF00BF062002900520A9
:1097800003907F200490042005900020069001A9FA
:10979000264800F00DF9254800F074FE0A21234800
:1097A00000F0D8FD214800F061FC05461F4800F09C
:1097B000F7FE0CB1032C0CD11D48D0ED000A00EED1
:1097C000105AB8EE400A20EE800ADFED1A0A20EEA9
:1097D000208A012C16D100EE105AB8EE400ADFEDB7
:1097E000160A20EE200ADFED150A80EE801A1048D6
:1097F00080ED001A90ED000ADFED110A20EE200A3C
:10980000B0EE408A0CB1032C02D1054880ED008AED
:10981000BCEEC80A10EE100A80B29DE71000C0101E
:109820001C00001001000080000084CBFC6C0020B4
:1098300018000010334BD63F3333533A9A99993F6F
:1098400000404E45044890ED000ABCEEC00A10EE00
:10985000100A80B2704700001C00001070B50A4862
:109860000468001D0568001D0668344454B10822D0
:109870000649204607F042F90422044910312846DF
:1098800007F03CF970BD00009075FF1FDE0000205E
:109890002DE9F04399B004460E464FF000083068B9
:1098A00000B100BF00BF94F85000012803D102208E
:1098B00019B0BDE8F083012084F8500000BF38499A
:1098C0002068884202D13748009001E000200090D3
:1098D000009850B9606D40F02000606500BF002026
:1098E00084F8500000BF0120E2E7009807F0B6F9C5
:1098F0000746206807F0B2F9F0BBEFBB2A4D30688D
:1099000020B394F83000716841EA4030A96821F42E
:1099100060410843A860224807F091F98146214838
:1099200007F08DF949EA0009204807F088F949EA6B
:109930000009B9F1000F2CD1B16830680843A9685B
:1099400040F61F7291430843A86022E0A86820F403
:109950006040A860124807F072F98146114807F08C
:109960006EF949EA0009114807F069F949EA000966
:10997000B9F1000F0DD100E005E0A86840F61F71B5
:109980008843A86005E0606D40F0200060654FF0FE
:10999000010800BF002084F8500000BF404687E760
:1099A0000000045000010450000304500002045061
:1099B0002DE9F84F05460C464FF0000A00200090B4
:1099C000FE49E068884200D000E000BF00BF95F883
:1099D0005000012802D1022000F05CBA012085F875
:1099E000500000BF286807F034F9002872D1606881
:1099F00005281AD86068022806D0032807D0042852
:109A000008D005280DD108E00C2060600CE0122081
:109A1000606009E01820606006E04FF480706060CC
:109A200002E00620606000BF00BF2968D4E9002082
:109A300001F1300CC0F3012B0CEB8B03D3F800C009
:109A400000F01F0E4FF01F0B0BFA0EFB2CEA0B0C55
:109A500000F01F0BC2F3846E0EFA0BFE4CEA0E0CE4
:109A6000C3F800C000BF286807F0F3F881462868F3
:109A700007F0D6F88046B9F1000F2AD1B8F1000FEF
:109A8000FBD1A2682168286807F0FEF860692968A0
:109A9000C968C1F3C101490000FA01F7206904282F
:109AA00019D028682268216900F1600C0CEB810351
:109AB000D3F800C0DFF808B30CEA0B0C02F0F84B47
:109AC0004BF0004B4BEA070B4CEA0B0CC3F800C001
:109AD00000BFA8E0C2E10021286807F098F8C0F3B1
:109AE000120030B90021286807F091F8C0F38460B3
:109AF00007E00021286807F08AF890FAA0F0B0FA91
:109B000080F02168C1F3120119B92168C1F38461A1
:109B100004E0216891FAA1F1B1FA81F1884204D1FF
:109B200000221146286807F0C9F80121286807F0CB
:109B30006EF8C0F3120030B90121286807F067F809
:109B4000C0F3846007E00121286807F060F890FA0C
:109B5000A0F0B0FA80F02168C1F3120119B92168B0
:109B6000C1F3846104E0216891FAA1F1B1FA81F1B5
:109B7000884204D100220121286807F09FF80221C1
:109B8000286807F044F8C0F3120030B902212868B1
:109B900007F03DF8C0F3846007E00221286807F071
:109BA00036F890FAA0F0B0FA80F02168C1F3120103
:109BB00019B92168C1F3846104E0216891FAA1F127
:109BC000B1FA81F1884204D100220221286807F00D
:109BD00075F80321286807F01AF8C0F3120030B9AD
:109BE0000321286807F013F8C0F3846007E003211D
:109BF000286807F00CF890FAA0F0B0FA80F021681D
:109C0000C1F3120119B92168C1F3846104E021682C
:109C100091FAA1F1B1FA81F1884204D10022032125
:109C2000286807F04BF8286807F004F8002870D17E
:109C30002868E2682168D0F8B0C0C1F312032CEAAA
:109C4000030C02F0180B5F4B23FA0BF30B404CEAAA
:109C5000030CC0F8B0C000BF5849E068884258D132
:109C60002368C3F312031BB92368C3F3846304E0BE
:109C7000236893FAA3F3B3FA83F35B1C03F01F0387
:109C8000092B3ED82368C3F312031BB92368C3F31F
:109C9000846304E0236893FAA3F3B3FA83F35B1CB1
:109CA00003F01F034FF0010C0CFA03FC2368C3F30D
:109CB00012031BB92368C3F3846304E0236893FA97
:109CC000A3F3B3FA83F35B1C03F01F034CEA836C2A
:109CD0002368C3F312031BB92368C3F3846304E04E
:109CE000236893FAA3F3B3FA83F35B1C03F01F0317
:109CF00003EB43034FF0000B4BEA03534CEA03031F
:109D00003FE02368C3F3120323B92368C3F38463DA
:109D100005E03BE0236893FAA3F3B3FA83F35B1CFB
:109D200003F01F034FF0010C0CFA03FC2368C3F38C
:109D300012031BB92368C3F3846304E0236893FA16
:109D4000A3F3B3FA83F35B1C03F01F034CEA836CA9
:109D50002368C3F312031BB92368C3F3846304E0CD
:109D6000236893FAA3F3B3FA83F35B1C03F01F0396
:109D70000A3B03EB43034FF0007B4BEA03534CEAEF
:109D800003031946A268286806F07EFF0E49206882
:109D90000840A0B300BF0D48806800F0E07600BF27
:109DA0000B492068884233D106F4000040BB0949C2
:109DB0002868884214D0084928680FE000007F40D6
:109DC00000F0FF03FFFF07000000088000030450BD
:109DD000000052C70000045000020450884243D1E2
:109DE00046F40001244806F063FF24480068244933
:109DF000B0FBF1F000EB40008000009004E01BE0BD
:109E000006E00098401E009000980028F9D12BE051
:109E10001C492068884210D106F0807068B91A4940
:109E20002868884203D01949286888421CD146F026
:109E30008071114806F03CFF16E015492068884201
:109E400012D106F4800078B90F49286888420BD1F6
:109E500046F48001084806F02BFF05E0686D40F0ED
:109E6000200068654FF0010A00BF002085F850000F
:109E700000BF5046B0E50000000304500801002078
:109E8000400D0300000084CB000004500002045089
:109E90000100008018BCBDE8E08F000070B50446EA
:109EA0000CB9012070BD606D40F0020060650321B7
:109EB0002046FEF7FFFD05462068C06840F400100C
:109EC0002168C86035B92046FEF782FE05460DB907
:109ED00001206065206840686FF30A0021684860CF
:109EE00040F2FF70216808602068806820F0A04080
:109EF000216888602068806840F000502168886090
:109F00002068C068514908402168C8602068C0685E
:109F100040F000402168C860206800696FF30A00C3
:109F2000216808612068406900F04040216848616C
:109F30002068806900F07840216888612068006AA4
:109F400000F0F020216808622068406A00F0FF20DD
:109F5000216848622068806A00F0FF2021688862DA
:109F60002068006B3A490840216808632068406B0C
:109F7000374910390840216848632068806B3449AC
:109F800010390840216888632068C06B40F2DF7197
:109F900088432168C8632068006E2E490840216804
:109FA00008662068406E2B49084021684866206892
:109FB000806E28490840216888662068C06E25495F
:109FC00008402168C8662068D0F8A0006FF312002E
:109FD0002168C1F8A0002068D0F8A4006FF3120037
:109FE0002168C1F8A4002068D0F8B0006FF3120017
:109FF0002168C1F8B0002068D0F8B40020F07F10CC
:10A000002168C1F8B400144806F014FE064613484F
:10A0100006F010FE0643124806F00CFE064336B961
:10A0200010480068104908400B49C1F80803204651
:10A0300000F032F90020A065E0650021216660652E
:10A0400000BF84F8500000BF28462BE70480008042
:10A05000300882E000F0FF030000045000010450CB
:10A060000002045008030450E01000FE0146086896
:10A07000006C70472DE9F84F04464FF000090020AE
:10A08000009014B9012000F003B9206920B120200C
:10A09000005D012800D100BF606D30B9204600F09E
:10A0A00019F90020A06584F8500020688168C1F388
:10A0B000407131B1206881686C4A1140816000BFF5
:10A0C00000BF206806F0C0FDA0B920688168684A1A
:10A0D000114041F08051816000BF664800686649C8
:10A0E000B0FBF1F0009002E00098401E0090009854
:10A0F0000028F9D1206806F0A7FD48B9606D40F04E
:10A1000010006065A06D40F00100A0654FF00109EE
:10A11000206806F09EFD0646606D00F010000028E5
:10A120007BD1002EFCD1606D20F4807040F00200E5
:10A130006065206806F07EFDD0B9504806F07AFDD3
:10A1400082464F4806F076FD4AEA000A4D4806F07E
:10A1500071FD4AEA000ABAF1000F09D160684A4964
:10A16000896821F47C110143474A916000BF00BF18
:10A17000607E616B41EA4030E1680843A1680843B2
:10A180002021095D40EA01452020005D012803D11E
:10A19000A08C401E45EA4045A06A28B1208D00F4FD
:10A1A0007070E16A084305432068C0683749084079
:10A1B00028432168C860206806F04BFD804620686F
:10A1C00006F02EFD0746B8F1000F2DD127BB207EEB
:10A1D000002141EA803194F8300041EA40052068CE
:10A1E000C06844F20201884328432168C86094F89B
:10A1F0003800012812D1E06B40F00101206C0843C7
:10A20000616C0843A16C08432168096940F2FC7243
:10A21000914308432168086106E01FE02068006957
:10A2200020F00100216808612069012809D1206817
:10A23000006B20F00F00E169491E084321680863A4
:10A2400005E02068006B20F00F0021680863606D56
:10A2500020F0020040F00100606505E0606D40F014
:10A26000100060654FF0010948460CE7C0FFFF5F32
:10A27000C0FFFF7F08010020400D030000000450D4
:10A2800000010450000204500003045007C0F0FF16
:10A2900018BCBDE8E08F000010B5044609492068ED
:10A2A00088420ED10848C06C20F400500649C864AA
:10A2B0000821064801F028FC05480078401E0449A2
:10A2C000087010BD00000450001002400008004853
:10A2D0008800002010B586B00446142101A8FEF7BE
:10A2E0000FF818492068884229D100BF1648C06C71
:10A2F00040F400501449C8640846C06C00F4005093
:10A30000009000BF00BF00BF0846C06C40F00400D2
:10A31000C8640846C06C00F00400009000BF00BF95
:10A32000082001900B2002900020039001A907480B
:10A3300001F0A6FC06480078401C0549087006B0EC
:10A3400010BD00000000045000100240000800484A
:10A35000880000202DE9F04704460F46464806F0E5
:10A3600051FC05466069082801D108261FE01DB18F
:10A37000052D01D0092D0DD12068C06800F0010025
:10A3800030B1606D40F0200060650120BDE8F087CD
:10A3900004260CE000BF3848806800F4604028B113
:10A3A000606D40F0200060650120EFE7042601F0B9
:10A3B0007DFD804613E0781C88B101F077FDA0EBAD
:10A3C0000800B84200D857B9606D40F004006065DD
:10A3D00000BF002084F8500000BF0320D6E72068AB
:10A3E000006830400028E6D0606D40F40070606581
:10A3F000206806F038FC98B1607E88B92068006853
:10A4000000F0080008280BD1606D20F480706065B2
:10A41000606D00F4805018B9606D40F00100606517
:10A4200016492068884201D1154800E0206821685B
:10A43000884204D01DB1052D01D0092D03D120681B
:10A44000D0F80C9009E00D492068884201D10C48F1
:10A4500000E020688246DAF80C90082E03D108202C
:10A460002168086005E009F4804010B90C202168DB
:10A47000086000208AE70000000304500001045037
:10A48000000004502DE9F0410446424806F0BAFBB2
:10A490000646206806F0DDFB002877D100BF94F85F
:10A4A0005000012802D10220BDE8F081012084F88B
:10A4B000500000BF2046FEF7CFFB0546002D60D1BF
:10A4C000606D40F60161884340F4807060653249F8
:10A4D0002068884201D1314800E020682168884224
:10A4E00000D01EB9606D20F480106065606D00F4CE
:10A4F0008050B0F5805F04D1A06D20F00600A0650B
:10A5000001E00020A0651C202168086000BF002039
:10A5100084F8500000BF20492068884201D11F48BC
:10A5200000E020682168884204D01EB1052E01D0C9
:10A53000092E0ED12068C06800F0007028B1606D4F
:10A5400020F4005040F480506065206806F094FBD1
:10A550001DE0606D40F4801060650F4920688842FE
:10A5600001D10E4800E020680746F86800F000704E
:10A5700068B1606D20F4005040F48050606506E0E2
:10A5800004E000BF002084F8500000E002252846C7
:10A590008AE700000003045000010450000004504A
:10A5A00070B5044600BF94F85000012801D1022084
:10A5B00070BD012084F8500000BF03212046FEF743
:10A5C00079FA054655B92046FEF702FB05462DB936
:10A5D000606D20F4885040F00100606500BF0020ED
:10A5E00084F8500000BF2846E2E7704710B50446E3
:10A5F0000CB9012010BD2068FEF784FE144951F803
:10A60000200008B90120F5E72068006820F08000EC
:10A61000216808600F480068401E0E49086008461F
:10A62000006828B90C48006820F000400A4908601A
:10A63000204600F0A5F8002084F834002068FEF7DA
:10A6400061FE0349002241F820200020D2E70000EB
:10A65000C85A0010AC0200200060014010B504464A
:10A660000CB9012010BD2068FEF74CFE414951F89D
:10A67000200008B10120F5E7204600F0AFF83E4881
:10A680000068401C3C49086008460068012821D148
:10A690003A48006820F08040384908600846006861
:10A6A000A1680843354908600846006820F47F0027
:10A6B00008602079012807D108460168A089401E5A
:10A6C00041EA00402D4908602C48006840F00040F5
:10A6D0002A4908602068006820F4714021680860F9
:10A6E000D4E904100843A1690843216809680843B4
:10A6F000216808602068006820F00F002168086069
:10A70000D4E90710084321680968084321680860F4
:10A710002068806820F45F0021688860208D401EDA
:10A72000616A41EA004021688968084321688860BD
:10A730002068406800F0070021684860E06A010274
:10A74000206B41EAC00021684968084321684860DD
:10A750002068006840F0800021680860012084F8CB
:10A7600034002068FEF7CEFD024941F82040002069
:10A7700078E70000C85A0010AC02002000600140D9
:10A7800010B5044611480068401E1049086008468C
:10A790000068C8B90E48006E20F080700C49086649
:10A7A00084210C4801F0B0F940210B4801F0ACF9CC
:10A7B0002A2001F0A7FD3D2001F0A4FD3E2001F07C
:10A7C000A1FD3F2001F09EFD10BD0000940000207F
:10A7D00000100240000800480004004810B586B090
:10A7E0000446142101A8FDF78BFD3B4800680028B2
:10A7F00070D13A480068401C384908600846006833
:10A8000001280DD100BF3648006E40F080703449F9
:10A8100008660846006E00F08070009000BF00BF20
:10A8200000BF2F48C06C40F004002D49C8640846A2
:10A83000C06C00F00400009000BF00BF00BF0846DD
:10A84000C06C40F00200C8640846C06C00F0020012
:10A85000009000BF00BF84200190022002900020E1
:10A86000039004900620059001A91E4801F008FA03
:10A8700040200190022002900020039004900620C6
:10A88000059001A9184801F0FBF9002211462A2081
:10A8900001F06AFD2A2001F057FD002211463D20FB
:10A8A00001F062FD3D2001F04FFD002211463E20E7
:10A8B00001F05AFD3E2001F047FD002211463F20E5
:10A8C00001F052FD3F2001F03FFD03480068401CAD
:10A8D0000149086006B010BD9400002090000020DF
:10A8E000001002400008004800040048704770470C
:10A8F00070B50346002093F84C4004B393F84C40E5
:10A90000FF2C1CD01C6824680E4D2C401D682C6048
:10A91000012A0AD11C6824680D0C2D04960446EA0D
:10A9200005252C431D682C6007E01C6824680D0C6D
:10A930002D0444EA05241D682C601A6300E0012000
:10A9400070BD0000FFFFFBF810B504460CB90120F4
:10A9500010BD2068006820F00100216808602046D2
:10A9600000F0A4F8002084F84C0000BFF0E7704726
:10A9700010B504460CB9012010BD49492068884231
:10A9800007D16068012802D0E068012801D10120C8
:10A99000F2E70020206301206064A06400202065AD
:10A9A000204600F0ABF82068006820F40020216801
:10A9B0000860207A012806D12068006840F0005025
:10A9C0002168086005E02068006820F000502168D8
:10A9D0000860607A012806D12068006840F4001001
:10A9E0002168086005E02068006820F400102168F4
:10A9F00008602068006846F2087188432168086092
:10AA0000E068022805D12068016860690143206878
:10AA10000160207C012806D12068006840F0100009
:10AA20002168086005E02068006820F010002168B7
:10AA30000860607C012806D12068006840F0200092
:10AA40002168086005E02068006820F02000216887
:10AA50000860206840691349084021684861208CDB
:10AA6000401EE16941EA0041606A401E08432168D6
:10AA7000496908432168486160686063E068A063D1
:10AA8000A069E063207C84F840002068006840F002
:10AA9000010021680860012084F84C0000206BE769
:10AAA0000061014000FF001C7047000010B5044623
:10AAB0000E480068401E0D4908600846006898B9B5
:10AAC0000B48006E20F0807009490866842109480F
:10AAD00001F01AF84021084801F016F8E06A00F089
:10AAE00021FDA06A00F01EFD10BD000094000020B2
:10AAF00000100240000800480004004810B586B06D
:10AB00000446142101A8FDF7FBFB784800680028E3
:10AB100050D177480068401C7549086008460068B5
:10AB200001280DD100BF7348006E40F0807071495C
:10AB300008660846006E00F08070009000BF00BFFD
:10AB400000BF6C48C06C40F004006A49C864084605
:10AB5000C06C00F00400009000BF00BF00BF0846BA
:10AB6000C06C40F00200C8640846C06C00F00200EF
:10AB7000009000BF00BF84200190022002900020BE
:10AB8000039004900620059001A95B4801F078F835
:10AB900040200190022002900020039004900620A3
:10ABA000059001A9554801F06BF850480068401C19
:10ABB0004E49086052492068884220D15148524984
:10ABC00008600020486000214F488160C1608021FA
:10ABD000016189004161890081612021C1610021F9
:10ABE000016200F081FD08B1FEF780FC00BF46481D
:10ABF000E062846200BF00BFA062846200BF40497F
:10AC000080312068884221D13E4814303F49086095
:10AC10000020486000213D488160C16080210161C1
:10AC200089004161890081612021C16100210162A7
:10AC300000F05AFD08B1FEF759FC00BF3348E0624E
:10AC4000846200BF00BFA062846200BF30492068F8
:10AC5000884221D12B4828302E49086000204860C6
:10AC600000212C488160C16080210161890041611F
:10AC7000890081612021C1610021016200F034FD61
:10AC800008B1FEF733FC00BF2248E062846200BFD7
:10AC900000BFA062846200BF1D49803120688842E5
:10ACA00021D118483C301C49086000204860002130
:10ACB00019488160C160802101618900416189007A
:10ACC00081612021C1610021016200F00DFD08B108
:10ACD000FEF70CFC00BF1048E062846200BF00BFBA
:10ACE000A062846200BF06B010BD00009400002086
:10ACF00090000020001002400008004800040048B6
:10AD00000061014044000240906F0020D86F002095
:10AD100000620140207000206870002038B50446B1
:10AD200083480078022835D18248007888B3824968
:10AD30002068884205D18148007840F001007F49B1
:10AD400008707D4980312068884205D17B480078B1
:10AD500040F002007949087079492068884205D19D
:10AD60007648007840F00400744908707348007811
:10AD700006280DD14FF480727249A1F5006024F0CD
:10AD800027FB0021704816F0BDFA00206B490870BF
:10AD900038BDFFE766480078032807D0644800788C
:10ADA000022852D16948007800284ED162492068B3
:10ADB000884205D16148007840F010005F49087072
:10ADC0005D4980312068884205D15C48007840F0B8
:10ADD00020005A4908705A492068884205D15748CE
:10ADE000007840F04000554908705448007800F061
:10ADF000F000702812D14E48007803280ED14FF48D
:10AE00008073504A5049A1F5006024F0F1FA002106
:10AE10004F4816F077FA00204849087047480078F4
:10AE200000F0F00030280FD14148007802280BD103
:10AE3000C2014549464824F0CBFA0021444816F0A7
:10AE400061FA00203D490870A2E7394800780428DB
:10AE500006D037480078012845D136480078E8B355
:10AE600035492068884205D13448007840F0100008
:10AE700032490870304980312068884205D12F4816
:10AE8000007840F020002D4908702D492068884244
:10AE900005D12A48007840F0400028490870284928
:10AEA00080312068884205D12448007840F0800035
:10AEB000224908702148007800F0F000F02811D1F4
:10AEC0004FF48070234B1F4A1F490090204824F004
:10AED000A2FA00211E4816F015FA00E003E0002057
:10AEE0001649087054E714492068884203D10021AC
:10AEF000174816F007FA104980312068884203D1BC
:10AF00000121114816F0FEF90D492068884203D14D
:10AF100002210C4816F0F6F9094980312068884270
:10AF200003D103210B4816F0EDF900BF30E7000014
:10AF3000C0030020C103002000610140BF030020C6
:10AF400000620140A8B60020A8AE0020C203002085
:10AF5000A8A60020A8BE002038B504468348007883
:10AF6000022835D18248007888B382492068884217
:10AF700005D18148007840F001007F4908707D4983
:10AF800080312068884205D17B48007840F002007B
:10AF90007949087079492068884205D17648007857
:10AFA00040F00400744908707348007806280DD1F9
:10AFB0004FF480727249A1F5006024F009FA002173
:10AFC000704816F09FF900206B49087038BDFFE704
:10AFD00066480078032807D064480078022852D1D8
:10AFE0006948007800284ED162492068884205D11E
:10AFF0006148007840F001005F4908705D49803188
:10B000002068884205D15C48007840F002005A4927
:10B0100008705A492068884205D15748007840F0A6
:10B020000400554908705448007800F00F000728C4
:10B0300012D14E48007803280ED14FF48073504A45
:10B040005049A1F5006024F0D3F900214F4816F0D3
:10B0500059F90020484908704748007800F00F006F
:10B0600003280FD14148007802280BD1C20145497D
:10B07000464824F0ADF90021444816F043F9002079
:10B080003D490870A2E739480078042806D03748BF
:10B090000078012845D136480078E8B33549206862
:10B0A000884205D13448007840F0010032490870E8
:10B0B000304980312068884205D12F48007840F01F
:10B0C00002002D4908702D492068884205D12A4880
:10B0D000007840F004002849087028498031206831
:10B0E000884205D12448007840F0080022490870C1
:10B0F0002148007800F00F000F2811D14FF4807024
:10B10000234B1F4A1F490090204824F084F9002156
:10B110001E4816F0F7F800E003E00020164908701A
:10B1200054E714492068884203D10021174816F0DB
:10B13000E9F8104980312068884203D10121114883
:10B1400016F0E0F80D492068884203D102210C482E
:10B1500016F0D8F8094980312068884203D10321CC
:10B160000B4816F0CFF800BF30E70000C003002006
:10B17000C103002000610140BF03002000620140C4
:10B18000A8B20020A8AA0020C2030020A8A2002084
:10B19000A8BA00202DE9F04104460E4615460027C6
:10B1A00006B10DB9012747E02068006800F40010DF
:10B1B000B0F5001F01D001273EE0606B40B9206B65
:10B1C00030B9A06AC06918B9012D01D0012733E058
:10B1D000606B38B9206B28B9A06AC069202801D1FA
:10B1E000012729E094F84C00012803D094F84C0082
:10B1F000032820D11248A16AC8621248A16A486394
:10B20000A06AC069202801D10F4800E00020A16A8F
:10B210000863226802F11C012B463246A06A00F046
:10B22000E9FA20B1FF2084F84C00012704E0204611
:10B23000FEF796F800E001273846BDE8F0810000EF
:10B24000E7920008D5920008F592000870B5044610
:10B25000002594F84C00022805D094F84C000428EE
:10B2600001D0012505E0A06A00F000F92046FEF7B4
:10B27000B0F8284670BD00002DE9F047044620686C
:10B2800085682068466805F0080058B106F0080097
:10B2900040B108202168C860012020652046FFF7E2
:10B2A00066FBDDE005F0040058B106F0040040B193
:10B2B00004202168C860022020652046FFF757FB64
:10B2C000CEE005F00200D8B106F00200C0B1204681
:10B2D000FFF724FD206B0028E3D1606B0028E0D14C
:10B2E0002068406820F002002168486094F84C0013
:10B2F000022801D1012000E0032084F84C00AFE0D7
:10B3000005F0010028B306F0010010B32046FFF756
:10B31000CBFBA06C401EA064A06C0028C1D1A06B28
:10B3200070B92068406820F001002168486094F8F6
:10B330004C00032801D1012000E0022084F84C00D9
:10B3400094F84000012801D1606C00E00120A06465
:10B3500086E005F0100070B306F0100058B3002727
:10B360002068D0F8288008F0FF0008B1012000E034
:10B3700000208146B9F1000F01D14FEA182802E000
:10B380007F1C4FEA580808F0010008B9072FF7D3CF
:10B39000B9F1000F05D107F10800012101FA00F011
:10B3A00001E00120B8402168C8624A46394620467B
:10B3B000FFF79DFA54E0FFE72A49206888422BD125
:10B3C00005F47F0040B306F0400028B30027206852
:10B3D0008068C0F307481CE008F00100B0B12248C3
:10B3E00050F8270090B1204850F827000068006806
:10B3F00000F0400050B107F11000012181402068A9
:10B40000C160194951F82700FFF7EFF87F1C4FEA98
:10B410005808082FE0D323E01249206888421FD142
:10B4200005F07F40E0B106F02000C8B10027206899
:10B4300080684FEA106802E07F1C4FEA580808F065
:10B44000010008B9072FF7D307F118000121814047
:10B450002068C160044951F82700FFF747FA00BF90
:10B46000BDE8F08700610140C85A00100146002283
:10B4700091F82500022808D00420C86300BF0020EE
:10B4800081F8240000BF012070470868006820F0A0
:10B490000E000B6818600868006820F001000B6857
:10B4A000186091F8440000F01C03012098400B6CD8
:10B4B0005860012081F8250000BF002081F8240099
:10B4C00000BF1046E0E770B50446002594F825005B
:10B4D000022803D00420E063012520E020680068F2
:10B4E00020F00E00216808602068006820F001004C
:10B4F0002168086094F8440000F01C010120884095
:10B50000216C4860012084F8250000BF002084F8E9
:10B51000240000BFA06B10B12046A16B88472846CD
:10B5200070BD0000014609B9012070470868006835
:10B5300020F001000A681060294A086890420BD286
:10B54000284A0868801A1422B0FBF2F08000486490
:10B550002448083808640AE0214A0868801A14223E
:10B56000B0FBF2F0800048641D48083808640020F1
:10B570000A68106091F8440000F01C02012090401D
:10B580000A6C5060174A083A086C90420DD1D0F806
:10B59000A80091F8442002F01C030F229A40904327
:10B5A000104A083AC2F8A8000CE00D48A030006824
:10B5B00091F8442002F01C030F229A409043084A5D
:10B5C000A03210600020C862086348638863C863C3
:10B5D00081F8250000BF81F8240000BF00BFA4E768
:10B5E000080402400800024070B50446206C05685B
:10B5F0002068066894F8440000F01C01042088408C
:10B600002840E0B106F00400C8B12068006800F0EE
:10B61000200028B92068006820F004002168086034
:10B6200094F8440000F01C0104208840216C48601C
:10B63000206B002856D02046216B884752E094F8B2
:10B64000440000F01C0102208840284018B306F096
:10B65000020000B32068006800F0200040B92068B4
:10B66000006820F00A0021680860012084F82500A5
:10B6700094F8440000F01C0102208840216C4860CE
:10B6800000BF002084F8240000BFE06A50B32046C9
:10B69000E16A884726E094F8440000F01C01082085
:10B6A00088402840F0B106F00800D8B12068006852
:10B6B00020F00E002168086094F8440000F01C019E
:10B6C00001208840216C48600120E06384F8250057
:10B6D00000BF002084F8240000BF606B10B120463A
:10B6E000616B884770BD000010B5014609B90120A3
:10B6F00010BD3E4B086898420BD23D4B0868C01AFB
:10B700001423B0FBF3F0800048643948083808641B
:10B710000AE0364B0868C01A1423B0FBF3F080002F
:10B720004864324808380864022081F82500086817
:10B73000026847F6F0708243D1E9020318430B69AF
:10B7400018434B6918438B691843CB6918430B6A3C
:10B7500018430243086802608868B0F5804F3AD009
:10B76000234B083B086C98421BD1D0F8A80091F8F5
:10B77000443003F01C040F23A34098431C4BA03318
:10B78000186091F8443003F01C0348689840184B47
:10B79000083BD3F8A8301843154B083BC3F8A80062
:10B7A00019E01248A030006891F8443003F01C04FE
:10B7B0000F23A34098430D4BA033186091F84430F9
:10B7C00003F01C0348689840084BA0331B681843DB
:10B7D000064BA03318600020C863012081F82500C3
:10B7E000002081F8240000BF82E700000804024026
:10B7F000080002402DE9F04104460D4616461F465A
:10B800004FF0000800BF94F82400012802D1022064
:10B81000BDE8F081012084F8240000BF94F82500E1
:10B8200001282CD1022084F825000020E063206844
:10B83000006820F00100216808603B463246294636
:10B840002046FDF721FE206B30B12068006840F0F3
:10B850000E00216808600BE02068006820F00400FA
:10B86000216808602068006840F00A0021680860CC
:10B870002068006840F001002168086006E000BF11
:10B88000002084F8240000BF4FF002084046BFE7C4
:10B8900010B54FF0FF300C49886300208863401ECC
:10B8A000086400200864401E886200208862401EF0
:10B8B000C8620020C862401E08630020086300F0D0
:10B8C000FFFC002010BD00000010024070B50446CF
:10B8D00000F0ECFA06462546681C10B104480068E2
:10B8E000054400BF00F0E2FA801BA842FAD370BD05
:10B8F000880200202DE9F04104460F4600BF3F4872
:10B900000078012802D10220BDE8F08101203B49E6
:10B91000087000BF4CF25030FDF794FE0646002E32
:10B9200064D1364948603648006800F40070B8B108
:10B930003348006820F40070314908600846006808
:10B9400000F4806040B10846006820F48060086020
:10B9500003202A49087715E001202849087711E0DB
:10B960002748006800F4806048B12548006820F44A
:10B9700080602349086002202049087702E0002007
:10B980001E490877206801280FD16068FDF7E6FDA1
:10B990004CF25030FDF756FE06461948406948F211
:10B9A00004018843164948611EE04FF0FF303860BB
:10B9B000A56813E028466168FDF7ECFD4CF25030B5
:10B9C000FDF740FE06460E48406940F2FA71884392
:10B9D0000B4948610EB13D6005E06D1CD4E90201E0
:10B9E0000844A842E6D800BFFDF782FD00BF002052
:10B9F0000249087000BF304686E700008C02002034
:10BA0000002002400348406940F00040014948617D
:10BA100000207047002002402DE9F0470446884688
:10BA200015461E464FF0000900BF2948007801283E
:10BA300002D10220BDE8F08701202549087000BF2F
:10BA40004CF25030FDF7FEFD0746002F38D120495B
:10BA500048602048006800F4806048B11D480068D4
:10BA600020F480601B49086002201949087702E031
:10BA70000020174908773CB92A4633464046FDF76F
:10BA8000ADFD4FF001090BE0012C01D0022C07D1D4
:10BA900029464046FDF7B6FD022C01D14FF480291E
:10BAA0004CF25030FDF7CEFD0746B9F1000F05D03E
:10BAB0000848406920EA090006494861FDF718FD79
:10BAC00000BF00200249087000BF3846B2E70000FE
:10BAD0008C0200200020024000200849496901F042
:10BAE000004151B10649054A9160064991601146ED
:10BAF000496901F0004101B1012070470020024076
:10BB000023016745AB89EFCDF0B50B46002187E0F7
:10BB100001258D4005EA0302002A7DD0434D8E08A1
:10BB200055F826408D072E0F0F25B5402C40B0F15B
:10BB3000904F01D100251EE03D4DA84201D10125C5
:10BB400019E03C4DA84201D1022514E03A4DA8422B
:10BB500001D103250FE0394DA84201D104250AE0A7
:10BB6000374DA84201D1052505E0364DA84201D147
:10BB7000062500E007258E07360FB540A54221D1E6
:10BB8000314D2D689543304E3560351D2D689543F8
:10BB9000361D3560351D2D689543361D3560351DC4
:10BBA0002D689543361D35608D072E0F0F2505FA3C
:10BBB00006F41E4D8E0855F82650A5431B4E8F08DF
:10BBC00046F8275005684F000326BE403543056000
:10BBD000CE0800F1200555F826504E07F70E0F2627
:10BBE000BE40B543CF0800F1200646F827508568CF
:10BBF0004F000326BE40B5438560466801258D4051
:10BC0000AE434660C5684F000326BE40B543C560DD
:10BC1000C56A01268E4000E001E0B543C562491CBB
:10BC200023FA01F5002D7FF473AFF0BD0800014049
:10BC30000004004800080048000C004800100048BC
:10BC400000140048001800480004014010B50446E4
:10BC5000202C05D126F02EFC042801D12CF082FBEB
:10BC600010BD000010B5044604480068204020B113
:10BC7000024804602046FFF7E9FF10BD14040140AC
:10BC800078B503460022E5E0012696400D6805EAF6
:10BC90000604002C7DD04D68022D02D04D68122D77
:10BCA00013D1D60803F1200555F826005507EE0EEE
:10BCB0000F25B540A8435607F60E0D69B540284339
:10BCC000D60803F1200545F826001868560003251C
:10BCD000B540A8430D7905F003055600B54028434B
:10BCE00018604D68012D08D04D68022D05D04D68B3
:10BCF000112D02D04D68122D13D1986856000325DE
:10BD0000B540A8435600CD68B540284398605868B0
:10BD100001259540A8430D79C5F3001595402843AA
:10BD200058600D7905F00305032D09D1D86A012566
:10BD30009540A8430D79C5F3C00595402843D862C6
:10BD4000D86856000325B540A84356008D68B54015
:10BD50002843D8604D6805F08055B5F1805F78D1F3
:10BD600000BF3F4D2D6E45F001053D4E3566354611
:10BD70002D6E05F00105009500BF00BF4FEAB635F6
:10BD8000960855F8260095072E0F0F25B540A843B5
:10BD900000E05EE0B3F1904F01D100251EE0314D8F
:10BDA000AB4201D1012519E02F4DAB4201D1022553
:10BDB00014E02E4DAB4201D103250FE02C4DAB42D8
:10BDC00001D104250AE02B4DAB4201D1052505E048
:10BDD000294DAB4201D1062500E007259607360F15
:10BDE000B5402843254D960845F82600244D28687F
:10BDF000A0434D6805F48035B5F5803F00D1204360
:10BE00001F4D28602D1D2868A0434D6805F400359E
:10BE1000B5F5003F00D12043194D2D1D28602D1D83
:10BE20002868A0434D6805F48015B5F5801F00D142
:10BE30002043134D083528602D1D2868A0434D6808
:10BE400005F40015B5F5001F00D120430C4D0C354D
:10BE50002860521C0D68D540002D7FF415AF78BDC9
:10BE6000001002400004004800080048000C004890
:10BE70000010004800140048001800480800014065
:10BE800000040140024613690B400BB1012000E0A1
:10BE90000020704742690A400AB1816200E0816176
:10BEA00070470AB1816100E0816270470148006813
:10BEB0007047000080020020024692F841002028CE
:10BEC0002DD100BF92F84000012801D10220704717
:10BED000012082F8400000BF242082F84100106851
:10BEE000006820F00100136818601068006820F4F2
:10BEF0008050136818601068006808431368186061
:10BF00001068006840F0010013681860202082F873
:10BF1000410000BF002082F8400000BFD7E70220A8
:10BF2000D5E710B502460B4692F8410020282AD1E9
:10BF300000BF92F84000012801D1022010BD01206D
:10BF400082F8400000BF242082F841001068006899
:10BF500020F00100146820601068016821F470610D
:10BF600041EA0321106801601068006840F0010098
:10BF700014682060202082F8410000BF002082F871
:10BF8000400000BFDAE70220D8E7000008B500BF94
:10BF90000949096E41F00101074A11661146096E0F
:10BFA00001F00101009100BF00BF0449496801434D
:10BFB000024A516008BD000000100240000001402C
:10BFC000704770472DE9F041044620688569206874
:10BFD0000668C5F3002050B1C6F3C01038B1606CDC
:10BFE00040F0010060644FF480702168C861C5F3BF
:10BFF000802050B1C6F3C01038B1606C40F008002A
:10C0000060644FF480602168C861C5F3402050B17E
:10C01000C6F3C01038B1606C40F0020060644FF4A9
:10C0200000702168C861676C07F00B0018B13946D1
:10C03000204604F09FFABDE8F08170B50446206800
:10C04000856920680668606B20B132462946204623
:10C05000636B984770BD704710B504460CB901205A
:10C0600010BD94F8410028B9002084F84000204613
:10C0700000F056F8242084F841002068006820F081
:10C08000010021680860606820F070602168086124
:10C090002068806820F4004021688860E0680128FA
:10C0A00005D1A06840F400402168886004E0A068E1
:10C0B00040F4044021688860E068022802D18002D0
:10C0C0002168486020684068134908432168486037
:10C0D0002068C06820F400402168C860D4E90401E9
:10C0E0000843A16940EA01202168C860D4E907013A
:10C0F0000843216808602068006840F0010021685A
:10C10000086000206064202084F841000020206343
:10C1100084F8420000BFA3E70080000270470000DF
:10C1200010B586B00446142101A8FCF7E9F82049AF
:10C13000206888423AD100BF1E48C06C40F002001F
:10C140001C49C8640846C06C00F00200009000BFA3
:10C1500000BF4FF440700190122002900120039024
:10C16000032004900420059001A91348FFF788FDDF
:10C1700000BF1048806D40F400100E4988650846E5
:10C18000806D00F40010009000BF00BF0022114637
:10C190001F2000F0E9F81F2000F0D6F80022114619
:10C1A000202000F0E1F8202000F0CEF806B010BD0D
:10C1B00000540040001002400004004870477047DF
:10C1C00070B504460CB9012070BD4CF6CC40216816
:10C1D000086045F2555021680860D4E900104860B5
:10C1E0002168A0688860FFF761FE054606E0FFF75A
:10C1F0005DFE401B302801D90320E5E72068C068B8
:10C200000028F4D120680169E068814203D02168E8
:10C21000E068086103E04AF6AA202168086000206F
:10C22000D2E701464AF6AA200A681060002070474B
:10C2300003480068034909680844014908607047D9
:10C24000800200208802002010B50024032000F0A6
:10C25000CDF8002000F008F808B1012401E000F05A
:10C2600031F8204610BD000070B504460025114885
:10C270000068D8B10F4800684FF47A71B1FBF0F054
:10C280000D490968B1FBF0F6304602F095FF58B948
:10C29000102C07D200222146501E00F065F80748F6
:10C2A000046004E0012502E0012500E001252846A4
:10C2B00070BD0000880200200801002084020020D8
:10C2C0007047000008B500BF0D48006E40F0010047
:10C2D0000B4908660846006E00F00100009000BFA0
:10C2E00000BF00BF0846806D40F08050886508465A
:10C2F000806D00F08050009000BF00BF08BD0000BE
:10C300000010024010B501460846002817DB00F077
:10C310001F0301229A400B4B440943F8242000BF1D
:10C3200000BF00BFBFF34F8F00BF00BF00BF00BF03
:10C3300000BF00BFBFF36F8F00BF00BF00BF00BFD3
:10C3400010BD000080E100E001460846002809DB3E
:10C3500000F01F0301229A4043099B0003F1E023F0
:10C36000C3F8002100BF70472DE9F05F80460D46FD
:10C370001646002720F008FC074639462A46334671
:10C3800001F00700C0F1070ABAF1040F02D94FF01B
:10C39000040A01E0C0F1070AD14600F1040ABAF12B
:10C3A000070F02D24FF0000A01E0A0F1030AD446C1
:10C3B0004FF0010A0AFA09FAAAF1010A0AEA020A86
:10C3C0000AFA0CFA4FF0010B0BFA0CFBABF1010B64
:10C3D0000BEA030B4AEA0B042146404620F0DCFB43
:10C3E00000F000B830BCBDE8C09F000000BF00F006
:10C3F0000702064B19684FF6FF031940044B0B4325
:10C4000043EA0221014B196000BF70470CED00E0C8
:10C410000000FA0500BF00BF00BF00BF00BFBFF3B0
:10C420004F8F00BF00BF00BF0948006800F4E06004
:10C4300008490843001D0649086000BF00BF00BF4F
:10C44000BFF34F8F00BF00BF00BF00BF00BFFDE7BD
:10C450000CED00E00000FA0501460A680120C1F871
:10C46000FC03002081F8F403906940F000609061C3
:10C47000506D024B184350650020704703000010B8
:10C4800070B504460D4615B1012D2CD116E0206A79
:10C4900038B107F05FFC1548006820F0060013492A
:10C4A00008602068D0F8000E20F001002168C1F873
:10C4B000000ED4F8040409F02DFD14E02068D0F833
:10C4C000000E40F001002168C1F8000ED4F8040409
:10C4D00009F0F7FD206A28B10448006840F0060022
:10C4E0000249086000BF00BF70BD000010ED00E011
:10C4F00002461068416200207047F0B503461546B9
:10C500001868446A21B944EA05401E68B06219E01F
:10C510001868806A04EB1044002208E0186800F5EF
:10C52000827050F8220004EB1044501CC2B2481E26
:10C530009042F3D844EA0547186800F582704E1E11
:10C5400040F826700020F0BD10B50446D4F804046D
:10C5500009F0E2FB10BD70B504460D46C5EBC503FE
:10C5600004F13C0101EB8301CA682946D4F80404B4
:10C5700009F0E1FA70BD70B504460D46C5EBC50380
:10C5800004F5FE7101EB8301CA682946D4F804045E
:10C5900009F051FB70BD10B504460CB9012010BD67
:10C5A000032084F8BD03204600F0E5FD204600F09E
:10C5B000D1FC002084F8BD0300BFF0E710B50446AD
:10C5C000D4F8040409F0ABFB10BD70B504460E4668
:10C5D00006F0800080280AD106F00F00C0EBC001F1
:10C5E00004F13C0000EB81050120687009E006F0D1
:10C5F0000F00C0EBC00104F5FE7000EB81050020C8
:10C60000687006F00F00287000BF94F8BC03012882
:10C6100001D1022070BD012084F8BC0300BF29466F
:10C6200020680AF007F900BF002084F8BC0300BFAF
:10C6300000BFEFE770B504460E4606F00F006168D4
:10C64000884201D9012070BD06F0800080280AD1FF
:10C6500006F00F00C0EBC00104F13C0000EB8105C7
:10C660000120687009E006F00F00C0EBC00104F57E
:10C67000FE7000EB8105002068700020A87006F0B5
:10C680000F00287000BF94F8BC03012801D10220DC
:10C69000D9E7012084F8BC0300BF294620680AF0CE
:10C6A00091FB00BF002084F8BC0300BF00BFCAE7B5
:10C6B000024601F00F00C0EBC00302F5FE7000EB74
:10C6C0008300806970472DE9F04705460E46904685
:10C6D0001F464FF0000906F0800080280AD106F0BE
:10C6E0000F00C0EBC00105F13C0000EB810401200C
:10C6F000607009E006F00F00C0EBC00105F5FE70A8
:10C7000000EB81040020607006F00F002070C4F878
:10C710000880E770607808B12078E080022F01D1AE
:10C720000020207100BF95F8BC03012802D102202F
:10C73000BDE8F087012085F8BC0300BF21462868CA
:10C7400009F09EFF00BF002085F8BC0300BF4846EB
:10C75000EEE72DE9F04105460E461746984606F0ED
:10C760000F00C0EBC00105F5FE7000EB8104E7602F
:10C77000C4F814800020A061607006F00F002070E3
:10C7800006F00F0020B9214628680AF023FA03E0DA
:10C79000214628680AF0AAFB0020BDE8F08170B5A8
:10C7A00004460D4605F00F006168884201D901205A
:10C7B00070BD05F0800080280AD105F00F00C0EBA5
:10C7C000C00104F13C0000EB81060120707007E01D
:10C7D000C5EBC50104F5FE7000EB8106002070700A
:10C7E0000120B07005F00F00307000BF94F8BC035A
:10C7F000012801D10220DBE7012084F8BC0300BF3F
:10C80000314620680AF025FB05F00F0020B904F539
:10C81000717120680AF0AAFA00BF002084F8BC03F6
:10C8200000BF00BFC4E72DE9F04105460E4617469C
:10C83000984606F00F00C0EBC00105F13C0000EB8C
:10C840008104E760C4F814800020A06101206070BA
:10C8500006F00F00207006F00F0020B9214628686E
:10C860000AF0B8F903E0214628680AF03FFB0020EF
:10C87000BDE8F0812DE9FE4F044620680290029D3C
:10C8800020680AF0D5FC00287DD120680AF00FFD51
:10C8900008B900F091BA20680AF009FD00F0020022
:10C8A000022805D12068406900F002002168486133
:10C8B00020680AF0FCFC00F01000102846D1206827
:10C8C000806920F01000216888610298D0F82090DB
:10C8D00009F00F00C0EBC00104F5FE7000EB810B06
:10C8E000C9F3434002281AD147F6F07009EA000064
:10C8F00030B3C9F30A12DBF80C1002980AF0DCFC22
:10C90000C9F30A11DBF80C000844CBF80C00C9F39A
:10C910000A11DBF818000844CBF8180010E0C9F33E
:10C92000434006280CD1082204F5717102980AF0E0
:10C93000C3FCC9F30A11DBF818000844CBF818004F
:10C940002068806940F010002168886120680AF042
:10C95000AEFC00F40020B0F5002F52D10026206874
:10C960000AF075FC824649E00AF00100E8B3F1B232
:10C9700020680AF08FFC804608F0010058B10121C0
:10C9800005F5306000E015E200EB461081603146AD
:10C99000204606F093F908F00800082809D108217C
:10C9A00005F5306000EB461081603146204606F008
:10C9B0005FF908F01000102805D1102105F530604E
:10C9C00000EB4610816008F02000202805D12021CE
:10C9D00005F5306000EB4610816008F40050B0F5BA
:10C9E000005F08D14FF4005100E004E005F530602D
:10C9F00000EB46108160761C4FEA5A0ABAF1000F2C
:10CA0000B2D120680AF053FC00F48020B0F5802FEA
:10CA100060D120680AF011FC8246002657E00AF037
:10CA20000100E8B3F1B220680AF01BFC804608F070
:10CA30000100B8B106F00F0101208840019040F6D6
:10CA400034004159019821EA000040F63401485170
:10CA5000012105F5106000EB46108160F1B220461F
:10CA6000FFF779FD08F00800082805D1082105F531
:10CA7000106000EB4610816008F01000102805D10E
:10CA8000102105F5106000EB4610816008F04000B1
:10CA9000402807D1402105F5106000EB461000E06A
:10CAA00012E0816008F00200022805D1022105F59C
:10CAB000106000EB4610816008F08000802803D1F0
:10CAC0003146204606F030F9761C4FEA5A0ABAF190
:10CAD000000FA4D120680AF0EAFB00F00040B0F19A
:10CAE000004F1CD140F60400405920F0010140F6EF
:10CAF0000400415194F8F403012807D1002084F880
:10CB0000F40300212046FFF7BBFC02E0204600F0C2
:10CB1000C9FA2068406900F0004021684861206837
:10CB20000AF0C5FB00F40060B0F5006F0ED140F6CE
:10CB30000800405900F0010010B1204600F040FB11
:10CB40002068406900F400602168486120680AF0AC
:10CB5000AEFB00F00060B0F1006F19D120684069B1
:10CB600000F000602168486194F8F40368B901207E
:10CB700084F8F4032068406DC0F38300C4F8F80320
:10CB800001212046FFF77CFC02E0204600F018FB64
:10CB900020680AF08CFB00F48050B0F5805F7DD1F6
:10CBA00040F60400405920F0010140F604004151D4
:10CBB000102120680AF014FB00273EE04FF67F3179
:10CBC00005F5106000EB4710816005F5106000EB83
:10CBD0004710006820F4001105F5106000EB4710C5
:10CBE000016005F5106000EB4710006840F000613F
:10CBF00005F5106000EB471001604FF67F3105F539
:10CC0000306000EB4710816005F5306000EB4710A5
:10CC1000006820F4001105F5306000EB471001605A
:10CC200005F5306000EB4710006840F0006105F545
:10CC3000306000EB471001607F1C6068B842BDD8CF
:10CC400040F61C00405940F0011140F61C004151D3
:10CC5000206B70B1D5F8840840F00B01C5F884183A
:10CC600040F64400405940F00B0140F64400415169
:10CC70000FE040F61400405942F22B01084340F601
:10CC800014014851081F405940F00B014FF4016056
:10CC90004151D5F8000820F4FE6000E00CE0C5F832
:10CCA000000804F5717120680AF060F82068406996
:10CCB00000F480502168486120680AF0F8FA00F416
:10CCC0000050B0F5005F17D1206809F041FD2068E1
:10CCD0000AF09EFAE06000F0F3FE0090227B2068EC
:10CCE00000990AF033FB204600F0CAF92068406939
:10CCF00000F400502168486120680AF0D8FA00F07A
:10CD00000800082808D1204600F0E8F920684069AA
:10CD100000F008002168486120680AF0C8FA00F4B1
:10CD20008010B0F5801F0AD100263146204600F061
:10CD300046F82068406900F4801021684861206846
:10CD40000AF0B5FA00F40010B0F5001F0AD1002671
:10CD50003146204600F03CF82068406900F400109D
:10CD60002168486120680AF0A2FA00F08040B0F122
:10CD7000804F08D12046FFF7E7FB2068406900F0AC
:10CD800080402168486120680AF091FA00F00400B0
:10CD900004280FD12068D0F8049009F0040004287A
:10CDA00002D12046FFF70AFC2068406840EA0900EB
:10CDB0002168486000BF6CE51EBCBDE8E08F70B51F
:10CDC00004460D462946D4F8040409F00DF870BD58
:10CDD00070B504460D462946D4F8040409F007F856
:10CDE00070BD70B58AB0044614B901200AB070BD98
:10CDF000266894F8BD0328B9002084F8BC032046B7
:10CE000000F0DEF8032084F8BD03F06B00F48070BE
:10CE100008B900212161206809F0D4FE282204F11C
:10CE200010016846FBF7D0FD94E80F0009F0A4FC60
:10CE300020B1022084F8BD030120D7E7002120683B
:10CE40000AF04BFA002531E00121C5EBC50204F1DF
:10CE50003C0000EB82004170C5EBC50104F13C00D1
:10CE600000F82150C5EBC50100EB8100C580002111
:10CE7000C5EBC50204F13C0000EB8200C170C5EBBC
:10CE8000C50204F13C0000EB82008160C5EBC502E5
:10CE900004F13C0000EB8200C160C5EBC50204F167
:10CEA0003C0000EB82004161681CC5B26068A8428A
:10CEB000CAD800252AE00021C5EBC50204F5FE70A2
:10CEC00000EB82004170C5EBC50104F5FE7000F86F
:10CED00021500021C5EBC50200EB8200C170C5EBFB
:10CEE000C50204F5FE7000EB82008160C5EBC5024F
:10CEF00004F5FE7000EB8200C160C5EBC50204F5CD
:10CF0000FE7000EB82004161681CC5B26068A842F7
:10CF1000D1D8282204F110016846FBF755FD94E8AA
:10CF20000F0009F04DFD20B1022084F8BD0301205F
:10CF30005CE7002084F83800012084F8BD03606AB3
:10CF4000012802D12046FFF787FA206809F028FD62
:10CF500000204BE738B504462068B0F1A04F2CD133
:10CF60001648C06C20F480501449C8644FF4C05176
:10CF70004FF09040FEF7C8FD1048806D00F08050E3
:10CF8000B0B900BF0D48806D40F080500B498865F6
:10CF90000846806D00F08050009000BF00BF00F098
:10CFA0006FF90648806D20F080500449886501E0E3
:10CFB00000F066F94320FFF7A5F938BD00100240E4
:10CFC00010B586B00446142101A8FBF799F9206832
:10CFD000B0F1A04F50D100BF2848C06C40F0010014
:10CFE0002649C8640846C06C00F00100009000BFEC
:10CFF00000BF4FF4C0500190022002900020039027
:10D00000032004900A20059001A94FF09040FEF7FC
:10D0100037FE00BF1948C06C40F480501749C864FF
:10D020000846C06C00F48050009000BF00BF084666
:10D03000806D00F08050A8B900BF0846806D40F0B8
:10D04000805088650846806D00F08050009000BFD9
:10D0500000BF00F01FF90948806D20F0805007499B
:10D06000886501E000F016F9002211464320FFF721
:10D070007BF94320FFF768F906B010BD00100240AD
:10D0800070B504460125E068022801D0FCF72EFAAD
:10D090002946D4F8040408F059FFD4F8040408F031
:10D0A0000BFF70BD10B504462068D0F8000E20F0CC
:10D0B00001002168C1F8000E206A38B106480068F6
:10D0C00020F006000449086006F044FED4F8040489
:10D0D00008F020FF10BD000010ED00E010B5044680
:10D0E000D4F8040408F021FF10BD70B504460D46C5
:10D0F00000BF94F8BC03012801D1022070BD0120BB
:10D1000084F8BC0300BF84F83850294620680AF030
:10D11000FFF800BF002084F8BC0300BF00BFEDE7AC
:10D1200010B5044604F57171D4F8040408F034FF16
:10D1300010BD70B50446256800BF94F8BC030128F3
:10D1400001D1022070BD012084F8BC0300BFA06A99
:10D15000012803D1A86B40F48030A863206809F04F
:10D160000FFC20680AF01EF800BF002084F8BC0302
:10D1700000BF00BFE6E710B5044600BF94F8BC034B
:10D18000012801D1022010BD012084F8BC0300BF9A
:10D19000206809F017FD20680AF04AF930B100BF95
:10D1A000002084F8BC0300BF0120ECE7206809F0F0
:10D1B000F7FB00BF002084F8BC0300BF00BFE2E71C
:10D1C00010B504462068D0F8000E40F00100216838
:10D1D000C1F8000ED4F8040408F073FF206A28B1E7
:10D1E0000348006840F006000149086010BD0000D7
:10D1F00010ED00E00246B2F5007F2AD11D4800681C
:10D2000000F4C060B0F5007F32D01A48006820F406
:10D21000C06040F40070174B186017480068322354
:10D220005843164BB0FBF3F0411C00E0491E114877
:10D23000406900F48060B0F5806F01D10029F5D11C
:10D240000C48406900F48060B0F5806F10D1032075
:10D2500070470848006800F4C060B0F5806F07D0E0
:10D260000448006820F4C06040F48060014B1860FE
:10D270000020EDE7007000400801002040420F0050
:10D280000348406820F4806001494860704700000E
:10D29000007000400348406840F4806001494860E5
:10D2A00070470000007000400D49096821F0070137
:10D2B000891C0B4A11600B49096841F00401094AB5
:10D2C0001160012801D130BF02E040BF20BF20BF64
:10D2D0000449096821F00401024A11607047000006
:10D2E0000070004010ED00E00248006800F4C060EB
:10D2F00070470000007000400348006840F48070F0
:10D300000149086070470000007000400849C96882
:10D3100000F01F02914341EA5011054AD1601146C5
:10D32000896800F01F021143014A916070470000B4
:10D33000007000400848006820F00700C01C064943
:10D3400008600648006840F004000449086000BF17
:10D3500000BF30BF704700000070004010ED00E0DB
:10D360002DE9F84304460025A846208800F4006013
:10D37000B0F5006F30D1606E80B1B0F5800F13D082
:10D38000B0F5000F03D0B0F5400F15D113E0FB4806
:10D39000C06840F48030F949C8600FE00021201DCA
:10D3A00005F0D2FD054609E0002104F1200005F05A
:10D3B00091FE054602E001E0012500BF00BF55B91E
:10D3C000EE488830006820F44000616E0843EB4965
:10D3D000C1F8880000E0A846208800F48050B0F52D
:10D3E000805F30D1A06E80B1B0F1807F13D0B0F1FA
:10D3F000007F03D0B0F1407F15D113E0DF48C06853
:10D4000040F48030DD49C8600FE00021201D05F0A8
:10D410009BFD054609E0002104F1200005F05AFEBD
:10D42000054602E001E0012500BF00BF55B9D34821
:10D430008830006820F04070A16E0843CF49C1F8E1
:10D44000880000E0A846206800F40030B0F5003FF6
:10D4500077D14FF00009C948806D012121EA107091
:10D4600078B100BFC548806D40F08050C3498865E1
:10D470000846806D00F08050009000BF00BF4FF064
:10D480000109BF48006840F48070BD490860FEF79C
:10D490000DFD074606E0FEF709FDC01B022801D975
:10D4A000032505E0B648006800F480700028F2D03B
:10D4B00000BF85BBB1489030006800F44076D6B11B
:10D4C000D4F88400B04216D0AC489030006820F404
:10D4D0004076AA48D0F8900040F48030A749C1F8BF
:10D4E00090000846D0F8900020F48030C1F89000F9
:10D4F0000846C0F8906006F00100A8B1FEF7D6FC1F
:10D50000074609E0FEF7D2FCC01B41F28831884291
:10D5100002D9032507E017E098489030006800F032
:10D5200002000028EED000BF65B994489030006832
:10D5300020F44070D4F8841008439049C1F890005A
:10D5400003E00CE0A84600E0A846B9F1010F05D1C0
:10D550008A48806D20F080508849886500BF207817
:10D5600000F0010048B185488830006820F00300D1
:10D57000A16B08438149C1F88800207800F00200BF
:10D58000022809D17D488830006820F00C00E16B4A
:10D5900008437A49C1F88800207800F00400042884
:10D5A00009D176488830006820F03000216C0843AB
:10D5B0007249C1F88800207800F00800082809D1D5
:10D5C0006E488830006820F0C000616C08436B49E9
:10D5D000C1F88800207800F01000102809D16748B1
:10D5E0008830006820F44070A16C08436349C1F89A
:10D5F0008800207800F02000202809D15F4888307A
:10D60000006820F44060E16C08435C49C1F8880080
:10D61000208800F40070B0F5007F09D157488830A9
:10D62000006820F44020E16D08435449C1F88800A7
:10D63000208800F48060B0F5806F09D14F488830B1
:10D64000006820F44010216E08434C49C1F888005E
:10D65000207800F04000402809D148488830006810
:10D6600020F44050216D08434449C1F888002078D7
:10D6700000F08000802809D140488830006820F4FC
:10D680004040616D08433D49C1F88800208800F49E
:10D690008070B0F5807F09D138488830006820F468
:10D6A0004030A16D08433549C1F88800208800F456
:10D6B0000050B0F5005F1FD130488830006820F07E
:10D6C0004060E16E08432D4988310860E06EB0F19A
:10D6D000006F06D12948C06840F480102749C8600F
:10D6E0000AE0E06EB0F1806F06D10121201D05F047
:10D6F0002BFC054605B1A846206800F40020B0F5D3
:10D70000002F1FD11D488830006820F04060216F35
:10D7100008431A4988310860206FB0F1006F06D1C4
:10D720001648C06840F480101449C8600AE0206FB1
:10D73000B0F1806F06D10121201D05F005FC0546E2
:10D7400005B1A846206800F48020B0F5802F24D1D0
:10D750000A488830006820F04060616F084307493C
:10D7600088310860606FB0F1006F0BD10348C0686A
:10D7700040F480100149C8600FE000000010024032
:10D7800000700040606FB0F1806F06D10121201D54
:10D7900005F0DAFB054605B1A846208800F4804074
:10D7A000B0F5804F1FD12248006820F04050A16F93
:10D7B00008431F490860A06FB0F1805F07D10221C4
:10D7C000201D05F0C1FB05466DB1A8460BE0A06F1A
:10D7D000B0F1005F07D1022104F1200005F07AFCCE
:10D7E000054605B1A846208800F40040B0F5004F7A
:10D7F00009D10F48006820F08040E16F08430C49D0
:10D800008839C1F88800206800F48030B0F5803F86
:10D810000AD10748006820F00040D4F8801008437F
:10D8200003498839C1F888004046BDE8F883000004
:10D83000881002402DE9F04104460D4614B901203C
:10D84000BDE8F0815548006800F00700A8420ED2FC
:10D850005248006820F007002843504908600846F5
:10D86000006800F00700A84201D00120E8E7207816
:10D8700000F00100002840D06068032806D1484825
:10D88000006800F00070D8B90120D9E7606802286C
:10D8900006D14348006800F4003088B90120CFE782
:10D8A000606830B93E48006800F0020040B90120CD
:10D8B000C6E73B48006800F4806008B90120BFE774
:10D8C0003748806820F00300616808433449886065
:10D8D000FEF7ECFA064608E0FEF7E8FA801B41F294
:10D8E0008831884201D90320AAE72D48806800F0DA
:10D8F0000C006168B0EB810FEED1207800F00200DF
:10D90000022807D12648806820F0F000A16808436B
:10D91000234988602148006800F00700A8420ED91A
:10D920001E48006820F0070028431C49086008468C
:10D93000006800F00700A84201D0012080E72078AD
:10D9400000F00400042807D11548806820F4E06046
:10D95000E168084312498860207800F00800082830
:10D9600008D10F48806820F46050216940EAC10066
:10D970000B49886000F0CEF809498968C1F30311AA
:10D98000084A515C01F01F01C84007490860074878
:10D990000068FEF769FC0746384651E70020024060
:10D9A000001002401C970308080100208402002098
:10D9B00010B53E48006840F001003C490860FEF7A1
:10D9C00075FA044606E0FEF771FA001B022801D939
:10D9D000032010BD3548006800F002000028F2D096
:10D9E0003248006820F0F00040F060002F490860E5
:10D9F000002088602E482F4908602F480068FEF7F5
:10DA000033FC08B10120E4E7FEF750FA044608E0D1
:10DA1000FEF74CFA001B41F28831884201D90320FD
:10DA2000D7E72248806800F00C000028F0D11F489A
:10DA30000068224908401D490860FEF737FA04468D
:10DA400006E0FEF733FA001B022801D90320C0E7E5
:10DA50001648006800F028500028F2D11349C86029
:10DA60000846C06840F48050C8600020086108463D
:10DA7000006940F480500861002048610846406910
:10DA800040F4805048610846006820F48020086017
:10DA900000208861401E086204489430006840F409
:10DAA0000000C1F89400002093E70000001002403D
:10DAB00000093D000801002084020020FFF4FEEA76
:10DAC00001480068704700000801002000B5FFF71A
:10DAD000F7FF05498968C1F30221044A515C01F04E
