:020000040800F2
:100000000040002035360008094A00080D4A000863
:1000100000000000000000000000000000000000E0
:10002000000000000000000000000000254A000859
:100030000000000000000000274A0008294A0008CC
:10004000A5360008A5360008C14C0108A5360008F1
:10005000A53600081D340108A53600081549010819
:10006000A5360008A5360008FD480108A536000899
:10007000E5A60008A5360008A5360008A536000844
:10008000A5360008A536000800000000A5360008C7
:10009000A536000865500108CDCF0008A536000838
:1000A000A5360008A5360008A5360008A5360008C4
:1000B000ED49010800000000A5360008A736000839
:0400C00049020008E9
:1000C400BFF34F8F024A034BDA60BFF34F8FFEE753
:1000D4000400FA0500ED00E082B06B46DA1D00234F
:1000E40013701378032B03D813780133DBB2F7E7CB
:1000F40002B0704770B505000A4C0B4B1B892B42AC
:1001040001D001200DE0013CFFF7E6FF002CF4D103
:10011400FFF7E2FF90231022DB059A61FFF7DCFF73
:10012400200070BD214E0000003001400120074B2B
:10013400DA68024209D1DA680018D20605D4D86810
:1001440004231840421E9041181A704700200240B0
:1001540070B505000220FFF7CDFF002801D1002073
:100164000AE0064C01202570FFF7C4FF0028F6D0F2
:1001740002202378FFF7BEFF70BDC0460C3001405B
:1001840010B5B024FFF7D2FF2403012805D1002CB9
:1001940005D0FFF7CBFF013CF7E7002C00D1052089
:1001A40010BD9023F7B510220127DB050F701A85C7
:1001B40004000E00FFF790FF0320FFF7C9FF00289B
:1001C40001D100203AE0200CC0B2FFF7C1FF0028A3
:1001D400F7D0200AC0B2FFF7BBFF0028F1D0E0B28D
:1001E400FFF7B6FF0028ECD00024250001976B46EA
:1001F4001B79134F3370002301203B70FFF77AFF04
:100204000023984202D033703B78DBB23278002A64
:100214000BD122000832002C02D11D001400E6E7A5
:10022400A34014001D43202AE1D1FFF755FF90237A
:100234001022DB059A61FFF74FFF2800FEBDC04680
:100244000C300140F0B585B00093424B98427ED10A
:10025400414B99427BD102254027404CFFF790FF48
:10026400042872D13E4E33692B4333617461336980
:100274003B433361FFF784FF3369AB43336101963A
:10028400042862D180231B01E418364B9C42E5D13B
:1002940080252D0102ABDE1C0123032733703100BE
:1002A4002800FFF77EFF33780400002B05D0013FC0
:1002B400FFB2002FF3D1002411E0032731002800FE
:1002C400FFF76FFF3378002B04D1844207D001235A
:1002D400337004E0013FFFB2002FEFD1EBE7337836
:1002E400002B32D10393FFF74BFF04282DD10122B9
:1002F400019B1B4E1B691343019A136180231B0549
:10030400A2B2EB181A80FFF73BFF04280ED1164B5C
:10031400240CEB180393039B1C80FFF731FF01228D
:10032400336993433361042805D00EE00122336915
:100334009343336109E0009B0435013B0093002B98
:1003440003D080239B029D42A4D1FFF7B9FE05B0E0
:10035400F0BDC04675E3094B42F06A81000800080D
:0C0364000020024000F801080200000820
:10080000054B0648033310B51B1A062B03D9044BBE
:10081000002B00D0984710BD68010020680100201F
:10082000000000000648074910B5091A8910CB0FCF
:100830005918491003D0044B002B00D0984710BD25
:1008400068010020680100200000000010B5074C7E
:100850002378002B09D1FFF7D3FF054B002B02D0E3
:10086000044800E000BF0123237010BD6801002090
:100870000000000084940108094B10B5002B03D040
:100880000849094800E000BF08480368002B02D16E
:10089000FFF7C8FF10BD064B002BF9D09847F7E7CC
:1008A000000000006C010020849401086801002011
:1008B0000000000002B4714649084900095C490083
:1008C0008E4402BC7047C04603B4714649084000DC
:1008D0004900095A49008E4403BC7047002243086E
:1008E0008B4274D303098B425FD3030A8B4244D3F8
:1008F000030B8B4228D3030C8B420DD3FF2209023A
:1009000012BA030C8B4202D31212090265D0030BF8
:100910008B4219D300E0090AC30B8B4201D3CB03EE
:10092000C01A5241830B8B4201D38B03C01A524130
:10093000430B8B4201D34B03C01A5241030B8B4232
:1009400001D30B03C01A5241C30A8B4201D3CB021D
:10095000C01A5241830A8B4201D38B02C01A524102
:10096000430A8B4201D34B02C01A5241030A8B4205
:1009700001D30B02C01A5241CDD2C3098B4201D31D
:10098000CB01C01A524183098B4201D38B01C01A9B
:10099000524143098B4201D34B01C01A5241030912
:1009A0008B4201D30B01C01A5241C3088B4201D3C1
:1009B000CB00C01A524183088B4201D38B00C01A6E
:1009C000524143088B4201D34B00C01A5241411A95
:1009D00000D20146524110467047FFE701B50020A2
:1009E00000F0F0F802BDC0460029F7D076E7704766
:1009F00003460B437FD4002243088B4274D3030980
:100A00008B425FD3030A8B4244D3030B8B4228D320
:100A1000030C8B420DD3FF22090212BA030C8B4246
:100A200002D31212090265D0030B8B4219D300E0E6
:100A3000090AC30B8B4201D3CB03C01A5241830B6B
:100A40008B4201D38B03C01A5241430B8B4201D31B
:100A50004B03C01A5241030B8B4201D30B03C01A44
:100A60005241C30A8B4201D3CB02C01A5241830ABE
:100A70008B4201D38B02C01A5241430A8B4201D3ED
:100A80004B02C01A5241030A8B4201D30B02C01A17
:100A90005241CDD2C3098B4201D3CB01C01A52417E
:100AA00083098B4201D38B01C01A524143098B4207
:100AB00001D34B01C01A524103098B4201D30B01F0
:100AC000C01A5241C3088B4201D3CB00C01A524115
:100AD00083088B4201D38B00C01A524143088B42DA
:100AE00001D34B00C01A5241411A00D20146524173
:100AF000104670475DE0CA0F00D04942031000D392
:100B00004042534000229C4603098B422DD3030AE6
:100B10008B4212D3FC22890112BA030A8B420CD3F6
:100B2000890192118B4208D3890192118B4204D31F
:100B300089013AD0921100E08909C3098B4201D39F
:100B4000CB01C01A524183098B4201D38B01C01AD9
:100B5000524143098B4201D34B01C01A5241030950
:100B60008B4201D30B01C01A5241C3088B4201D3FF
:100B7000CB00C01A524183088B4201D38B00C01AAC
:100B80005241D9D243088B4201D34B00C01A524183
:100B9000411A00D20146634652415B10104601D310
:100BA0004042002B00D54942704763465B1000D39A
:100BB000404201B5002000F005F802BD0029F8D040
:100BC00016E770477047C0468446101C62468C4644
:100BD000191C634600E0C0461FB501F0EDFD00287A
:100BE00001D40021C8421FBD10B501F041FD4042B3
:100BF000013010BD10B501F0DFFD002801DB002041
:100C000010BD012010BDC04610B501F0D5FD002873
:100C100001DD002010BD012010BDC04610B501F05F
:100C200067FD002801DC002010BD012010BDC0467A
:100C300010B501F05DFD002801DA002010BD012093
:100C400010BDC0468446081C6146FFE71FB500F092
:100C500047FB002801D40021C8421FBD10B500F099
:100C6000D3FA4042013010BD10B500F039FB002826
:100C700001DB002010BD012010BDC04610B500F002
:100C80002FFB002801DD002010BD012010BDC04653
:100C900010B500F0E1FA002801DC002010BD0120B1
:100CA00010BDC04610B500F0D7FA002801DA0020C8
:100CB00010BD012010BDC0469E2110B5C905041C01
:100CC000FFF7F0FF002803D1201C00F0E7FD10BD66
:100CD0009E21201CC90500F05BFC00F0DFFD802395
:100CE0001B069C466044F2E7F8B54A024302440002
:100CF0004E00C50F240E28009B09360EC90F92091D
:100D00008D4259D0A01B002800DC8DE0002E1AD1A6
:100D1000002A00D079E05A0704D00F221A40042A92
:100D200000D004335A0138D50134FF2C00D189E0BA
:100D300028009B015B0AE4B25B02E4055B0A2343E3
:100D4000C0071843F8BDFF2CE5D08021C9040A4331
:100D50001B2800DD89E016002021C640081A8240C9
:100D6000511E8A4132439B1A5A0114D59B019E0998
:100D7000300002F039FC05388640844265DC041BF3
:100D8000330020200134E340041BA640721E96412C
:100D900000243343BFE75A07BFD1DF082800FF2CE8
:100DA0002FD1002F00D187E08022D20313003B43D4
:100DB0005B025B0AFF24BFE7A11B002949DD002E6F
:100DC00029D0FF2CA7D08026F60432431B2900DD52
:100DD0008DE017002026CF40711A8A40511E8A41AB
:100DE0003A439B185A01D6D50134FF2C64D0012216
:100DF00076491A405B080B4013438CE7031ECAD1A7
:100E000000207B025B0AE4B296E701380028AAD0F2
:100E1000FF2C9DD17FE7002A00D17CE70139002912
:100E2000DFD0FF2CD2D176E7002820D1601CC0B2E1
:100E3000012853DD80279E1AFF0437402FD0D61A91
:100E40000D0095E72800002376E7614B241A334014
:100E500061E700294DD1611CCEB2012E2FDDFF29A3
:100E60002AD09B185B080C0055E701227BE7002C79
:100E70001BD1002B5BD0C04300280CD0FF2E7ED0AE
:100E80001B2800DD92E01D002024C540201A83406D
:100E9000581E83412B43D31A34000D0064E7002E03
:100EA00000D065E700200024ABE7FF2E67D0802448
:100EB000E40440422343E3E7FF2400233CE7002C03
:100EC00061D1002B7ED0002A00D124E79B185A0163
:100ED00000D460E73E4A0C0013401CE7002C1ED1F2
:100EE000002B2FD1002A66D013000D0013E701223A
:100EF00077E7002C1FD1002B5AD0C94300290BD013
:100F0000FF2E50D01B295FDC1F002024CF40611A28
:100F10008B40591E8B413B439B18340062E7002BEA
:100F20001CD1002A4AD013000D00FF24F3E6130061
:100F300034000D00EFE6FF2E35D08024E404494252
:100F40002343DFE7002A00D1E5E68027981AFF0453
:100F5000074000D152E7D31A0D00DCE6FF24002A37
:100F600000D1D8E68020DB08C003034204D0D208B9
:100F7000024201D113000D00DB00FF24CBE6130079
:100F8000FF240D00C7E6002B0DD0FF24002A00D15E
:100F9000C1E68021DB08C9030B42EDD0D2080A422A
:100FA000EAD11300E8E71300FF24B4E6012372E757
:100FB00013003400AFE60027002022E7802700203E
:100FC000FF03F1E61300A6E60123A5E7FFFFFF7D7F
:100FD000FFFFFFFBF0B5564644465F464D46F0B472
:100FE00044024600C70F83B08846650A360EBA46EB
:100FF0003DD0FF2E22D00023EC00802599469B4651
:10100000ED0425437F3E43465C025800DB0F640A33
:10101000000E984636D0FF2830D080230021E4000F
:10102000DB041C437F38301A01904846424608438F
:10103000724E800030587A4013008746002D44D10C
:1010400008239946063B9B46DDE70122FF2000244A
:101050001A406402C305640AD2071C4314432000EB
:1010600003B03CBC90469946A246AB46F0BD002D6D
:1010700020D104239946033B9B46C4E7002C17D19B
:10108000022102E0002C0AD10121321A01924A46C3
:1010900043460A435A48920082587B4097462000B4
:1010A00002F0A2FA431F76309C4040420021BAE78A
:1010B0000321B8E7280002F097FA431F9D40002360
:1010C0007630464299469B469DE70C239946093B5C
:1010D0009B4698E780240022E403FF20B9E7002420
:1010E000C2468B465A465346022AAED0032A7DD0CA
:1010F000012A31D1012200201A400024A9E701224F
:10110000101A1B2856DD1A4000200024A1E7802376
:10111000DB031D424BD18023DB032B435C02640ABB
:101120003A00FF2095E76D016001854230D2019AB7
:101130000024013A01921B220127290064006D005E
:10114000002901DBA84201D82D1A3C43013A002AAC
:10115000F3D16A1E95412C4301987F300028CEDDE3
:10116000620704D00F222240042A00D00434220156
:1011700003D5244A019814408030FE2800DD64E73E
:101180000122A401640AC0B21A4062E72C00A9E758
:101190002D1A1A220124CFE76B02BCD5002480232C
:1011A000DB031C436402640A4246FF2051E71C42F1
:1011B000B3D1F4E721002022C140101A8440621EFE
:1011C00094410C43620704D00F222240042A00D02D
:1011D0000434620104D5012201201A40002438E7BA
:1011E0000122A401640A1A40002032E78023DB03B5
:1011F0001C436402640A5246FF202AE78C8E0108D1
:10120000CC8E0108FFFFFFF7430270B542004C008F
:101210005D0AC30F4802120E460A240EC90FFF2AA8
:101220000FD0FF2C11D00120A24200D070BDB542DA
:10123000FCD18B420DD0002AF8D12800431E9841E2
:10124000F4E70120002DF1D1EBE70120002EEDD1D4
:10125000E9E70020EAE7C0464302F0B542005D0A34
:10126000C30F4802440A4800120E000EC90FFF2A9D
:101270001FD0FF2822D0002A09D16E426E410028DB
:101280000FD1002C0DD10020002D09D005E0002841
:1012900001D1002C01D08B4213D0584201231843B6
:1012A000F0BD002EF7D04842414101204942084399
:1012B000F6E7002DDDD002204042F1E7002CDAD025
:1012C000F9E78242E9DC04DBA542E6D80020A5422A
:1012D000E6D25842434101205B421843E0E7C04652
:1012E0004302F0B542004C005E0AC30F4802120EE2
:1012F000450A240EC90FFF2A17D0FF2C19D0002A47
:101300000BD170427041002C17D0002807D0484202
:101310004141012049420843F0BD002C13D08B42CB
:1013200014D0584201231843F6E70220002EF3D1CF
:10133000E3E70220002DEFD1E1E7002DE5D1002009
:10134000002EE9D0EDE7002DE9D1EAE7A242E8DC82
:1013500004DBAE42E5D80020AE42DDD25842434124
:1013600001205B421843D7E7F0B557464E46454645
:101370004300E0B446028846760A1F0EC40F002FD1
:1013800047D0FF2F25D0002380259A469946F600A6
:10139000ED042E437F3F434642465D02D20F5B0081
:1013A0006D0A1B0E904640D0FF2B39D080220020C2
:1013B000ED00D20415437F3BFB1842465746591CAB
:1013C00062408C4607430F2F5CD86F49BF00C95954
:1013D0008F46002E45D108239A46063B9946DAE708
:1013E000424602282DD0032800D1C3E0012800D0B6
:1013F000A2E0002500260240D4B27602ED05760A6E
:101400002E43E407264330001CBC90469946A24672
:10141000F0BD002E1AD104239A46033B9946BAE741
:101420002A00511E8A41901CC6E70120002DC3D01E
:10143000280002F0D9F8431F76309D404342002037
:10144000BAE70124FF2514400026D6E7300002F059
:10145000CBF8431F9E400023763047429A46994678
:1014600099E70C239A46093B994694E78026002485
:10147000F603FF25C1E735004846B2E735002200F4
:101480004846AEE72904090C0800370C3604360C30
:101490002C0C7943704367437443060C6418361967
:1014A000B14203D980214902884647440004000C18
:1014B000310409188D01681E8541890E2943350CB8
:1014C000ED19AD010D43290104D5012369081D4023
:1014D00063460D4319007F31002925DD680704D0DC
:1014E0000F202840042800D00435280103D52749BF
:1014F00080330D401900FE29A3DC0124AD016E0AE2
:101500001440CDB279E78020C003064207D00542DF
:1015100005D128434602760A4446FF256DE7064377
:101520007602760AFF2568E70124611A1B2905DD8A
:1015300014400025002660E76346CBE72E002023F9
:10154000CE40591A8D406B1E9D412E43730704D027
:101550000F233340042B00D00436730104D501243B
:1015600001251440002648E70124B601760A1440FC
:10157000002542E780260124F6032E437602760AF0
:101580001440FF2539E7C0460C8F0108FFFFFFF725
:10159000F8B54A024E0043024400240EC50F9B09D1
:1015A000360EC90F9209FF2E00D183E00120414081
:1015B000A01BA9425CD0002800DC95E0002E1CD1C5
:1015C000002A00D081E05A0704D00F221A40042AD2
:1015D00000D004335A013BD50134FF2C00D191E0F7
:1015E00001209B015B0AE4B205405B02E4055B0A53
:1015F000ED0723432B431800F8BDFF2CE3D08021D7
:10160000C9040A431B2800DD90E016002021C640D3
:10161000081A8240511E8A4132439B1A5A0115D53D
:101620009B019E09300001F0DFFF053886408442AF
:101630006CDC041B330020200134E340041BA64073
:10164000721E964100243343BDE70D005A07BCD1FA
:10165000DF0801231D40FF2C33D1002F00D190E083
:101660008022D20313003B435B025B0AFF24BCE7EA
:1016700000284FDD002E2ED0FF2CA4D08025ED04B5
:101680002A431B2800DD97E016002025C640281AB3
:101690008240501E824132439B185A01D5D50134F5
:1016A000FF2C6DD001227B481A405B080340134396
:1016B0000D0088E7002A00D07AE777E7031EC5D13E
:1016C00000257B025B0AE4B28FE701380028A4D032
:1016D000FF2C97D177E7002A00D174E70138002862
:1016E000DAD0FF2CCDD16EE7002821D1601CC0B22A
:1016F000012858DD80279E1AFF0437402FD0D61AC4
:101700000D008FE701231D4000236EE7624B241A72
:10171000334058E7002851D1601CC6B2012E33DD9A
:10172000FF282DD09B185B0804004CE7012274E7CA
:10173000002C1AD0FF2E1FD08024E4044042234303
:101740001B2800DD96E01D002024C540201A8340A0
:10175000581E83412B43D31A34000D005EE7002E40
:1017600000D05FE700250024ABE7002B44D0C04346
:101770000028F0D0FF2EE3D11300FF240D0022E754
:101780000D00FF24002330E7002C5DD1002B7DD01D
:10179000002A00D117E79B185A0100D456E73E4AA9
:1017A000040013400FE7002C1ED1002B2FD1002A7C
:1017B00065D013000D0006E701226DE7002C1FD154
:1017C000002B59D0C04300280BD0FF2E4FD01B2830
:1017D0005EDC1D002024C540201A8340581E834132
:1017E0002B439B18340058E7002B1CD1002A49D00A
:1017F00013000D00FF24E6E6130034000D00E2E6BE
:10180000FF2E34D08024E40440422343DFE7002A43
:1018100000D1D8E68027981AFF04074000D14DE791
:10182000D31A0D00CFE6FF24002A00D1CBE680209A
:10183000DB08C003034204D0D208024201D11300E6
:101840000D00DB00FF24BEE6002B10D0FF24002A91
:1018500000D1B8E68020DB08C003034203D0D208E1
:10186000024200D11300DB000D00FF24ABE61300A1
:10187000FF24A8E601236EE713003400A3E6002747
:1018800000251EE780270025FF03E9E613009AE6FE
:101890000123A6E7FFFFFF7DFFFFFFFB4302590A7D
:1018A0004300C20F1B0E00207E2B0EDD9D2B0DDC96
:1018B000802000040143952B0BDC9620C31AD940ED
:1018C0000B005842002A00D118007047034BD01873
:1018D000FBE7963B99400B00F3E7C046FFFFFF7F15
:1018E00070B5002830D0C317C5185D40C40F28005C
:1018F00001F07AFE9E231B1A962B0DDC9622D21A3B
:1019000095406A02520AD8B25202C005520AE40750
:1019100002432243100070BD992B19DC9922D21A80
:101920009540124A2A40690704D00F210D40042D2A
:1019300000D00432510103D50C4B1A409F231B1ACF
:101940009201520AD8B2DFE7002400200022DBE730
:1019500005222E00121AB921D6402A00C91A8A403F
:10196000551EAA4135001543DBE7C046FFFFFFFBCC
:1019700070B5041E28D001F037FE9E231B1A962B4B
:101980000ADC9622D21A94406202520AD8B252025B
:10199000520AC005104370BD992B18DC9922D21A47
:1019A0009440114A2240610704D00F210C40042CBE
:1019B00000D00432510103D50B4B1A409F231B1A50
:1019C0009201520AD8B2E2E700200022DFE70522A6
:1019D0002500121AB921D5402200C91A8A40541E86
:1019E000A2412C001443DCE7FFFFFFFBF8B556468D
:1019F0005F464D464446F0B40F00FD0FAA4609036A
:101A00007C002E005F00450F490A7F0D2943C50069
:101A10001803BC46400A570F640DDB0F3843D20051
:101A20009A4500D1AAE06646A61B002E00DCFFE026
:101A30006346002B39D10300134300D0D9E06B0774
:101A400009D00F232B40042B05D02B1DAB42AD41F9
:101A50006D4249191D000B0200D482E0CA4B0134CB
:101A60009C4200D1FEE00A005646C84BED081A40E1
:101A70005007640552020543120B640D0021120346
:101A80000B0D1B056405120B1A436308C04CF607C7
:101A900014401C43640064083443280021003CBC0B
:101AA00090469946A246AB46F8BDB74B9C42C6D07D
:101AB00080231B041843382E00DDEBE01F2E00DDD1
:101AC0001EE120239B1B9C4603006746BB409846B3
:101AD00013004746F3403B436746BA40571EBA419E
:101AE00013430200F240EB1A9D42B6411D008A1AD0
:101AF0007642911B0B0231D54A02560A002E00D1C4
:101B0000B4E0300001F070FD0300083B1F2B00DD46
:101B1000B5E020222900D21AD1409E400A009D4003
:101B200032439C4200DDB1E01C1B631C1F2B00DD17
:101B3000D5E0202114002800C91A8C40D8408D40DF
:101B40000443DA40681E854111002543002476E7EE
:101B50004146314300D134E2310045466B0700D0A5
:101B60006FE756464807ED08C9080543864B9C4277
:101B700035D00A036405120B640D7FE76346E31A50
:101B80009B46002B00DC8BE06746002F3CD07E4F4D
:101B9000BC4200D153E780273F0438435B46382BD3
:101BA00000DCF7E00243501E82410020D2B25319FC
:101BB0004218AB4289411D00494289180B02CDD51C
:101BC000714B01349C4200D13DE101206F4A6B080A
:101BD0000A4028401843D507054351082FE72B003A
:101BE0000B4300D1CBE180231B030B431A03120BE1
:101BF00044E7013E002E6DD1AE1AB5429B41091A51
:101C00005B42C91A350075E70700174300D116E794
:101C100001235B429C46E3445B46002B00D0E0E09E
:101C2000AA18AA429B4109185B4259181500C5E73A
:101C3000002E75D1661C7605760D012E00DCF3E0D2
:101C4000AE1AB0464545BF410E1A7F42F61B370219
:101C500000D48FE0551BAA42B641411A76428E1B32
:101C60009A464BE756460022002507E7280001F078
:101C7000BBFC20300300083B1F2B00DC49E72A0097
:101C80002838824000259C4200DC4DE73F49E41A99
:101C90001140D4E60243501E8241D3B2002222E713
:101CA000002B00D0F3E0631C9C465B055B0D012B11
:101CB00000DC9FE0344B9C4500D1C3E0AA18091812
:101CC000AA42804140424118CD07520815434908B5
:101CD0006446B4E62C4B9C4200D0ECE6AFE6110023
:101CE0001F3CE1400C00202B00D17FE04021CB1AAB
:101CF0009A4015436A1E95410021254300242DE793
:101D000033000700203BDF403B00202E70D04027EF
:101D1000BE1BB0400243501E824113430022E2E644
:101D2000002C4FD0184CA44500D1ABE080242404F3
:101D300076422143382E00DDDFE01F2E00DD43E137
:101D40002027BC1BA1460C004F46BC40A0462C00DF
:101D50004746F4403C434F46BD406F1EBD41F140F5
:101D60002C43151BAA429241411A5242891A6446D9
:101D70009A46BFE641464546314300D0BEE60026BE
:101D800000240025F2E6C046FF070000FFFF7FFFAA
:101D9000FFFF0F801F2B59DC2027FF1ABC460700CE
:101DA00063469F405B46B9461700DF40B8464F4642
:101DB00043461F4363469A40531E9A415B463A434B
:101DC000D840F4E60C002C435CD0F643002E55D1ED
:101DD000551BAA42A441411A6442091B9A46644613
:101DE00088E6964FBC4200D0D8E628E6002280E77D
:101DF00000208FE70B002B43002C00D0C2E0002B0B
:101E000000D101E10300134300D118E6AB18AB4247
:101E1000B6410918764271180A0200D409E1884ACD
:101E20001D00114064460AE6002C5BD10E002E43D3
:101E300000D08AE00100114300D1C2E0010015008A
:101E40009A46FCE56446002100258FE620235B428C
:101E50009C46DC4463460700DF405B46BC46202BC3
:101E600000D1ACE040235F46DB1B98400243501E8C
:101E70008241634613431A00002098E66F4CA44544
:101E800000D057E70100150064469A46D7E5002CBC
:101E900039D10C002C436ED0DB43002B1AD0674C99
:101EA000A44568D0382B00DDA4E01F2B00DDAEE098
:101EB00020240F00E41AA740B9462F00DF40B8469F
:101EC000A3464F46444627435C46A5406C1EA541A9
:101ED000D9403D43AD1895429B4109185B425918C2
:101EE00064466BE60C002C4315D1010011437BD0F6
:101EF000010015009A46514CA1E50D43691E8D4124
:101F00000021ECB22DE74D4CA44534D080242404AC
:101F10005B422143C6E7040014434ED0ED084C0752
:101F20002C438025C9082D03294208D0C6082E421B
:101F300005D1D208410711430C009A463100620FC7
:101F4000C900E50011433D4C79E50600164300D178
:101F500075E5AE1AB0464545BF410E1A7F42F61BE5
:101F6000370200D4F4E5551BAA42B641411A764225
:101F7000891B9A4663E50100150064465FE500226F
:101F800000257BE5002B3BD00300134315D0ED0863
:101F90004B072B438025C9082D03294207D0C408CD
:101FA0002C4204D141070B002100D2081343C90081
:101FB0005A0F1143DD00214C41E5204C3FE5002044
:101FC00054E700260025D1E534000F00203CE7400F
:101FD0003C00202E2BD04027BE1BB1400D43691E74
:101FE0008D4100212C43BCE6802100260903134CBF
:101FF0000025BBE50D43691E8D410021EDB269E767
:10200000010015000D4C1AE50100150017E51C0034
:102010000F00203CE7403C00202B0CD04027FB1A4F
:1020200099400D43691E8D410021254352E700214F
:10203000D4E71D0092E50021F3E7C046FF0700004A
:10204000FFFF7FFFF0B556464D4644465F46F0B46D
:102050001D000E034C00CB0F87B00700924681464F
:10206000360B640D98466AD06D4B9C4235D0802269
:10207000430F12041343F6001E43C3009946694BF5
:1020800000279C460023644402932B0368001B0B2B
:10209000ED0F51469B46400D009500D178E0604B16
:1020A00098426CD05B46DA004B0F802109040B4349
:1020B00013439B465346D9005A4B9C460023604429
:1020C0004246201A6A40924601901F430F2F00D9C2
:1020D000B0E05548BF00C0598746374300D088E07C
:1020E000002399460233082700260293CDE7434692
:1020F000B34649460093029B009A9246022B00D0B9
:10210000BFE1002153460122002689461A40444B74
:10211000002136030C0D2405360B2643434C1B05CA
:1021200026401E437600D207760816434846310003
:1021300007B03CBC90469946A246AB46F0BD330082
:1021400003434FD0002E00D1BCE1300001F04CFA27
:1021500003000B3B1C2B00DDADE11D220100D31A57
:1021600008393A008F408E40DA40B9461643304B6A
:1021700000279C46002360444442029385E753466F
:102180005A4613432CD1002300219B46023397E784
:102190000B4320D05B46002B00D19EE1584601F056
:1021A00023FA03000B3B1C2B00DD8FE10200594694
:1021B000083A91408B461D21CB1A5146D9400B005D
:1021C00059460B4351469B469140194B9C466044EF
:1021D0004042002374E7002300219B4601336FE750
:1021E00003236DE700239946013304270026029359
:1021F0004BE703230C27029347E70122D51A382D1A
:1022000000DCB0E153461A40002100230026894635
:102210007EE700238026994600223603004B77E7AD
:10222000FF07000001FCFFFF4C8F0108FFFF0F803C
:10223000F30300005E4500D972E100D16DE1019B1E
:102240004D46013B01930023340002935B461E027E
:102250000B0E1E430B020393330C994633041B0CE5
:10226000494620000093FEF739FB009B37004343AB
:102270000600494620009846FEF7B6FB2C0C0904E0
:102280000C43A04509D9E419731EA74200D95CE1AB
:10229000A04500D859E1023EE4194346E41A4946F4
:1022A0002000FEF71BFB0300009A8046534349467B
:1022B00020009B46FEF798FB2A040904120C0A43EF
:1022C00093450DD94346D219013B974200D93AE1D3
:1022D000934500D837E102235B429C46D219E04483
:1022E0005B46D21A4346360433439B460399180C87
:1022F0000B0C1D00059309045B46090C0C001B0424
:102300001B0C4443049159436B4368431B190D0C48
:10231000EB189C4203D980246402A44660441C0C40
:1023200009041B04090C20185D18824200D2DEE06B
:1023300000D1D7E0161A029B9C465D1BAC459B4121
:102340005B42F61AB74200D106E149463000FEF77B
:10235000C5FA009B04004343494630009846FEF707
:1023600043FB2E0C09040E43B04509D9F619631E30
:10237000B74200D9F3E0B04500D8F0E0023CF619CE
:102380004346F31A494618000293FEF7A7FA009B4A
:1023900006004343494602989846FEF725FB2D0464
:1023A00009042D0C0D43A84509D9ED19731EAF4240
:1023B00000D9D6E0A84500D8D3E0023EED192404A8
:1023C000210043463143049E059A3000ED1A0B0468
:1023D0000C0C1B0C58436643534354439A19030C8B
:1023E0009B189E4203D980225202944664441A0CE0
:1023F00000041B04000C14191B18A54250D34DD027
:1024000001231943964A019B94466344002B00DC48
:10241000F3E64A0709D00F220A40042A05D00A1D14
:102420008A42894149428B4411005A46D20108D55B
:102430005A468C4B1A4093468022D2009446019B08
:102440006344894A934200DD5BE65A46C908500757
:1024500008435602514601225B058146360B5B0D4F
:102460000A4055E680231B031E4211D05A461A42E9
:102470000ED15E461E433603360B2A0089467B4B3F
:1024800046E6032B00D1E1E0012BBBD11A40BBE6AD
:102490001E433603360B4246744B39E6002BB1D04F
:1024A0007D194A1EAF4252D91100A542A8D1039A04
:1024B0009A42A5D1A6E703003E00283B9E40002398
:1024C000994654E601F090F8203041E60300524668
:1024D000283B9A400021934677E6504601F084F865
:1024E00020305EE6029B0026AB4200D323E7039E2A
:1024F0000299B44661448846B045B6415B4676428F
:10250000F619B218013B0291974213D290424FD86C
:1025100000D18EE0161A9B460DE7894500D28EE663
:1025200074084B46F60735005B081D434B46DB0736
:1025300002938BE69742EDD10399029CA142E5D923
:102540003E1A9B46F7E69846CAE61E00A5E6AC4250
:102550003ED874D0110053E70121494252E71C00D4
:102560000EE71E002BE71F2D3CDC20230A005846F7
:102570005B1B9840EA4099400243481E81415E46F9
:102580001143EE404B0709D00F230B40042B05D01D
:102590000B00191D99429B415B42F61833023CD552
:1025A0005346012200211A40002601238946AFE547
:1025B00002235B429C46039CE344A446029B634483
:1025C0009846A045B6417642F6190293B218B1E694
:1025D00003988A1E41008142B6417642F619AD1930
:1025E000039161E71F225242D31A5A46DA40130080
:1025F000202D29D040225846551BA8400143481E93
:10260000814107200B4318400026002809D00F22E3
:1026100000261A401900042ABBD10B00700776026D
:10262000360BDB0803439946012253461A40002328
:102630006EE502998D42BBD89B4600267BE6039847
:102640009842C5D3110032E70020D7E780265B46C9
:1026500036031E433603360B009A8946034B57E573
:10266000FF030000FFFFFFFEFE070000FF07000062
:10267000F0B55F4656464D464446F0B41F035C0035
:10268000DB0F9A46194B0E034D00C90F8046360BDF
:102690006D0D8B4691463F0B640D9D4219D0134B37
:1026A0009C421BD00123A54206D018003CBC90469A
:1026B0009946A246AB46F0BDBE42F6D1C845F4D11C
:1026C000D34510D0002DF0D1304303005A1E934162
:1026D000EBE7310001230143E7D1E0E73A4301236F
:1026E000002AE2D1DEE70023DFE7C046FF07000053
:1026F000F0B55F46444656464D46F0B41F033C0BCA
:102700002C4F0E034D00A3465C008446360B6D0D26
:10271000C90F9046640DDB0FBD422BD0254FBC4244
:102720002ED0002D0ED130430700814678427841EB
:10273000002C17D15F463A4314D14B460020002BA2
:102740000AD006E0002C02D15846024301D099423B
:102750001AD00123484218433CBC90469946A246F1
:10276000AB46F0BD0028F2D0584258410122404209
:102770001043F1E737000743D0D002204042EBE797
:102780005F461743CDD0F8E7A542E2DC05DB5E45A6
:10279000DFD808D000205E45DED248424841012300
:1027A00040421843D8E7C445D3D80020C445F4D3E9
:1027B000D2E7C046FF070000F0B55F464D464446ED
:1027C0005646F0B41C03240BA4462F4C0F034D00B7
:1027D0005E00C90F80463F0B6D0D8B469146760D0E
:1027E000DB0FA54220D0284CA64222D0002D12D1CA
:1027F000384344424441002E20D0002C0DD05C428E
:10280000634101245B421C4320003CBC9046994636
:10281000A246AB46F0BD002E17D05B4519D05B46F3
:102820005C4201231C43EFE7390002240143EBD152
:10283000D9E7614602241143E6D1D7E761460A434E
:10284000DBD100240028DFD0E9E761460A43E4D168
:10285000E5E7B54203DD01225C421443D4E7B5420B
:10286000CDDB6745DBD809D000246745CCD259467B
:102870004C426141012449420C43C5E7C845CED8CA
:102880000024C845F3D3BFE7FF070000F0B55F465B
:1028900056464D464446F0B40D0399464E002B0B68
:1028A00087B00700924680469B46760DCC0F002EDF
:1028B00069D06D4B9E4235D05B468022DD0012040C
:1028C000430F13432B439B46C3009846674B002797
:1028D0009C460023664401934A4615035000D20FDC
:1028E00053462D0B400D914600D176E05E4A904252
:1028F0006CD080225B0F120413435C4AED009446B7
:102900001D4353460022DB00604449463618701CC4
:102910006140029017430F2F00D9AFE05448BF0029
:10292000C759BF465B461F4300D088E000239B4643
:102930009846023308270193CEE74946022A6AD017
:10294000032A00D109E2012A00D0BBE11140002294
:10295000002300259046CCB200212D030A0D12055C
:102960002D0B1543434A1B0515401D436D00E4071D
:102970006D0825434046290007B03CBC9046994667
:10298000A246AB46F0BD034352D05B46002B00D1BC
:102990008AE1584600F028FE03000B3B1C2B00DDAB
:1029A0007BE11D22D31A3A0001005D46DA40083966
:1029B0008D4013008F402B439B46B8462E4B00277B
:1029C0009C46002360444642019385E752462A43D1
:1029D0002CD100250023022297E752462A4321D01A
:1029E000002D00D154E1280000F0FEFD03000B3B58
:1029F0001C2B00DD46E11D21CB1A51460200D940B7
:102A00005346083A954093400D431B4A9446604410
:102A10004042002279E7012400220C40124B00259D
:102A2000904699E70025002301226EE703226CE718
:102A300000239B4698460133042701934CE7032368
:102A40000C27019348E700238025984600242D0396
:102A5000054B81E75D464346019A6FE75D46434675
:102A60002100019A6AE7C046FF07000001FCFFFF52
:102A70008C8F0108FFFF0F80F30300004246120C09
:102A800091461A0C9446424617044A461B041B0CF6
:102A90005A43604690464A464243100003926246BB
:102AA0001C003F0C7A437C4342440192220C924624
:102AB000019A5244904506D98246802040028046C1
:102AC000C24450460390100C049048462404240C41
:102AD0001204121905922A0C2D042D0C68432C00A7
:102AE000824648467C4350438146200C80465743EB
:102AF00057444744BA4503D9802040028046C14428
:102B0000380C3F04B84648442404240C019004982F
:102B1000A044404404905846000C814658460404A2
:102B2000200C8246070048465F434C4643436046BC
:102B300060436446834650464443380C8446E41858
:102B40006444A34203D980235B029C46E344484685
:102B50003F04230C3F0C2404E419574668436F4399
:102B600084464D46504655434243380C81466244A4
:102B70004A445B44944503D980204002844665441E
:102B800003983F04834604983F0C8446E344C345BE
:102B9000804140428246100484460198674484463E
:102BA0006744A344BC46A345A4419946D444644227
:102BB0008742BF41D4458041E144A04699459B41AD
:102BC0007F424042C8440743120CBA18A045A441B2
:102BD0005F423B0064422343D71843467D19DB0D17
:102BE0006D021D435B465A02059B1A43531E9A41D0
:102BF0005B46DB0D1A4343465B021343EA0107D5EC
:102C000001225C0813402343EA07029E13436D0828
:102C1000574AB218002A4BDD580709D00F20184038
:102C2000042805D0181D98429B415B42ED18030013
:102C3000E80104D54F4A15408022D200B2184E4810
:102C4000824200DDE7E60124DB08680718436D02D5
:102C5000530580462D0B5B0D0C407DE680225946C6
:102C60001203114208D0154206D115432D03984690
:102C70002D0B4C46414B6FE65D4615432D032D0B46
:102C80003E4B69E603005546283B9D400023BCE6C9
:102C9000504600F0A9FC2030A8E60300283B9F40E6
:102CA0000023BB46984689E600F09EFC203073E680
:102CB0000124A61A382E07DD00220C40002300252F
:102CC000904649E6029EA3E71F2E20DC20222C001E
:102CD0001800921BF040944093400443581E8341D7
:102CE0001C43F540630709D00F232340042B05D074
:102CF00023001C1D9C4292415242AD182B021FD54D
:102D0000012400220C4001230025904624E61F20C8
:102D10002C004042821AD440202E1CD04022961B08
:102D2000B5402B43581E83410720234318400025FC
:102D3000002809D00F2200251A401C00042AD8D1EF
:102D4000230068076D022D0B0124DB08034398461E
:102D50000C40002300E60025E3E780220124120353
:102D600015432D0398462D0B0C40044BF4E5C0464B
:102D7000FF030000FFFFFFFEFE070000FF0700004B
:102D8000F0B557464E464546E0B40E001100F20F2E
:102D90009246C500420F180337037400400A4E0FD5
:102DA0007F0A3043CF4E17435A00640D520DDB0F9C
:102DB000C900B24200D1E5E001267340A61AB4462C
:102DC000534500D1AFE0002E00DC0DE1002A3AD1DE
:102DD00003000B4300D0E4E06B0709D00F232B4026
:102DE000042B05D02B1DAB42AD416D427F191D0058
:102DF0003B0200D488E0BB4B01349C4200D110E17F
:102E00003A00B94B51461A4001235007ED085202CF
:102E100064050543120B640D0B40002128001203CA
:102E20000D0D120B64052D0515436208AF4CDB0731
:102E30002C401443640064081C4321001CBC9046D1
:102E40009946A246F0BDA74B9C42C5D080231B04E7
:102E500018436346382B00DDFDE01F2B00DD30E119
:102E6000624620239B1A02009A40664690460A005A
:102E70009940F24046464B1E994132431143634606
:102E80000200DA40691A8D429B410D00BA1A5B427A
:102E9000D71A3B0235D57A02530A98464346002B8F
:102EA00000D1C4E0404600F09FFB0300083B1F2B0D
:102EB00000DDC5E020222900D21A4746D1409F40BC
:102EC0000A009D403A439C4200DDC0E01C1B631C8D
:102ED0001F2B00DDE4E0202114002800C91AD8408F
:102EE0008C408D400443DA40681E8541170025431D
:102EF000002471E7424663461A4300D14CE267461C
:102F000045466B0700D069E7012351467807ED0875
:102F1000FA080B40054373498C4238D0120364050C
:102F2000120B640D79E7002E00DC9AE0002A47D0EE
:102F30006C4A944200D14FE780221204104362464B
:102F4000382A00DC08E10143481E81410022C9B251
:102F50004919D219A942BF410D007F42BF183A0258
:102F600000D442E15F4A0134944200D14EE1012095
:102F70005D4A69083A4028400843D5070543570889
:102F80009A4629E706000E4300D017E714E7290008
:102F9000114300D1F9E1802109030A431203120B06
:102FA0003BE701235B429846C4446346002B72D141
:102FB000691A8D429B413F1A5B42FF1A0D0068E778
:102FC00002000A4300D107E7012252429046C4445E
:102FD0006246002A00D0E6E06918A942B6413F18CF
:102FE0007642F7190D00BAE7002E00D080E0621C8F
:102FF0005205520D012A00DCF9E06A1A91464D454E
:10300000B6413A1A7642921B9046120200D499E0D9
:103010004D1BA9428941C71B49427A1A90469A46DC
:103020003CE752460123002513400022F5E6280024
:1030300000F0DAFA20300300083B1F2B00DC39E7F0
:103040002A002838824000259C4200DC3EE7264FBB
:10305000E41A1740C0E60143481E81410022C9B26C
:1030600010E7002E00D0F1E0621C94465205520D8C
:10307000012A00DCA0E01B4A944500D1C5E0691894
:10308000A94292413F185242D2194908D5070D432F
:1030900057086446A0E6134B9C4200D0D9E69BE655
:1030A00011001F3CE1400C00202B00D180E04021AA
:1030B000CB1A9A4015436A1E9541002725430024E8
:1030C0001FE763460200203BDA406346202B71D0A5
:1030D000402366469B1B98400143481E8141114393
:1030E0000022CFE6FF070000FFFF7FFFFFFF0F80FA
:1030F000002C48D0CA4CA24200D1A2E07442A146A2
:103100008024240427434C46382C00DDDBE01F2CB0
:1031100000DD44E14E462024A41B3E00A640A2460A
:10312000B0464C462E00E640B4464646644626432A
:103130005446A5406C1EA54134002C434D46EF403B
:103140000D1B28E04A4643464D461A4300D0A5E6EB
:10315000002300240025DEE61F2A5ADC66462022D2
:10316000921B060096409146B04662460E00D6403D
:10317000424616434A4691404A1E9141020060462B
:103180003143C240E4E63C002C435AD0F443A1460C
:10319000002C52D14D1BA9428941C71B49427F1ABD
:1031A00014009A4675E69E4A944200D0C7E613E69C
:1031B00000227FE700208FE7002C00D0C8E03B0012
:1031C0002B4300D10FE103000B4300D104E6691843
:1031D000A9429B413F185B42DF193B0200D41AE130
:1031E000904B0D001F406446F6E59A4689E63A008A
:1031F0002A43002C5CD1002A75D102000A4300D179
:10320000CAE007000D009A46E6E564460022002564
:1032100081E662460600203AD6406246B046202A41
:1032200000D1B7E040226646921B904001434246DF
:10323000481E8141114300228AE6794CA24200D007
:1032400061E707000D0014009A46C5E5002C41D146
:103250003C002C4378D0F443A146002C20D0704C85
:10326000A24271D04C46382C00DDB2E01F2C00DDAC
:10327000BCE02026341BA2463C005646B4404E46D5
:10328000A0462C00F440A446444666463443A44677
:103290005446A54064466E1EB54125434C46E74062
:1032A0006D188D4289413F184942CF19140056E6E6
:1032B000002A2FD102000A4300D184E007000D004C
:1032C0009A46574C88E53D436F1EBD41ECB200273E
:1032D0000D1B60E7524CA24236D074428026360461
:1032E000A1463743BEE702000A4300D174E56A1ADB
:1032F00090464545B6413A1A7642921B94461202D0
:1033000000D4F7E54D1BA9428941C71B49427F1AEA
:103310009A4661E502000A433AD0ED087C072C4347
:103320008025FA082D032A4208D0C7082F4205D16C
:1033300045072C003A009A46C9080C43670FD20093
:10334000E5001743364C47E507000D00140043E540
:103350003A002A4343D002000A4319D0ED087C0703
:103360002C438025FA082D032A4207D0C6082E4296
:1033700004D147073C003200C9080C43D700620F54
:10338000E50017439A46264C26E50022002544E531
:10339000234C21E5002049E700230025BBE54C46EE
:1033A0003E00203CE6404C46B446202C31D0402420
:1033B0004E46A61BB7403D436C1EA54164462C43B8
:1033C00000270D1BE7E6802200231203144C002582
:1033D000A1E53D436F1EBD410027EDB260E7070048
:1033E0000D000F4CF8E407000D00F5E44E463C00DC
:1033F000203EF440A0464C46202C0ED040244E46A1
:10340000A41BA7403D436F1EBD41444600272543F2
:1034100046E70027CFE70D0073E50027F2E7C04637
:10342000FF070000FFFF7FFF4200120E511C430206
:10343000C9B270B55D0AC40F012915DDE02189000C
:103440008C466D071B0B6244002128000D0D2D05D5
:103450002B431C4D52052B40520813435B00E407DD
:103460005B082343190070BD002A15D1002D1FD021
:10347000280000F0B9F80A281DDC0B232A001B1ACB
:10348000DA4013000200153295400F4A1B03121A4E
:1034900052051B0B520DD7E7002D06D080221B0BC7
:1034A000120313436D07094ACEE7084A0023CBE70E
:1034B00000220023C8E703000B3B9D402B000025A2
:1034C000E3E7C046FFFF0F8089030000FF0700000D
:1034D0004B0070B55E0D0C03751C640A420F6D0540
:1034E0002243C90FC4006D0D012D2ADD3B4BF3189B
:1034F000FE2B1ADC002B42DD8001451EA841D200C4
:103500001043620F0243500704D00F2010400428DC
:1035100000D004328020C004104021D00133FF2BA2
:1035200003D09201520ADBB201E0FF2300225202D3
:10353000520ADB0513435B00C9075B080B43180005
:1035400070BD002E07D01443EFD08020D20080043D
:103550000243FF23D7E722430023002A03D005229A
:10356000D208FF2B03D05202520ADBB2DFE7002A57
:1035700032D08020C00302435202520AD7E718001B
:10358000173014DB8020000402431E20C01A1F28BD
:103590000FDC2500124BF3189D406E1EB5419A407A
:1035A0002B0013432200C2401A430023ABE7002341
:1035B000D5E702256D42EB1A1500DD40202809D021
:1035C000084BF3189A401443621E944122000023D2
:1035D0002A4398E70022F6E70022A8E780FCFFFFD5
:1035E00082FCFFFFA2FCFFFF1C2101231B04984269
:1035F00001D3000C10391B0A984201D3000A083984
:103600001B09984201D30009043902A2105C40183A
:103610007047C046040302020101010100000000DE
:10362000000000000023C25C0133002AFBD1581EB9
:10363000704700001348854604200168090E1F22C8
:10364000914205D11048012101601048002101601C
:10365000002103E00E4B5B58435004310D480E4BE4
:1036600042189A42F6D30D4A02E000231360043256
:103670000B4B9A42F9D301F0DBF915F065F903F031
:10368000E1FEFEE70040002018100240000001406B
:10369000BC9401080000002068010020680100209F
:1036A00010380020FEE710B502F020FC10BD00002D
:1036B00010B5024BDB68984710BDC04608000020DB
:1036C0000022014B1A70704784010020014B1878CA
:1036D0007047C04684010020014801307047C04651
:1036E0008401002070B5104C0600217800200729C5
:1036F00018D9651C280001F01DF92278AB5C002B5D
:1037000003D1AB185B78002B02D00020207009E0B9
:10371000D9B28A4203D9595DF1540133F8E7002345
:103720000120237070BDC0468401002070B50024C4
:10373000094B41181A785E1C884208D0FF2A06D02F
:103740000478551CB45401300124EAB2F4E7002C8B
:1037500000D01A7070BDC0468401002010B5064824
:1037600002F032FA80200021000403F02BFA00203E
:1037700003F0F4F810BDC0468402002010B5034BDE
:10378000034A0449044801F0B0FA10BD3800002093
:10379000780000201C00002084020020802010B54A
:1037A0000121000403F00EFA002003F005F9802047
:1037B0000121000503F006FA8020800502F020FDBB
:1037C000012002F011FD012002F002FD10BD1F23B7
:1037D00007B501A803701E3B4370837003F020F807
:1037E00007BD10B5FFF7F3FF10BD1F2307B501A8F4
:1037F00003701E3B43700023837003F011F807BD74
:1038000000207047F0B50027094B411888420CD0C2
:103810001C68084E621C1A600578355580246400C7
:10382000A24200D11F600130F0E70020F0BDC04689
:10383000580500206405002010B5FFF777FF002031
:1038400010BD000010B5202814D0212825D1144B1C
:103850001A780A701A68120A4A701A68120C8A706A
:103860001A68120ECA701A790A715A794A719B79CC
:103870008B7112E04A780C788B78120222431B0479
:1038800013431A00CB781B061343054A13600B79C8
:1038900013714B7953718B799371002010BDC04621
:1038A0000000002000207047122301480B80704761
:1038B000C6890108042302480B8012307047C046B5
:1038C000C689010810B5044C0A000448210001F023
:1038D000FAFB200010BDC046FD030020CC8F01087C
:1038E00010B5044C0A000448210001F0ECFB200054
:1038F00010BDC046FD030020F18F010810B5044C37
:103900000A000448210001F0DEFB200010BDC04683
:10391000FD0300200590010810B5044C0A0004487E
:10392000210001F0D0FB200010BDC046FD030020A7
:103930001290010810B5044C0A000448210001F05F
:10394000C2FB200010BDC046FD0300201D900108F1
:10395000704700000821054A13689BB20B431360AF
:10396000136804399BB20B4313607047405C0040FE
:103970000421044A13689BB28B431360BF231B02CC
:1039800013607047405C004010B5244C072800D0FD
:1039900020702078C0B205283DD8FCF78BFF030BC0
:1039A00012161F2A6368002B02D1FFF7E1FF32E0F5
:1039B000052331E0FFF7DCFF04232370033B636042
:1039C0002BE002236370013326E06378013BDBB216
:1039D00063706378002B20D104331DE01021104A5E
:1039E00013689BB20B43136005232370DB186370CD
:1039F00013E06378013BDBB263706278D2B2002AD5
:103A00000BD1102006490B689BB283430B60062341
:103A10002370626001E00623237010BDEC030020D8
:103A2000405C00407047704710B548200BF094FA96
:103A3000BFF34F8F024A034BDA60BFF34F8FFEE7AD
:103A40000400FA0500ED00E07047704730B585B01E
:103A500001AC0121102003F0B5F8200003F0E8FAD2
:103A6000084B094D63600F232380002321002800A9
:103A70002381638003F0A0FA0821280003F0E8FA0C
:103A800005B030BDFFFF000000100040012110B55F
:103A9000054B1A8A8A431A820022D8625A62180099
:103AA00003F0DEFA10BDC0460010004010B5054C12
:103AB0000021200003F0D4FA0122238A93432382B9
:103AC00010BDC04600100040024B188A0123184068
:103AD0007047C0460010004010B50348012102F0B5
:103AE0004FFE002010BDC04600540040A0220C4BE9
:103AF000120210B51A6004001868FFF7C7FF210012
:103B0000084802F062FE002806D0FFF7DDFF00281B
:103B1000F5D08022044B1A70FFF7C8FF002010BDBB
:103B20004C00002000540040F4030020A0220C4B65
:103B3000120210B51A6004001868FFF7A7FF2100F1
:103B4000084802F042FE002806D1FFF7BDFF00281A
:103B5000F5D08022044B1A70FFF7A8FF002010BD9B
:103B60004C00002000540040F40300202A4B73B5A1
:103B70001B7806000D00002B08D180200002FFF703
:103B8000B5FF264C2378002B07D038E00FF048FE15
:103B9000030000208342F0D03DE080229201009299
:103BA000D42101221E4802F0F9FD0220FFF7BEFFDA
:103BB0002378002B23D13100194802F001FE402068
:103BC000FFF7B4FF2378002B19D190239B010093BA
:103BD000802301229B04D421114802F0DFFD042040
:103BE000FFF7A4FF2378002B09D10D4802F0EAFD6E
:103BF00028702020FFF79AFF2378002B02D0FFF7D0
:103C00006BFF08E02021064802F0E6FD0FF008FEF9
:103C100001235840C0B276BD4A340020F40300208E
:103C20000054004073B50600802000020D00FFF72D
:103C30005DFF1F4C2378002B31D180239B01009323
:103C4000802301225B04D4211A4802F0A7FD022040
:103C5000FFF76CFF2378002B21D13100154802F0CB
:103C6000AFFD8020FFF762FF2378002B17D1009370
:103C7000802301229B04D4210E4802F08FFD0220F4
:103C8000FFF754FF2378002B09D12900094802F0DF
:103C900097FD2020FFF74AFF2378002B02D0FFF783
:103CA0001BFF04E00348202102F096FD012076BDB1
:103CB000F40300200054004037B56B46DD1D290099
:103CC00004000F20FFF752FF29002020FFF74EFFCE
:103CD0000300002083420CD00F23297824011940CF
:103CE0000C43E1B220302970FFF79CFF431E98413E
:103CF000C0B23EBD37B56B46DC1D0500210020205B
:103D0000FFF734FF0300002083421AD0012D0BD0AF
:103D1000854205D0022D14D108222378934307E071
:103D200008222378934304E00F2223789343073A31
:103D30001343237021782020FFF774FF431E98411E
:103D4000C0B23EBD37B56B46DC1D0500210020200A
:103D5000FFF70CFF0300002083420AD007232178DD
:103D60002030994329432170FFF75CFF431E98419F
:103D7000C0B23EBD37B56B46DD1D040029002320CF
:103D8000FFF7F4FE0300002083420CD03023297893
:103D9000240199430C43E1B223302970FFF742FF1D
:103DA000431E9841C0B23EBD73B56B469D1D0400D5
:103DB00029002820FFF7DAFE002801D1002032E098
:103DC0006B46DE1D31002920FFF7D0FE0028F5D01C
:103DD00033782A781B0213431BB2236029002A2060
:103DE000FFF7C4FE0028E9D031002B20FFF7BEFE0C
:103DF0000028E3D033782A781B0213431BB2636098
:103E000029002C20FFF7B2FE0028D7D031002D204A
:103E1000FFF7ACFE0028D1D0012033782A781B02AE
:103E200013431BB2A36076BD10B501003120FFF72C
:103E30009DFE431E9841C0B210BD000010B503485E
:103E4000012102F09DFC002010BDC046005400403E
:103E500010B50400A0200B4B00021860FFF716FEFF
:103E60002100094802F0B1FC002806D0FFF72CFE23
:103E70000028F5D08022054B1A70FFF717FE0020AE
:103E800010BDC0465000002000540040F503002043
:103E900010B50400A0200B4B00021860FFF7F6FDE0
:103EA0002100094802F091FC002806D1FFF70CFE22
:103EB0000028F5D08022054B1A70FFF7F7FD00208F
:103EC00010BDC0465000002000540040F503002003
:103ED0002B4BF7B51B7804000E001500002B08D102
:103EE00080200002FFF7B4FF264F3B78002B07D05D
:103EF00039E00FF095FC030000208342F0D03EE053
:103F00008022A4B292010092210001221E4802F0F8
:103F100045FC0220FFF7BCFF3B78002B23D131008A
:103F2000194802F04DFC4020FFF7B2FF3B78002B10
:103F300019D190239B010093802301229B0421002F
:103F4000114802F02BFC0420FFF7A2FF3B78002B66
:103F500009D10D4802F036FC28702020FFF798FFA9
:103F60003B78002B02D0FFF769FF08E020210648CC
:103F700002F032FC0FF054FC01235840C0B2FEBDE9
:103F80004A340020F503002000540040F7B5050036
:103F9000802000020F001600FFF75AFF1F4C237805
:103FA000002B32D180239B0100938023ADB25B04B0
:103FB000012229001A4802F0F1FB0220FFF768FFF6
:103FC0002378002B21D13900154802F0F9FB80201D
:103FD000FFF75EFF2378002B17D100938023012287
:103FE0009B0429000E4802F0D9FB0220FFF750FF86
:103FF0002378002B09D13100094802F0E1FB202091
:10400000FFF746FF2378002B02D0FFF717FF04E0ED
:104010000348202102F0E0FB0120FEBDF503002053
:104020000054004037B56B46DD1D04002A002021F6
:104030003220FFF74DFF0300002083420DD00F23F5
:104040002A7824011A401443E2B2202132302A7027
:10405000FFF79CFF431E9841C0B23EBD37B56B468B
:10406000DD1D002104002A003C20FFF731FF002164
:1040700088420CD07F232A78A4009A431443E2B2EA
:104080003C202A70FFF782FF411E8841C1B2080020
:104090003EBD37B56B46DD1D002104002A003C20E3
:1040A000FFF716FF002188420CD07F232A78E40115
:1040B0001A401443E2B23C202A70FFF767FF411E0A
:1040C0008841C1B208003EBD37B56B46DD1D040016
:1040D0002A0001213C20FFF7FBFE03000020834261
:1040E00009D06401E2B201213C302A70FFF74EFF93
:1040F000431E9841C0B23EBD37B56B46DD1D04007E
:104100002A0002213C20FFF7E3FE03000020834247
:1041100008D0220002213C302C70FFF737FF431EED
:104120009841C0B23EBD000073B56B469C1D0600B1
:10413000220020213220FFF7CBFE00283FD06B4623
:10414000DD1D2A0023213220FFF7C2FE002836D0D1
:1041500023780F211A008A4304D11A4A52788A43DD
:1041600013432370012E12D0002E09D0022E26D127
:1041700008222378934323702B78934313430DE055
:104180002278104B5A700F231340237007E0082247
:1041900023789343134323702B7893432B70227817
:1041A00020213220FFF7F2FE002808D02A782321B0
:1041B0003220FFF7EBFE431E9841C0B200E0002022
:1041C00076BDC046F503002037B56B46DC1D050003
:1041D000220020213220FFF77BFE030000208342D3
:1041E0000CD022780730824328400243202132201D
:1041F0002270FFF7CBFE431E9841C0B23EBD37B5DB
:104200006B46DD1D04002A0023213220FFF760FEEB
:104210000300002083420DD030232A7824019A43E2
:104220001443E2B2232132302A70FFF7AFFE431E5F
:104230009841C0B23EBD37B56B46DD1D04002A0073
:1042400023213220FFF744FE0300002083420DD0DB
:104250007F232A78E4011A401443E2B2232132304A
:104260002A70FFF793FE431E9841C0B23EBD37B59A
:104270006B46DD1D04002A0023213220FFF728FEB3
:104280000300002083420DD040232A78A4019A43E2
:104290001443E2B2232132302A70FFF777FE431E27
:1042A0009841C0B23EBD37B56B46DD1D04002A0003
:1042B00021213220FFF70CFE0300002083420DD0A5
:1042C00004232A78A4009A431443E2B22121323015
:1042D0002A70FFF75BFE431E9841C0B23EBD37B562
:1042E0006B46DC1D0500220021213220FFF7F0FD86
:1042F0000300002083420BD00123227821219A431E
:104300002A4332302270FFF741FE431E9841C0B26B
:104310003EBD37B56B46DD1D04002A002121322049
:10432000FFF7D6FD0300002083420DD002232A7838
:1043300064009A431443E2B2212132302A70FFF71D
:1043400025FE431E9841C0B23EBD37B56B46DD1D0C
:1043500004002A0021213220FFF7BAFD03000020CB
:1043600083420DD03F232A78A4011A401443E2B2BD
:10437000212132302A70FFF709FE431E9841C0B256
:104380003EBD37B5041E032C01D9002016E06B4654
:10439000DD1D2A0021213220FFF79AFD0028F4D0EC
:1043A00030232A7824019A431443E2B22121322097
:1043B0002A70FFF7EBFD431E9841C0B23EBD37B5F2
:1043C0006B46DD1D04002A0021213220FFF780FD0D
:1043D0000300002083420DD008232A78E4009A438A
:1043E0001443E2B2212132302A70FFF7CFFD431E81
:1043F0009841C0B23EBD37B56B46DD1D2A000400B2
:1044000039213220FFF764FD0022904246D02B78FC
:10441000590602D42270013240E0082099061FD5C7
:10442000042103420DD00B4201D0C4230CE0012132
:10443000980701D5C22302E00B422FD0C12323707D
:104440002BE00B4203D044232370012226E00121FC
:10445000980701D54223F2E70B421FD04123EEE734
:10446000042103420CD00B4201D08423ECE701214C
:10447000980701D58223E2E70B420FD08123DEE7C4
:104480000B4201D02170E0E702200121034201D05C
:10449000207002E00B4201D021700A0010003EBDE6
:1044A00007B56B463121DA1D3220FFF711FD431E9F
:1044B0009841C0B20EBD37B5031E042B21D16B4607
:1044C000DC1D22002E213220FFF702FD002801D141
:1044D0000020B2E01F2322782E211A4032202270C1
:1044E000FFF754FD0028F3D0220024213220FFF7EB
:1044F000EFFC0028ECD04023227824219A4322703C
:1045000021E0002826D16B46DC1D22002421322028
:10451000FFF7DEFC0028DBD04023227824219A43D9
:104520001A4332202270FFF731FD0028D0D022003C
:104530002E213220FFF7CCFC0028C9D01F232E21CA
:1045400022781A4022703220FFF720FD0028BFD0C9
:10455000012072E001281FD16B46DC1D22002421BE
:104560003220FFF7B5FC0028B2D040252278242164
:10457000AA432A4332202270FFF708FD0028A7D063
:1045800022002E213220FFF7A3FC0028A0D01F23F9
:1045900022781A402A4348E0022820D16B46DC1DCD
:1045A000220024213220FFF793FC002890D04023E2
:1045B000227824219A431A4332202270FFF7E6FC26
:1045C000002885D022002E213220FFF781FC002810
:1045D00000D17DE71F2322781A40613324E00120B7
:1045E000032B2AD16B46DC1D220024213130FFF73A
:1045F0006FFC002800D16BE74023227824219A43E6
:104600001A4332202270FFF7C1FC002800D15FE777
:1046100022002E213220FFF75BFC002800D157E753
:104620001F2322781A40A1331A432E2132202270F0
:10463000FFF7ACFC431E9841C0B23EBDF7B56B46D8
:104640009E1D0400320028213220FFF741FC002883
:1046500001D1002044E06B46DF1D3A0029213220C1
:10466000FFF736FC0028F4D00F253B7832781B0288
:1046700013431BB2DA172A40D3181B1123603200F0
:104680002A213220FFF724FC0028E2D03A002B2117
:104690003220FFF71DFC0028DBD03B7832781B026C
:1046A00013431BB2DA172A40D3181B116360320080
:1046B0002C213220FFF70CFC0028CAD03A002D2113
:1046C0003220FFF705FC0028C3D001203B78327868
:1046D0001B021A4313B2DA171540EB181B11A36023
:1046E000FEBD73B56B469C1D0600220004213C20D4
:1046F000FFF7EEFB002801D1002034E06B46DD1D02
:104700002A0003213C20FFF7E3FB0028F4D02B789C
:1047100022781B0213433380220008213C20FFF73C
:10472000D7FB0028E8D02A0007213C20FFF7D0FB68
:104730000028E1D02B7822781B02134373802200DB
:1047400006213C20FFF7C4FB0028D5D02A00052114
:104750003C20FFF7BDFB0028CED001202B7822782B
:104760001B021343B38076BD10B502003121322005
:10477000FFF7AEFB431E9841C0B210BD031C2828B2
:1047800000D92823024ADBB29B0098587047C046E4
:10479000DC89010810B51549FCF7E6FDFA21890509
:1047A000041CFCF7A1FA12F043F9FA218905FCF781
:1047B0009BFA011C201CFCF7EBFE0021041CFCF7FB
:1047C00071FA002803D0FC21201C890504E0802315
:1047D000FC211B06E0188905FCF7DAFE8321C905D8
:1047E000FCF7C2FD211CFCF7BFFD10BD83F9223E82
:1047F000F7B500240C4F061CA500E3B2311CE859A4
:104800000193FCF73BFA002806D07D196968301C3B
:10481000FCF72AFA002804D10134282CECD100201E
:1048200000E00198FEBDC046DC890108F0B58FB0FC
:1048300003900491101C0021141C05920193FCF7B5
:1048400013FA002806D080231B06E41801230594E0
:10485000029300E0029005A9059812F037F9061CB2
:104860000A20019B5D1CEDB22C000300013CE4B268
:10487000002C01D05843F9E7FDF77AF8311CFCF71A
:1048800073FDFCF719FA0A210700FCF727F80A2143
:1048900006003800FCF7A8F804238B4289414942FE
:1048A0007618019B9C420ED030000A21FCF79CF840
:1048B0003000CFB20A21FCF711F8303706ABE754CD
:1048C00006000134EDE7002E05D0FE21059889058C
:1048D000FCF70AFA05902E23019A06AEB354059808
:1048E000FCF7EAF9070038000A21FCF77DF83800E8
:1048F000CCB20A21FBF7F2FF30346B1C0700DBB2AD
:104900007455002801D01D00EDE7029A002A03D05B
:104910002D220235F254EBB2049A9818C0B2C21A92
:10492000013BDBB2F15C039CD2B2A154002BF6D167
:104930000FB0F0BDF0B50A000025154B1C88154BD3
:10494000002A1CD08D1A465DFF251D401B0A1B0244
:104950006E40F518ABB2082501261E40B4466746E6
:104960005E10B3B2002F02D00B4B5E40B3B2013DDC
:10497000EDB2002DF0D1013AD2B20135E0E7002DC1
:1049800000D01C1C44544118240A4C70F0BDC04691
:104990002C900108FFFF000001A0FFFF0F23034040
:1049A00018003730092B01D8303318007047002326
:1049B00082B0019001AA9A5CCA540133042BF9D148
:1049C00002B070470023CA5CC2540133042BFAD1F1
:1049D00070470B7803704B784370704782B06B461A
:1049E000DA1D002313701378032B03D813780133D7
:1049F000DBB2F7E702B07047024B8000C0180068D6
:104A00007047C046ACF7FF1F70470000BFF34F8FE1
:104A1000024A034BDA60BFF34F8FFEE70400FA054A
:104A200000ED00E07047704710B510F09DFA10BD22
:104A300070B501252F4C002623682B432360626844
:104A40002D4B1340636022682C4B13402360226877
:104A50002B4B1340236062682A4B13400F22636084
:104A6000E36A9343E362226B274B13402363636B38
:104A7000AB436363A66010F079FC244BA84237D1A6
:104A80001121234A1E701160626862606268626070
:104A90006168204A0A4098216260626849030A43BB
:104AA00080216260226849040A43802122601A4AF8
:104AB00089042068084204D1013A002AF9D102325F
:104AC0001A7003210C2062688A43626062680139AF
:104AD0000A436260104A61680140082909D0013A1E
:104AE000002AF8D11A78022A03D003221A7000E0B3
:104AF0001D7070BD001002400CB8FF08FFFFF6FEED
:104B0000FFFFFBFFFFFFC0FFACFEFFFFB000002078
:104B100000200240FF7FC0FF41420F00030010B59C
:104B20000400FC331B6E1B699847E3780020A370D8
:104B300010BD10B58378C37004238370FC30036EFE
:104B4000DB689847002010BD0300FC33DB6D10B517
:104B5000DB69002B00D09847002010BD002210B563
:104B600011004023040000F029FE802300221900D8
:104B7000200000F023FE002340221900200000F056
:104B800038FE402280210023200000F032FE012365
:104B9000207BA370FC34236E5B689847002010BD17
:104BA00013B56946040000F071FA6B4619781F23AB
:104BB0000B40012B0DD0002B06D0022B0ED16946E5
:104BC000200000F006FA0EE06946200000F0FCF834
:104BD00009E06946200000F0DDF904E07F232000B1
:104BE000994300F057FF002016BD0000F8B50400FF
:104BF0000D1E39D14378022B2BD1426B466AB2424B
:104C000006D9921B4263816A92B200F0A9F835E09E
:104C1000876B31003800FBF7E7FE0D1E0AD1BE425C
:104C200008D8E36B9F4205D20A00200000F098F8F4
:104C3000E56323E02300FC33DB6DDB68002B04D04D
:104C4000A278032A01D120009847200000F0B1F893
:104C500014E0042B12D10A4E316800290ED0C9B2DB
:104C600000F072FF356009E00300FC33DB6D5B6927
:104C7000002B03D08278032A00D198470020F8BD8A
:104C8000F803002010B50400002922D14378032B3B
:104C900029D10200B832D369D06883420AD91B1ADD
:104CA000D361116982B2984200D99AB2200000F013
:104CB0006EF818E02300FC33DB6D1B69002B04D079
:104CC000A278032A01D120009847200000F067F85D
:104CD00009E00300FC33DB6D9B69002B03D0827875
:104CE000032A00D19847002010BDF7B50400250025
:104CF00017001E000191FEF751FD019BFC356B660C
:104D0000EF652E66FEF724FE200000F02BFD2B6ED3
:104D10001B689847200000F04BFF2000FEF761FD64
:104D2000F7BD10B50400FC34E36D1B689847236E93
:104D30009B689847002010BD030010B5FC33DB6D65
:104D40005B689847002010BD10B513008263426372
:104D5000022242700A00002100F04FFE002010BD28
:104D600010B513000A00002100F047FE002010BD1E
:104D700013000200D83210B5043A536013600322C6
:104D800042700A00002100F0FAFD002010BD10B5AD
:104D900013000A00002100F0F2FD002010BD0423E2
:104DA00010B5437000231A00190000F026FE002001
:104DB00010BD052310B5437000231A00190000F040
:104DC000DEFD002010BD000073B5040048780D0022
:104DD000092800D9D5E0FBF76DFDACCBD4BCD45E7F
:104DE00005D49D764B8818120138062800D9C8E0F2
:104DF000FBF760FD04121BC7C7C7C7002300FC33C5
:104E00005B6E01AE1B68207B31009847EB88402B1E
:104E100030D1383B33802DE02600FC36F36D207B0B
:104E20001B6A01A99847B06624E0D8B2052800D9CA
:104E3000A7E02200E368FC32FBF73CFD03070B0F01
:104E40001317D8B2536E5B6812E0D8B2536E9B68EA
:104E50000EE0D8B2536EDB680AE0D8B2536E1B691D
:104E600006E0D8B2536E5B6902E0D8B2536E9B691C
:104E700001A9984701AE3188002900D185E0EA8870
:104E8000002A00D181E00B1C914200D9131C9AB278
:104E90003380010049E08B88002B72D1CB88002B36
:104EA0006FD14D887F331D40A378032B69D0384BD9
:104EB000257120001D60FFF772FF0223002D00D135
:104EC0000123A37061E08978314D2971012958D8F7
:104ED000A378022B02D0032B07D052E0002943D045
:104EE000012103232170A37010E0002906D10223C1
:104EF0002170A3702000FFF71FFF35E02178012902
:104F000032D02000FFF718FF297921702000FFF729
:104F100008FF29E0CA8800210191012A32D1A37833
:104F2000022B14D0032B2DD121002000FFF70CFF02
:104F30002BE00021A3780191023B012B22D8012311
:104F40000193A3688B4201D003230193022201A99C
:104F5000EBE74B88012B18D1A3602300FC33DB6DFA
:104F600029009B68200098472000FFF718FF0CE0FD
:104F7000A378023B012B04D84B88012B05D10023D9
:104F8000EAE70021200000F085FD002076BDC04644
:104F9000F803002070B5837804000E00032B11D1B4
:104FA0000B79012B0ED80300FC33DB6D9B6898470F
:104FB000F3880500002B0AD1002808D12000FFF754
:104FC000EEFE04E00021200000F064FD0025280032
:104FD00070BD37B500220D00019204006B788888FF
:104FE000C1B2012B11D0934229D0032B4CD1A3780D
:104FF000022B2AD0032B20D16B88002B12D14B0619
:1050000010D0200000F046FD0CE0A378022B1CD04D
:10501000032B12D16B88002B04D14B0602D0200049
:1050200000F06CFD2300FC33DB6D29009B68200041
:1050300098472000FFF7B3FE26E0110021E0A27898
:10504000022A02D0032A03D01AE04B0619D11BE032
:105050002823020609D57F2211404B43E3189B7E8B
:10506000002B07D00123019304E059436118BA31A2
:105070000B78F5E7022201A92000FFF765FE03E0A7
:105080001900200000F006FD00203EBD037C0B70DF
:10509000437C4B70C37C827C1B02D3184B80437DC6
:1050A000027D1B02D3188B80C37D827D1B02D31827
:1050B0009BB2CB80C36301234370704710B50021BE
:1050C00000F0E8FC10BD30B50023002818D0C45C07
:1050D0005D1C002C01D02B00F9E7DBB25B00023332
:1050E00013800B7003234B70013B0578002D07D014
:1050F0005A1CCD54D2B202330130DBB28C54F4E7E7
:1051000030BD000070B5074C2068FF2807D0064B63
:10511000064A191D95681A68A847FF2323600020D6
:1051200070BDC04674000020FC0400200800002070
:10513000432301480B807047808A010810B5C023C3
:1051400000228121040000F039FB802300225B0053
:105150008221200000F032FB882300225B00032123
:10516000200000F02BFB022340228121200000F0D0
:1051700040FB022340220321200000F03AFB0822DA
:1051800082210323200000F034FB064B1B68984764
:10519000054A40230C320321200000F0F0FB0020E0
:1051A00010BDC04608000020FC040020282370B574
:1051B000040059434118084DD0310968074B0C359C
:1051C000280089B21B6998472A0040230321200048
:1051D00000F0D5FB002070BDFC040020080000207A
:1051E00010B50400812100F086FB0321200000F0AF
:1051F00082FB8221200000F07EFB024B5B68984717
:10520000002010BD08000020F8B560240B780600CF
:105210000D001C4028D0202C22D1CC884878002CAE
:1052200018D05BB22449002B0BDA244B0F1D22004F
:1052300039009B689847EA8839003000FFF784FD01
:1052400006E01F4B10C1186022003000FFF790FDF0
:1052500000242FE0194B22009B682100984729E089
:10526000FFF72CFF022425E04B780A2B13D00B2BE1
:1052700018D0062B1ED14B8812491B12212B07D1A7
:10528000EB881A1C3A2B00D93A2292B2123105E06F
:1052900009313A2202E0012207494C313000FFF780
:1052A00053FD07E08B78002B02D1034BDC6401E057
:1052B000FFF704FF2000F8BDFC04002008000020D8
:1052C00074000020808A0108204A70B5136D110017
:1052D000002B02D00133136536E013655432127887
:1052E000012A31D080228C6D5200944200D18B650E
:1052F0008C6DCB6D9C4203D1002354310B7023E0A5
:105300009C4202D9121B0A6601E01B1B0B660B6E46
:10531000A2B2402B05D9403B40340B668C6540233C
:1053200009E0E4188C6500240C66402B01D09BB288
:1053300001E001244C660C000125683154348A18C0
:105340008121257000F059FB002070BDFC04002075
:10535000154B70B51C00543422781900012A20D155
:105360001A6E002A08D1596E012903D15A6680317C
:10537000130014E0227014E09B6D9CB2402A05D902
:105380004033403A8B650A66402305E08D6D93B249
:1053900052198A6500220A6668310A19812100F0D3
:1053A0002CFB002070BDC046FC040020014B18609F
:1053B0007047C046405C0040014B18607047C046D3
:1053C000445C004007239843014B18607047C04677
:1053D000505C0040024B8000C018006880B27047EB
:1053E000005C00400B00054A800080180168044AF8
:1053F0001140194389B201607047C046005C00400B
:105400008F89FFFF084B8000C0180268074B1340CC
:105410001022114200D053402022114200D05340AC
:10542000034A134303607047005C0040BF8F0000D5
:1054300080800000094B8000C0180268084B1340B0
:1054400080225201114200D0534080229201114229
:1054500000D05340034A134303607047005C004090
:105460008FBF000080800000044B8000C0180268DD
:10547000034B1340034A134303607047005C004032
:105480000F0E000080810000044B8000C0180268ED
:10549000034B1340034A134303607047005C004012
:1054A0000F0F000080C00000044B8000C01802688D
:1054B000034B1340034A134303607047005C0040F2
:1054C0000F0F0000C0800000064B8000C01803686A
:1054D0005B0405D50268044B1340044A1343036080
:1054E0007047C046005C00400F0F000080C0000005
:1054F000064B8000C01803685B0605D50268044BA4
:105500001340044A134303607047C046005C0040E8
:105510000F0F0000C0800000044BC0001B689BB24E
:10552000C018034BC01801807047C046505C004053
:10553000026000400C4BC0001B689BB218180B4B5C
:10554000C0183E2908D94B09CA0601D1013B9BB2BC
:10555000074A9B02134304E04B08CA0700D50133F6
:105560009B0203807047C046505C004006600040CC
:105570000080FFFF30B5094DC0002B68084C9BB27E
:10558000C3181B190124A14319802B68A2439BB2A5
:10559000C018044BC018028030BDC046505C0040AB
:1055A0000060004004600040054BC0001B689BB2D7
:1055B000C018044BC0180123994301807047C046AE
:1055C000505C00400060004010B5FFF7EDFF10BDDB
:1055D000054BC0001B689BB2C018044BC0180123C8
:1055E000994301807047C046505C00400460004011
:1055F00010B5FFF7EDFF10BD30B500291FD1204CCD
:10560000C00021681F4B89B20918C9183E2A08D961
:105610005309D50601D1013B9BB21B4D9B022B4385
:1056200004E05308D50700D501339B020B802368A3
:105630009BB21818154BC0183E2A11D819E0012941
:105640001DD10F49C0000B680E4C9BB2C3181B192B
:105650001A800B689BB2C0180C4BC01802800EE079
:105660005309D20601D1013B9BB2074A9B02134367
:1056700004E05308D20700D501339B02038030BDFC
:10568000505C0040026000400080FFFF0660004068
:10569000054BC0001B689BB2C018044BC0180088A3
:1056A0008005800D7047C046505C0040026000409D
:1056B00010B5FFF7EDFF10BD054BC0001B689BB296
:1056C000C018044BC01800888005800D7047C04684
:1056D000505C00400660004010B5FFF7EDFF10BDC4
:1056E000002907D1094B8000C0180268084B1340FD
:1056F000084A08E0012908D1044B8000C01802685C
:10570000034B1340044A134303607047005C00409E
:105710000F0F0000C080000080C0000010B5084BD3
:105720000132091A5210C918002A07D043780478A8
:105730001B0223434352013A0230F5E710BDC04635
:1057400000600040064B0132091A5210C918002AA5
:1057500004D0435A013A03800230F8E77047C0464C
:105760000060004010B50300002401201C719870F7
:105770009C60D860FFF71AFE2000FFF717FE20009C
:10578000FFF71AFE2000FFF71DFEBF20024B0002AC
:105790001860FFF70BFE10BDA806002010B501230E
:1057A0000024044A044913600C60032111608370D3
:1057B00010BDC046405C0040445C004070B57F2591
:1057C00028240E0605D529404C43210018314418E1
:1057D00003E00D406C43B8340419002A02D1A272D0
:1057E000A38004E00122E3801B0CA272238100202D
:1057F00070BDB0B57F25282480270D4065430F403C
:105800002C00002F05D018344519041901206876A2
:1058100004E04519B834B93504192F70E2607F22CD
:105820000A40E370227002D16262E26122620021CA
:1058300021616161A161A170032B10D81800FBF7F1
:1058400039F8020905078021890005E0002103E0FD
:10585000C02100E08021C9001000FFF7C3FDA37A3A
:105860002078002B18D16378A188002B07D0FFF790
:10587000ABFE2078FFF73CFE2078202126E0FFF7E2
:10588000B7FEA1892078FFF755FE2078FFF71CFEB0
:10589000C021207889012AE0FFF7E6FD20782289DF
:1058A000E188FFF767FE65782078002D11D1FFF7BA
:1058B0000BFE2078FFF71CFE2078FFF7F5FDC021D6
:1058C00020788901FFF7B6FD29002078FFF79AFDBF
:1058D0000FE0FFF7F9FD2078FFF70AFE2078FFF7C9
:1058E000D3FD20780021FFF78DFD00212078FFF700
:1058F000A1FD0020B0BD4AB270B52823002A05DA08
:105900007F2421404B431833C41802E04B43B83383
:10591000C418A67A65782078002E0BD1002D04D00B
:10592000FFF7E6FD2078310014E0FFF7CDFD207889
:10593000290020E0002D10D1FFF7C6FD2078FFF7E9
:10594000D7FD2078FFF7B0FD20782900FFF772FD22
:1059500029002078FFF756FD0FE0FFF7B5FD20780E
:10596000FFF7C6FD2078FFF78FFD20780021FFF7B5
:1059700049FD00212078FFF75DFD002070BD73B563
:1059800005007F2001405738484328180C000100CB
:10599000C8310A6002000026CC321360C4308E6029
:1059A000016801968B4204D9019101995B1A136039
:1059B00001E00193166028236343EB181A001800D6
:1059C000C2321278B830002A05D10199007889B224
:1059D000FFF7B0FD06E0019AB93392B2197800786A
:1059E000FFF70AFE28214C43C0212D19B83528782D
:1059F0008901FFF71FFD002076BDF7B57F24070062
:105A000000202140573C4C433C19A262626A01903D
:105A10000E002176E3622063934204D90192019A39
:105A20009B1AE36201E00193E062282575437D192A
:105A3000EB1C019ADB7F92B2002B09D1A98BA06AE3
:105A4000FFF76CFE0199287E89B2FFF765FD17E02C
:105A5000287E697EFFF7D0FD287EFFF7BBFC43065A
:105A600001D5298C00E0E98B019AA06A92B2FFF778
:105A700055FE28237343FB18597E187EFFF730FE2E
:105A800028214E43BF19387E0831FFF7BBFC0020A8
:105A9000FEBD00004AB210B52823002A04DA7F2296
:105AA00011404B43183301E04B43B833C118087819
:105AB00000280BD10D4A0E4B106803400D4843409F
:105AC0000D480343136001238B700CE001234A78D7
:105AD0008B70002A03D01021FFF794FC03E0802193
:105AE0004901FFF7A7FC002010BDC046005C004044
:105AF000BFBF000010100000808000004AB270B5E7
:105B00002823002A05DA7F2421404B431833C41888
:105B100002E04B43B833C41865782078002D08D0D4
:105B2000FFF7E6FC20783021FFF76CFC0023A37020
:105B300007E0FFF7C9FCC02120788901FFF77AFC54
:105B4000A570002070BD000010B501710E480F4B0C
:105B500002680F4C1A40224302600E480E4C026845
:105B60001A40224302600D480D4C02681A4022433D
:105B700002600C4A106803400B4803431360802303
:105B800019430A4B196010BD005C00400F0F000064
:105B900080800000045C004081800000085C0040C0
:105BA000828000000C5C0040838000004C5C004060
:105BB0008021044A090213680B4313600123837098
:105BC0007047C046585C0040034A044B11680B40C4
:105BD0001360002383707047585C0040FF7FFFFF15
:105BE0000023F0B585B002AAD380B44B1A6803AB8A
:105BF00091B21980120400D45DE10F211A8811407E
:105C0000009100D082E01C881023AD4D1C4011D1C2
:105C10002A68AC4B13402B60AB4D287EFFF748FD44
:105C2000AB6A28631818A94BA8621B6821005B683F
:105C300028003AE12B6802AA9BB2D380D3881B05C7
:105C400019D5A14C2300B8331878FFF745FD230080
:105C5000D03318602300BC33020019889C48FFF73A
:105C600071FD2A689B4B200013402B60974B1B68EB
:105C70009B689847B9E702ABDB881BB2002BB4DA0C
:105C80002A68944B904C13402B602300B83318784B
:105C90002700FFF721FDD037021E38600BD023000C
:105CA0002600BC33C83619883068FFF74BFD3268D0
:105CB0003B68D3183360854B00211B6820001B68AC
:105CC0009847854BC4341A682168844B92B2D21825
:105CD0003E2909D94B099BB2C90601D1013B9BB2B0
:105CE0007F499B020B4306E04B089BB2C90701D5D5
:105CF00001339BB29B0213802A687A4B1340C02267
:105D000092015340784A13432B606EE7009B02AA2E
:105D10009F006B4BFF183B689BB2D380D3881BB2AC
:105D2000002B68DA28243A686A4B674E13403B60C0
:105D3000009B5C43341923002500C2331B78B8351F
:105D40002878002B0CD1FFF7C7FC051E2AD02300B2
:105D5000C834BC33020019882068FFF7F3FC21E047
:105D6000FFF738FB030028785B0406D5FFF790FCAB
:105D7000051E0ED02300BE3305E0FFF79DFC051E77
:105D800007D02300C033C83419882A002068FFF7E1
:105D9000D9FC2823009A00215343F318B83318780C
:105DA000FFF79EFC2821009B594371180A00D0324E
:105DB00013685B1913600B00C8331A6852191A6014
:105DC00004331B68002B04D00800C43000688542EF
:105DD0000BD22823009A30005343F318B8331978B4
:105DE0003A4B1B681B68984705E0B8319BB20978AD
:105DF0003000FFF7C4FD802202ABDB88134200D1E4
:105E0000F3E63A682F4B009C13403B6028277C4305
:105E10002D4D009A2C19E31CDB7F01322E000192DC
:105E2000207E002B0BD1FFF743FC021E206326D0FF
:105E3000019BA18B5F43E859FFF770FC1FE0FFF760
:105E4000C9FA0300207E5B0606D5FFF721FC021E7F
:105E500020630CD0E18B05E0FFF72EFC021E2063CF
:105E600005D0218C019B5F43E859FFF757FC28239D
:105E7000009A01215343F318187EFFF731FC2824C0
:105E8000009F6743F719387EFFF712FC019B3863C8
:105E90005C432B591A182A5134196368397E002B38
:105EA00005D13000094B1B685B6898479DE63000C0
:105EB000FFF7A3FD99E605B0F0BDC046445C004085
:105EC000005C00400F8F000084020020540000207E
:105ED000940200208F0F0000505C004006600040DC
:105EE0000080FFFF8FBF000080800000F7B56B4689
:105EF0009D1D00232C4C2B8023682C4E9BB22B80A5
:105F0000802331681B022A880B401A4201D0FFF718
:105F100067FE2B88326813405B050BD5244B254F59
:105F20002360254B38001B681B6998470021380007
:105F3000FFF70AFE2A8831680A40930401D51F4BF7
:105F400023602B880B40DB0409D51D4B19482360C7
:105F5000194B1B689B6998470020FDF715FD2B889E
